:100000000C94B3000C94DB000C94DB000C94B20D48
:100010000C94D60D0C94FA0D0C94DB000C94B107E3
:100020000C94DB000C94DB000C94DB000C94DB00E4
:100030000C94DB000C94DB000C94DB000C94DB00D4
:100040000C9482030C94DB000C9432090C94750917
:100050000C94DB000C94DB000C94DB000C94DB00B4
:100060000C94DB000C94DB00000000070002010090
:100070000003040600000000000000000102040864
:100080001020408001020408102001020408102002
:10009000040404040404040402020202020203032E
:1000A00003030303000000002300260029000000D2
:1000B0000000250028002B0000000000240027007D
:1000C0002A000200C201000100110011000C000012
:1000D000E100000A0025002500210000960000191B
:1000E00000390039003600127A00001F0046004631
:1000F0000044008070000022004D004D004A0000C6
:100100004B00003600750075007200403800004A50
:10011000009C009C009900802500007200EC00EC1F
:1001200000E900C0120000E900DA01DA01D701603D
:10013000090000D701B603B603B303B0040000B34F
:10014000036E076E076B07580200006E07DC0EDCBB
:100150000ED80E2C010000DC0EC11DC11DBE1D00FD
:100160006403380A7E0311241FBECFEFD8E0DEBF40
:10017000CDBF12E0A0E0B1E0EAEFFFE102C00590E0
:100180000D92AE3AB107D9F724E0AEEAB2E001C071
:100190001D92AD30B207E1F710E0C2EBD0E004C031
:1001A0002197FE010E94DB0FC03BD107C9F70E94D7
:1001B0008B080C94640F0C94000040E855E260E05A
:1001C00070E08FE193E00E94B00940E855E260E002
:1001D00070E085EE92E00E94970E20E044E064E13A
:1001E0008EEA92E00E94670B62E080910A010E9411
:1001F000850462E0809108010E94850462E080919C
:1002000002010E94850462E0809106010E9485043B
:1002100062E0809104010C948504892B71F540E023
:1002200060E08EEA92E00E94310B66E171E08EEAB6
:1002300092E00E944A0841E060E08EEA92E00E946B
:10024000310B67E271E08EEA92E00E944A0842E0D8
:1002500060E08EEA92E00E94310B67E371E08EEA83
:1002600092E00E944A0860EA7FE080E090E00E940D
:10027000F1038EEA92E00C942A0B0895482F60E077
:100280008EEA92E00E94310B66E471E08EEA92E021
:100290000C944A081092C4021092C302E5ECF2E0FA
:1002A00010821182128213821482089520910C010F
:1002B000222309F475C021E02093CA0210920C0198
:1002C000019781F58091C3029091C4029C012F5F38
:1002D0003F4F3093C4022093C302FC01EB53FD4F08
:1002E00022E020836BE571E08FE193E00E946708D4
:1002F00081E090E00E943E0141E060E08EEA92E001
:100300000E94310B6BE571E08EEA92E00E944A0890
:1003100042E06091E1028EEA92E00E94310B61E6D8
:1003200071E031C061307105D9F58091C3029091BF
:10033000C402AC014F5F5F4F5093C4024093C302AD
:10034000FC01EB53FD4F208363E671E08FE193E006
:100350000E94670881E090E00E943E0141E060E079
:100360008EEA92E00E94310B63E671E08EEA92E041
:100370000E944A0842E06091E1028EEA92E00E9407
:10038000310B69E671E08EEA92E00E944A088091A2
:10039000E1029091E20201969093E2028093E102E1
:1003A00008954AEE51E080E090E0E5ECF2E020E0D4
:1003B00030E071912F5F3F4FDA01A20FB31F6C91B4
:1003C00076130DC025303105A1F726E0289FF001F6
:1003D000299FF00D1124E651FE4F8081089501966A
:1003E0004A5F5F4F8A31910501F780E00895CF930E
:1003F00080910C01882309F451C010920C010E94D5
:10040000D101C82F882339F16BE671E08FE193E0C9
:100410000E944A086C2F8FE193E00E947908609156
:10042000E3027091E402CB0101969093E402809381
:10043000E30240E08EEA92E00E94310B6C2F8EEADC
:1004400092E00E944C08E091E302F091E402E5534F
:10045000FD4FC08316C06CE771E08FE193E00E940E
:10046000670881E090E00E943E0141E060E08EEA92
:1004700092E00E94310B63E971E08EEA92E00E9403
:100480004A081092E2021092E10282E090E00E949B
:100490003E011092CA02CF910C944A01CF91089567
:1004A000FF920F931F93CF93DF938091DF02909180
:1004B000E0020E940D0181E090E09093E0028093C1
:1004C000DF0280910A010E94F104D1E0892B09F03A
:1004D000D0E0809108010E94F104C1E0892B09F06D
:1004E000C0E0809102010E94F10401E0892B09F033
:1004F00000E0809106010E94F104FF24F394892B0F
:1005000009F0F12C809104010E94F10411E0892B83
:1005100009F010E0DD23B9F024E630E040E050E0DF
:1005200068EB71E0809100010E941A05CC2391F0E4
:1005300024E630E040E050E060E471E080910001AA
:100540000E941A0507C0809100010E949B07CC23DE
:1005500059F0EECF6D2F70E08C2F90E00E94560185
:10056000DD2309F4A2C0AAC0002309F442C080918F
:100570000C01882309F4A2C010920C016091E302DF
:100580007091E402615071097093E4026093E30298
:1005900040E08EEA92E00E94310B60E28EEA92E047
:1005A0000E944C08E091E302F091E402E553FD4F14
:1005B00080E2808366EA71E08FE193E00E94670841
:1005C00081E090E00E943E0141E060E08EEA92E02E
:1005D0000E94310B60EC71E08EEA92E00E944A08C2
:1005E00082E090E00E943E011092E2021092E1024D
:1005F0005EC0112319F00E94F70159C0F11008C024
:1006000080910C0181115AC081E080930C0156C089
:1006100080910C01882309F451C010920C01809143
:10062000CA0281110E94F70163ED71E08FE193E04E
:100630000E94670881E090E00E943E0141E060E096
:100640008EEA92E00E94310B6DED71E08EEA92E04D
:100650000E944A086091E3027091E402CB01019686
:100660009093E4028093E30240E08EEA92E00E94DD
:10067000310B60E28EEA92E00E944C08E091E302C6
:10068000F091E402E553FD4F80E280836BEC72E071
:1006900085EE92E00E944A0882E090E00E943E01CE
:1006A0001092E2021092E10209C0C11107C0F110DC
:1006B00005C0011103C0112309F4A2CFDF91CF912E
:1006C0001F910F91FF900895CF92EF920F9320E02A
:1006D00041E060E085EE92E00E946C0E82E0C82E60
:1006E00093E0E92E04E025E04BE06CE08EEA92E036
:1006F0000E941B0C0F91EF90CF90089585EE92E031
:100700000C945D0F1F920F920FB60F9211242F932E
:100710003F938F939F93AF93BF93809102039091E8
:100720000303A0910403B09105033091010323E07A
:10073000230F2D3720F40196A11DB11D05C026E819
:10074000230F0296A11DB11D209301038093020384
:1007500090930303A0930403B093050380910603D1
:1007600090910703A0910803B09109030196A11D80
:10077000B11D8093060390930703A0930803B093E1
:100780000903BF91AF919F918F913F912F910F904E
:100790000FBE0F901F9018953FB7F89480910603F5
:1007A00090910703A0910803B091090326B5A89B77
:1007B00005C02F3F19F00196A11DB11D3FBFBA2FF3
:1007C000A92F982F8827820F911DA11DB11DBC0153
:1007D000CD0142E0660F771F881F991F4A95D1F718
:1007E0000895CF92DF92EF92FF92CF93DF936B0148
:1007F0007C010E94CC03EB01C114D104E104F1049B
:1008000079F00E94CC036C1B7D0B683E7340A0F313
:1008100081E0C81AD108E108F108C851DC4FECCFDB
:10082000DF91CF91FF90EF90DF90CF9008950197E7
:1008300039F0880F991F880F991F02970197F1F7D8
:100840000895789484B5826084BD84B5816084BD48
:1008500085B5826085BD85B5816085BDEEE6F0E039
:10086000808181608083E1E8F0E010828081826095
:100870008083808181608083E0E8F0E08081816016
:100880008083E1EBF0E0808184608083E0EBF0E046
:10089000808181608083EAE7F0E0808184608083EA
:1008A0008081826080838081816080838081806894
:1008B00080831092C1000895833081F028F4813044
:1008C00099F08230A1F008958630A9F08730B9F010
:1008D0008430D1F4809180008F7D03C080918000AE
:1008E0008F7780938000089584B58F7702C084B598
:1008F0008F7D84BD08958091B0008F7703C0809173
:10090000B0008F7D8093B0000895CF93DF9390E087
:10091000FC01E458FF4F2491FC01E057FF4F849104
:10092000882361F190E0880F991FFC01E854FF4F84
:10093000C591D491FC01E255FF4FA591B49161118D
:1009400009C09FB7F8948881209582238883EC9111
:100950002E230BC0623061F49FB7F8943881822F48
:10096000809583238883EC912E2B2C939FBF06C008
:100970008FB7F894E8812E2B28838FBFDF91CF911A
:1009800008951F93CF93DF93282F30E0F901E859A2
:10099000FF4F8491F901E458FF4FD491F901E057DA
:1009A000FF4FC491CC23C9F0162F81110E945C0423
:1009B000EC2FF0E0EE0FFF1FE255FF4FA591B49131
:1009C0008FB7F894111105C09C91ED2FE095E923A4
:1009D00002C0EC91ED2BEC938FBFDF91CF911F9173
:1009E0000895CF93DF93282F30E0F901E859FF4FA6
:1009F0008491F901E458FF4FD491F901E057FF4F7A
:100A0000C491CC2391F081110E945C04EC2FF0E0A2
:100A1000EE0FFF1FEC55FF4FA591B491EC91ED2324
:100A200081E090E021F480E002C080E090E0DF917E
:100A3000CF9108953F924F925F926F927F928F92E3
:100A40009F92AF92BF92CF92DF92EF92FF920F935D
:100A50001F93CF93DF9300D000D0CDB7DEB7909136
:100A60000D01981721F09F3F09F02FC204C0E2EC5E
:100A7000F0E0349081C080930D01E2ECF0E0E4916D
:100A8000EF3F09F422C2E13031F1E23009F44BC00A
:100A9000E11171C014BC15BC94B5926094BD95B5BC
:100AA000916095BDA82FB0E0FD01E057FF4FE491A4
:100AB000F0E0EE0FFF1FE255FF4F059114911093E8
:100AC0001A0300931903FD01E458FF4FE491E093EA
:100AD0001803312C53C01092800010928100909125
:100AE0008100986090938100909181009160909333
:100AF0008100A82FB0E0FD01E057FF4FE491F0E046
:100B0000EE0FFF1FE255FF4F059114911093130351
:100B100000931203FD01E458FF4FE491E0931103A9
:100B2000332433942BC01092B0001092B1009091F6
:100B3000B00092609093B0009091B100916090935A
:100B4000B100A82FB0E0FD01E057FF4FE491F0E0C5
:100B5000EE0FFF1FE255FF4F0591149110930C0308
:100B600000930B03FD01E458FF4FE491E0930A0367
:100B700002E0302E03C03E2E37FCA7C129013A0106
:100B80008B0161E00E9485044801A12CB12C832DCA
:100B90008D7F09F0B4C060E072E18AE790E0A501C2
:100BA00094010E949D0F29833A834B835C836901E2
:100BB0007A0121E0C21AD108E108F1088FEFC816C6
:100BC000D104E104F10409F008F44CC060E472E4DB
:100BD0008FE090E0A50194010E949D0F69017A01C8
:100BE000E1E0CE1AD108E108F108F2E03F1220C09E
:100BF0002FEFC216D104E104F10409F008F463C137
:100C000060E970ED83E090E0A50194010E949D0FE2
:100C100069017A0181E0C81AD108E108F108EFEF13
:100C2000CE16D104E104F10409F0B8F583E064C004
:100C3000FFEFCF16D104E104F104B1F0A8F068E4AD
:100C400078EE81E090E0A50194010E949D0F69017A
:100C50007A0181E0C81AD108E108F108332009F4CB
:100C6000D8C028C181E001C082E03320A1F044C097
:100C700089819A81AB81BC812AE0B595A79597952A
:100C800087952A95D1F76C017D0121E0C21AD10820
:100C9000E108F10885E085BD6BC068E478EE81E08D
:100CA00090E0A50194010E949D0F69017A01F1E095
:100CB000CF1AD108E108F1082FEFC216D104E104E0
:100CC000F10409F008F4A3C064E274EF80E090E05E
:100CD000A50194010E949D0F69017A01E1E0CE1AFD
:100CE000D108E108F108FFEFCF16D104E104F104C7
:100CF00011F008F0B0C085E08093B10039C060E029
:100D000072E18AE790E0A50194010E949D0F6901BC
:100D10007A0181E0C81AD108E108F108C114D104B0
:100D2000E1E0EE06F10488F068E478EE81E090E01E
:100D3000A50194010E949D0F69017A01F1E0CF1A8B
:100D4000D108E108F10893E001C091E021E03212FE
:100D50000FC080918100887F892B8093810041148E
:100D600051046104710449F42FEF3FEFA9012DC034
:100D7000411451046104710471F0D801AA0FBB1F22
:100D8000A30192010E94BC0F28EE33E040E050E046
:100D90000E947B0F03C02FEF3FEFA90181E03816BF
:100DA000A1F0E2E03E1619F131108FC0C7BC2093CC
:100DB0001B0330931C0340931D0350931E0380912B
:100DC0006E00826080936E0080C0D0928900C092D5
:100DD0008800209314033093150340931603509317
:100DE000170380916F00826080936F006EC0C09285
:100DF000B30020930D0330930E0340930F035093E1
:100E00001003809170008260809370005EC084E067
:100E100073CFFFEFCF16D104E104F104D1F0C8F095
:100E200062E17AE780E090E0A50194010E949D0FC5
:100E300069017A0181E0C81AD108E108F108EFEFF1
:100E4000CE16D104E104F10411F008F011CF84E0D2
:100E500022CF83E020CF62E17AE780E090E0A50135
:100E600094010E949D0F69017A0181E0C81AD1089E
:100E7000E108F108EFEFCE16D104E104F104C1F06E
:100E8000B8F089819A81AB81BC814AE0B595A7957C
:100E9000979587954A95D1F76C017D0121E0C21A9B
:100EA000D108E108F108332009F4F4CE87E024CF1B
:100EB00086E0DBCEFFEFCF16D104E104F10409F0A8
:100EC00050F684E0D2CE82E017CF0F900F900F90B3
:100ED0000F90DF91CF911F910F91FF90EF90DF90D6
:100EE000CF90BF90AF909F908F907F906F905F90CA
:100EF0004F903F900895813039F018F0823051F0D2
:100F0000089510926E00089580916F008D7F8093F8
:100F10006F000895809170008D7F8093700081E054
:100F20008093B0008091B100887F84608093B1008D
:100F30001092B3000895CF93C82F80910D018C13A8
:100F400007C0E2ECF0E0E4918FEF80930D0101C067
:100F5000EFEF8E2F0E947B0760E08C2FCF910C94D7
:100F6000C1041F920F920FB60F9211242F933F933B
:100F70004F935F936F937F938F939F93AF93BF93A1
:100F8000EF93FF9380910D0390910E03A0910F03B7
:100F9000B0911003892B8A2B8B2B51F180910A037E
:100FA000E0910B03F0910C0390818927808380915D
:100FB0000D0390910E03A0910F03B091100318162A
:100FC00019061A061B06C4F480910D0390910E03B6
:100FD000A0910F03B09110030197A109B10980936B
:100FE0000D0390930E03A0930F03B093100304C05E
:100FF00080910D010E949B07FF91EF91BF91AF91EE
:101000009F918F917F916F915F914F913F912F9120
:101010000F900FBE0F901F901895CF92DF92EF9216
:10102000FF920F931F93CF93DF936C01EB017B0132
:10103000E40EF51E00E010E0CE15DF0561F06991C9
:10104000D601ED91FC910190F081E02DC60109954A
:10105000080F191FF1CFC801DF91CF911F910F9198
:10106000FF90EF90DF90CF9008956115710579F0B2
:10107000FB0101900020E9F73197AF01461B570BA8
:10108000DC01ED91FC910280F381E02D099480E078
:1010900090E008950C943508DC01ED91FC910190ED
:1010A000F081E02D09940F931F93CF93DF93EC0110
:1010B0006DE00E944C088C016AE0CE010E944C0851
:1010C000800F911FDF91CF911F910F9108950F9382
:1010D0001F93CF93DF93EC010E9435088C01CE0162
:1010E0000E945308800F911FDF91CF911F910F91A4
:1010F00008950F931F93CF93DF93EC010E944C0848
:101100008C01CE010E945308800F911FDF91CF9177
:101110001F910F9108950E9421040E94DD00CCE6EA
:10112000D9E00E9450022097E1F30E946C09F9CFA8
:10113000FC0124853585F901E05CFF4F80819181B8
:10114000329620813181821B930B8F7399270895EA
:10115000DC011C96ED91FC911D97DF01A05CBF4F57
:101160002D913C91119712968D919C911197281772
:10117000390739F08D919C91E80FF91F808190E03B
:1011800008958FEF9FEF0895FC01A485B585FD01BB
:10119000E05CFF4F20813181329680819181281758
:1011A000390779F080819181A80FB91F8C91208136
:1011B00031812F5F3F4F2F7333273183208390E09E
:1011C00008958FEF9FEF0895FC0181A1882329F0F6
:1011D000A489B5898C9186FFFBCF11A208950F9346
:1011E0001F93CF93DF93FC01A685B7858D01005C2B
:1011F0001F4FE8018881998101968F739927AD016E
:101200004E5B5F4FEA012881398182179307D1F342
:10121000E80128813981A20FB31F6C93A685B78599
:10122000A05CBF4F11969C938E93A689B7892C9191
:1012300081E090E0078C02C0880F991F0A94E2F7C2
:10124000822B8C9381E081A30488F589E02D808135
:101250008064808381E090E0DF91CF911F910F91B6
:10126000089508951F920F920FB60F9211242F9395
:101270004F935F938F939F93EF93FF938091C00061
:1012800082FD1CC02091C6008091C5039091C603C9
:1012900001968F7399274091C7035091C803841713
:1012A000950771F0E091C503F091C603EB57FC4F31
:1012B00020839093C6038093C50302C08091C6002B
:1012C000FF91EF919F918F915F914F912F910F908F
:1012D0000FBE0F901F9018958FE193E00E94980821
:1012E000892B11F00C94310908951F920F920FB6BB
:1012F0000F9211242F933F938F939F93EF93FF931C
:101300002091810330918203809183039091840323
:101310002817390731F48091C1008F7D8093C10077
:1013200014C0E0918303F0918403EF5BFC4F2081B4
:10133000809183039091840301968F7399279093F2
:101340008403809383032093C600FF91EF919F91C4
:101350008F913F912F910F900FBE0F901F90189576
:10136000CF92DF92EF92FF920F931F93CF93DF9371
:10137000EC016A017B014115514E6105710509F1CE
:10138000EC89FD8981E090E008A002C0880F991FD8
:101390000A94E2F7808360E079E08DE390E0A701B2
:1013A00096010E947B0F89019A01015011092109C0
:1013B0003109369527951795079598010115104124
:1013C000A8F0EC89FD89108260E874E88EE190E075
:1013D000A70196010E947B0FDA01C9010197A109BB
:1013E000B109B695A795979587959C01E889F989E4
:1013F0003083EA89FB89208319A2EE89FF89408125
:1014000081E090E09C010C8C02C0220F331F0A94F3
:10141000E2F7242B2083EE89FF8940819C010D8C0B
:1014200002C0220F331F0A94E2F7242B2083EE8997
:10143000FF8940819C010E8C02C0220F331F0A9449
:10144000E2F7242B2083EE89FF8920810F8C02C0D4
:10145000880F991F0A94E2F7809582238083DF9199
:10146000CF911F910F91FF90EF90DF90CF90089553
:10147000EFE1F3E01382128288EE93E0A0E0B0E0A7
:1014800084839583A683B7838AE892E091838083DF
:1014900085E893E09587848781E493E09787868742
:1014A00085EC90E0918B808B84EC90E0938B828B29
:1014B00080EC90E0958B848B81EC90E0978B868B11
:1014C00082EC90E0918F808F86EC90E0938F828FFA
:1014D00084E0848F83E0858F87E0868F85E0878F27
:1014E00081E080A30895CF93DF93EC0160E08E81CB
:1014F0000E94C10481E090E00E94170461E08E81A7
:101500000E94C10481E090E00E94170460E08E8197
:101510000E94C10484E690E0DF91CF910C941704FF
:10152000AF92BF92CF92DF92EF92FF920F931F93F1
:10153000CF93DF935C017C0187E0E80EF11CC0E0F3
:10154000D0E0062F10E0670161E0F70181917F0193
:101550000E948504B8010C2E02C0759567950A9407
:10156000E2F76170F60180810E94C1042196C430C7
:10157000D10549F7C501DF91CF911F910F91FF90E0
:10158000EF90DF90CF90BF90AF900C94730AAF9222
:10159000BF92CF92DF92EF92FF920F931F93CF9360
:1015A000DF935C017C0187E0E80EF11CC0E0D0E035
:1015B000062F10E0670161E0F70181917F010E9431
:1015C0008504B8010C2E02C0759567950A94E2F760
:1015D0006170F60180810E94C1042196C830D10556
:1015E00049F7C501DF91CF911F910F91FF90EF90C7
:1015F000DF90CF90BF90AF900C94730A1F93CF935E
:10160000DF93EC01162F642F8C810E94C1048D8121
:101610008F3F19F060E00E94C1048F85612F84FF25
:1016200006C0CE01DF91CF911F910C94C70A70E0E4
:1016300084E0759567958A95E1F7CE010E94900A3E
:10164000612FCE01DF91CF911F910C94900A40E061
:101650000C94FE0A61E00E94270B80ED97E00C9449
:101660001704CF93DF93CDB7DEB728970FB6F89462
:10167000DEBF0FBECDBF9C0188E0EEE0F1E0DE01F1
:10168000119601900D928A95E1F7F9018389481727
:1016900010F04FEF480FFE013196E40FF11DE40FFB
:1016A000F11D9081690F6068C90128960FB6F89402
:1016B000DEBF0FBECDBFDF91CF910C94270BFC0195
:1016C0006089262F2460208B6C600C94270BCF93AD
:1016D000DF93EC01423018F08F8588608F874B8B49
:1016E0001C8A222329F0413019F48F8584608F876A
:1016F00080E593EC0E94170460E08C810E94C10495
:1017000060E08E810E94C1048D818F3F19F060E0FE
:101710000E94C1046F8564FD1DC063E0CE010E947C
:10172000900A84E991E10E94170463E0CE010E94CF
:10173000900A84E991E10E94170463E0CE010E94BF
:10174000900A86E990E00E94170462E0CE010E94B0
:10175000900A16C06062CE010E94270B84E991E1D5
:101760000E9417046F856062CE010E94270B86E9F4
:1017700090E00E9417046F856062CE010E94270BE3
:101780006F856062CE010E94270B84E0888BCE01BA
:101790000E945F0BCE010E942A0B82E0898B66E0DB
:1017A000CE01DF91CF910C94270B6F927F928F9295
:1017B000AF92CF92EF920F931F93CF93DF93CDB75A
:1017C000DEB73C01162F842F5D854E853F859889B5
:1017D000F301848325830683E782C086A1868286FF
:1017E000538744873587968761E00E948504F3011B
:1017F00085818F3F19F061E00E94850461E0F3016B
:1018000086810E948504112319F0F301178603C015
:1018100080E1F301878720E041E060E1C301DF91CF
:10182000CF911F910F91EF90CF90AF908F907F90BD
:101830006F900C94670B8F92AF92CF92EF920F93B1
:10184000DC0113961C921E921297EAE9F2E0ED93E6
:10185000FC931F921F921F921F928C2CAE2CC02EB5
:10186000E22E042F2FEF462F61E00E94D50B0F9040
:101870000F900F900F900F91EF90CF90AF908F90AF
:10188000089541E00E94FE0A81E090E008952091D1
:101890000B0430910C0428173907B9F49091C9034F
:1018A0008091CA03981789F0E091C903F0E0E553ED
:1018B000FC4F80812091C90330E02F5F3F4F2F7391
:1018C00033272093C90390E008958FEF9FEF089589
:1018D00020910B0430910C042817390781F4909162
:1018E000C9038091CA03981751F0E091C903F0E051
:1018F000E553FC4F8081082E000C990B08958FEF63
:101900009FEF089520910B0430910C04281739079C
:1019100071F48091CA032091C90390E0805C9F4FCD
:10192000821B910960E470E00E94670F089580E0D7
:1019300090E0089520910B0430910C04281739078A
:1019400039F48FB7F8941092CA031092C9038FBF6D
:101950000895DC015196ED91FC915297908150963B
:101960008C91809589238083089520E001972FEF43
:101970008F3F9207D9F7089520910B0430910C0402
:101980002817390789F0FC01238D2E7F238F2FB76D
:10199000F8941092CA031092C90390930C04809398
:1019A0000B042FBF81E0089580E00895EF92FF922D
:1019B0000F931F93CF93DF93EC018B8DEE85FF8503
:1019C0009D8581FF04C08081982329F446C08081D1
:1019D000982309F042C08B899C890E94B50C88E04D
:1019E000E82EF12C10E001E08D899E890E94B50C53
:1019F000EE85FF8590818D85892311F0102B03C022
:101A0000802F80951823000F81E0E81AF10861F714
:101A10008F89988D0E94B50C8B8D81FD10958091DA
:101A2000CA032091C90390E001968F73992730E093
:101A30008217930779F0E091CA03F0E0E553FC4F79
:101A400010838091CA0390E001968F739927809349
:101A5000CA0303C08B8D81608B8FDF91CF911F9163
:101A60000F91FF90EF900895611102C00C94A90CA2
:101A7000DC015196ED91FC915297208150968C910A
:101A8000822B80830895DF92EF92FF920F931F9332
:101A9000CF93DF93EC01298D3A8D2115310529F47F
:101AA00081E090E09B838A834BC0162FDFB6F894C9
:101AB0006B8D669561700E94340D898D9A8D0596A7
:101AC0000E94B50C8B8D98E0E92EF12C01E081FF8E
:101AD00018C0802F812321F0CE010E94A90C04C0E0
:101AE00061E0CE010E94340D898D9A8D0E94B50C63
:101AF000000F81E0E81AF10861F7CE010E94A90CFD
:101B000018C0802F812329F061E0CE010E94340D9E
:101B100003C0CE010E94A90C898D9A8D0E94B50C3C
:101B2000000F81E0E81AF10861F761E0CE010E9440
:101B3000340DDFBE898D9A8D0E94B50C21E030E016
:101B4000C901DF91CF911F910F91FF90EF90DF902E
:101B5000089580910B0490910C04009711F00C945F
:101B6000D60C08951F920F920FB60F9211242F9347
:101B70003F934F935F936F937F938F939F93AF9315
:101B8000BF93EF93FF930E94A90DFF91EF91BF9137
:101B9000AF919F918F917F916F915F914F913F9105
:101BA0002F910F900FBE0F901F9018951F920F92BC
:101BB0000FB60F9211242F933F934F935F936F9320
:101BC0007F938F939F93AF93BF93EF93FF930E9465
:101BD000A90DFF91EF91BF91AF919F918F917F914F
:101BE0006F915F914F913F912F910F900FBE0F908A
:101BF0001F9018951F920F920FB60F9211242F93DA
:101C00003F934F935F936F937F938F939F93AF9384
:101C1000BF93EF93FF930E94A90DFF91EF91BF91A6
:101C2000AF919F918F917F916F915F914F913F9174
:101C30002F910F900FBE0F901F9018951F93CF9369
:101C4000DF93EC01162F61E0812F0E94850461E093
:101C5000812F0E94C104612F70E0FB01E458FF4F07
:101C6000E491E88BFB01E057FF4FE491F0E0EE0FC9
:101C7000FF1FE255FF4F859194919A8B898BDF91DD
:101C8000CF911F9108951F93CF93DF93EC01162FEF
:101C900060E0812F0E9485048B8D81FD04C061E08E
:101CA000812F0E94C1041C87612F70E0FB01E45862
:101CB000FF4FE491ED87FB01E057FF4FE491F0E027
:101CC000EE0FFF1FEC55FF4F859194919F878E87F4
:101CD000DF91CF911F9108951F93CF93DF93EC0174
:101CE000162F1B821A8288EE93E0A0E0B0E08C836E
:101CF0009D83AE83BF8382EA92E0998388831C8AA6
:101D00001B8A1E8A1D8A188E1F8A1A8E198E8B8D29
:101D10008E7F20FB81F98B8F642FCE010E941E0ED7
:101D2000612FCE01DF91CF911F910C94430ECF9282
:101D3000DF92EF92FF92CF93DF93EC011A8E198E10
:101D4000188E1F8A1E8A1D8A83EC90E020E030E006
:101D5000FC01C590D590E590F490C416D506E60632
:101D6000F70619F54CE0429FC001439F900D1124E6
:101D7000FC01E953FF4F259134913C8B2B8BFC01E7
:101D8000E753FF4F259134913E8B2D8BFC01E5539A
:101D9000FF4F25913491388F2F8BFC01E353FF4F78
:101DA000859194919A8F898F09C02F5F3F4F0C9630
:101DB0002D30310509F0CCCF1C8A1B8A8F89988D74
:101DC000892B09F444C08C858631E8F59091680030
:101DD000883050F021E08E3008F420E081E001C02E
:101DE000880F2A95EAF701C084E0892B8093680068
:101DF0008C85883038F08E3040F0863148F4ECE63F
:101E0000F0E008C0EDE6F0E005C0EBE6F0E002C06F
:101E1000E0E0F0E04081883030F491E001C0990FBB
:101E20008A95EAF70EC0282F30E08E3018F428503B
:101E3000310902C02E50310991E001C0990F2A9555
:101E4000EAF7942B9083898D9A8D0E94B50CCE0170
:101E5000DF91CF91FF90EF90DF90CF900C94BC0C6E
:101E6000FC012485263140F5283028F02E3030F052
:101E7000ECE6F0E005C0EDE6F0E002C0EBE6F0E0F5
:101E80003081283038F481E090E001C0880F2A9535
:101E9000EAF70FC0422F50E02E3018F44850510995
:101EA00002C04E50510981E090E001C0880F4A9570
:101EB000EAF7809583238083089522EA32E0FC01CB
:101EC000318320830C94300FF8940C94F00F97FB1F
:101ED000072E16F4009407D077FD09D00E94C70F93
:101EE00007FC05D03EF4909581959F4F089570951D
:101EF00061957F4F0895A1E21A2EAA1BBB1BFD011D
:101F00000DC0AA1FBB1FEE1FFF1FA217B307E407D8
:101F1000F50720F0A21BB30BE40BF50B661F771F30
:101F2000881F991F1A9469F7609570958095909510
:101F30009B01AC01BD01CF010895052E97FB1EF456
:101F400000940E94B40F57FD07D00E947B0F07FC3E
:101F500003D04EF40C94B40F5095409530952195D4
:101F60003F4F4F4F5F4F08959095809570956195C5
:101F70007F4F8F4F9F4F08950E94E10FA59F900DB7
:101F8000B49F900DA49F800D911D11240895AA1B4C
:101F9000BB1B51E107C0AA1FBB1FA617B70710F054
:101FA000A61BB70B881F991F5A95A9F78095909586
:101FB000BC01CD010895EE0FFF1F0590F491E02DB7
:101FC0000994A29FB001B39FC001A39F700D811D12
:101FD0001124911DB29F700D811D1124911D089532
:101FE00010E0C2EBD0E004C0FE010E94DB0F21969E
:0A1FF000C33BD107C9F7F894FFCFF7
:101FFA000D000A00090008000700060001FF0000A2
:10200A004000140054004349414F2046454445527C
:10201A00494341203D2900534F4E4F2050524F4EC5
:10202A00544F20504552004553534552452055536D
:10203A0041544F2121002020202020202020202030
:10204A0020202020202020202020004C494E4541DD
:10205A00002D0050554E544F002E005265616420E9
:10206A006368617261637465723A2000556E7265C5
:10207A00636F676E697A656420636861726163740D
:10208A006572004C455454455241204E4F4E2056DD
:10209A00414C4944410043414E43454C4C41544113
:1020AA0020554C54494D41204C4554544552410009
:1020BA004C4554544552412043414E43454C4C41B2
:1020CA00544100494D4D455454455245204E554FB3
:1020DA005641205041524F4C41004101020000003C
:1020EA00420201010100430201020100440201010E
:1020FA0000004501000000004601010201004702FC
:10210A00020100004801010101004901010000002B
:10211A004A01020202004B02010200004C010201C4
:10212A0001004D02020000004E02010000004F02B1
:10213A0002020000500102020100510202010200E3
:10214A005201020100005301010100005402000083
:10215A000000550101020000560101010200570169
:10216A0002020000580201010200590201020200A3
:10217A005A020201010000000000EF080D08980849
:10218A00C408A808E40800000000410C0D0800007B
:0E219A000000430D0D08820C470C680C9A0CD7
:00000001FF
