:100000000C94B3000C94DB000C94DB000C944E11A8
:100010000C9472110C9496110C94DB000C94D90A78
:100020000C94DB000C94DB000C94DB000C94DB00E4
:100030000C94DB000C94DB000C94DB000C94DB00D4
:100040000C9481060C94DB000C94960C0C94D90C47
:100050000C94DB000C94DB000C94DB000C94DB00B4
:100060000C94DB000C94DB00000000070002010090
:100070000003040600000000000000000102040864
:100080001020408001020408102001020408102002
:10009000040404040404040402020202020203032E
:1000A00003030303000000002300260029000000D2
:1000B0000000250028002B0000000000240027007D
:1000C0002A000200C201000100110011000C000012
:1000D000E100000A0025002500210000960000191B
:1000E00000390039003600127A00001F0046004631
:1000F0000044008070000022004D004D004A0000C6
:100100004B00003600750075007200403800004A50
:10011000009C009C009900802500007200EC00EC1F
:1001200000E900C0120000E900DA01DA01D701603D
:10013000090000D701B603B603B303B0040000B34F
:10014000036E076E076B07580200006E07DC0EDCBB
:100150000ED80E2C010000DC0EC11DC11DBE1D00FD
:10016000B4019C0DCE0111241FBECFEFD8E0DEBF3D
:10017000CDBF13E0A0E0B1E0ECE5FAE202C00590EB
:100180000D92AC34B107D9F724E0ACE4B3E001C080
:100190001D92A13CB207E1F710E0C2EBD0E004C031
:1001A0002197FE010E940C15C03BD107C9F70E94A0
:1001B000A10B0C945C130C94000040E855E260E045
:1001C00070E083ED93E00E94140D40E855E260E09A
:1001D00070E089E993E00E94331241E651E064E067
:1001E0008CE493E00E94A50F49E551E062E08CE4C5
:1001F00093E00E94A50F41E551E061E08CE493E0BB
:100200000E94A50F49E653E060E08CE493E00E9471
:10021000A50F20E044E064E18CE493E00E94CB0E63
:1002200062E080910E010E94AD0762E080910C01B6
:100230000E94AD0762E0809106010E94AD0762E076
:1002400080910A010E94AD0762E0809108010E943E
:10025000AD0780E00E9467070C94AE0B482F60E06A
:100260008CE493E00E94950E64E771E08CE493E0E7
:100270000C94720B892B09F044C040E060E08CE4E0
:1002800093E00E94950E69E871E08CE493E00E948F
:10029000720B41E060E08CE493E00E94950E6AE905
:1002A00071E08CE493E00E94720B42E060E08CE429
:1002B00093E00E94950E6AEA71E08CE493E00E945C
:1002C000720B60EA7FE080E090E00E94FC068CE424
:1002D00093E00E948E0E40E060E08CE493E00E9488
:1002E000950E69EB71E08CE493E00E94720B68EE6E
:1002F00073E080E090E00E94FC0680E090E00C94C7
:100300002E0108951092620310926103E3E6F3E078
:1003100010821182128213821482089547E852E0FB
:1003200080E090E0E3E6F3E020E030E071912F5FC1
:100330003F4FDA01A20FB31F6C9176130DC0253029
:100340003105A1F726E0289FF001299FF00D112427
:10035000E957FD4F8081089501964A5F5F4F8A31CA
:10036000910501F780E00895CF92EF920F9320E07E
:1003700041E060E089E993E00E94081282E0C82E23
:1003800093E0E92E04E025E04BE06CE08CE493E0A0
:100390000E947F0F0F91EF90CF90089589E993E02D
:1003A0000C94F91220911001222309F467C02091C6
:1003B000610330916203253031050CF05FC041E0EC
:1003C00040936803109210010197C1F4F901ED59AF
:1003D000FC4F82E080836DEC71E083ED93E00E943E
:1003E0008F0B81E090E00E942E0141E060E08CE400
:1003F00093E00E94950E6DEC71E019C061307105BB
:10040000D1F4F901ED59FC4F408363ED71E083EDC8
:1004100093E00E948F0B81E090E00E942E0141E06A
:1004200060E08CE493E00E94950E63ED71E08CE453
:1004300093E00E94720B42E0609195038CE493E09C
:100440000E94950E80916103909162039C012F5F41
:100450003F4F3093620320936103FC01ED59FC4F41
:1004600060818CE493E00E94DD0F80919503909170
:10047000960301969093960380939503089580E0E8
:1004800090E00E942E0181E090E00E942E0182E027
:1004900090E00E942E0183E090E00E942E0140E057
:1004A00060E08CE493E00E94950E69ED71E08CE4CD
:1004B00093E00E94720B68EE73E080E090E00E948F
:1004C000FC0680E090E00E942E012BE530E040E049
:1004D00050E061E470E080E090E00E94DA0B60930D
:1004E000730340E060E08CE493E00E94950E69EEB7
:1004F00071E08CE493E00E94720B609173038CE4D2
:1005000093E00E94740B43E061E18CE493E00E946D
:10051000950E64E08CE493E00E94DD0F64E08CE4CF
:1005200093E00E94DD0F64E08CE493E00E94DD0F15
:1005300083E090E090937203809371030895AF92EB
:10054000BF92CF92DF92EF92FF920F931F93CF93C0
:10055000DF93C82F43E060E08CE493E00E94950EA7
:100560006AE771E08CE493E00E94720B9091730350
:10057000C91739F08091710390917203019709F0C6
:10058000CDC081E090E00E942E0182E090E00E94C8
:100590002E0183E090E00E942E0141E060E08CE4B7
:1005A00093E00E94950E80917103909172030297DF
:1005B0000CF44CC06DEF71E08CE493E00E94720B80
:1005C000C1E2D1E001E411E098EEA92E93E0B92E4A
:1005D00069917991C5010E9490146B01F8016191B4
:1005E00071918F010D2C000CEE08FF08A7019601F8
:1005F000809104010E944208C701B6010E9497132E
:1006000026E636E646EA5FE30E9423140E945F1363
:10061000072E000C880B990B0E94FC0680910401A8
:100620000E94C30AF1E0C133DF0791F642E060E0C7
:100630008CE493E00E94950E67E072E08CE493E016
:100640000E94720BC1E0D0E016E03DC062E172E0B2
:100650008CE493E00E94720BC1E1D1E001E311E070
:1006600088EEA82E83E0B82E69917991C5010E9489
:1006700090146B01F801619171918F010D2C000CA8
:10068000EE08FF08A7019601809104010E9442082C
:10069000C701B6010E94971326E636E646EA5FE3F5
:1006A0000E9423140E945F13072E000C880B990BE5
:1006B0000E94FC06809104010E94C30AF1E0C1324D
:1006C000DF0791F6B3CF80917303082E000C990BCE
:1006D00081549109189FF001199FF00D1124EC0F1E
:1006E000FD1FE957FD4F60818CE493E00E94DD0F10
:1006F0002196C630D10539F768E873E180E090E0D3
:100700000E94FC06DF91CF911F910F91FF90EF9017
:10071000DF90CF90BF90AF900C943F0281E090E0CB
:100720000E942E0141E060E08CE493E00E94950E6F
:100730006CE172E08CE493E00E94720B60917103B3
:100740007091720361507109709372036093710329
:10075000605D8CE493E00E94DD0F62E272E08CE465
:1007600093E00E94720B609171036F5E43E08CE432
:1007700093E00E94950E60E28CE493E0DF91CF91CC
:100780001F910F91FF90EF90DF90CF90BF90AF90AF
:100790000C94740BCF9380911001882309F448C006
:1007A000109210010E948E01C82F882321F18091A0
:1007B000740381111CC06091970370919803CB0161
:1007C0000196909398038093970340E08CE493E024
:1007D0000E94950E6C2F8CE493E00E94740BE091C4
:1007E0009703F0919803E158FC4FC08314C08C2FFD
:1007F0000E949F0210C081E090E00E942E0141E023
:1008000060E08CE493E00E94950E6FE272E08CE46D
:1008100093E00E94720B109296031092950382E06F
:1008200090E00E942E0110926803CF910C948201F7
:10083000CF9108958F929F92AF92BF92FF920F93A4
:100840001F93CF93DF9380919303909194030E9421
:100850003A0181E090E09093940380939303809118
:100860000E010E941908D1E0892B09F0D0E0809197
:100870000C010E941908C1E0892B09F0C0E08091A9
:1008800006010E94190811E0892B09F010E08091FF
:100890000A010E94190801E0892B09F000E080910B
:1008A00008010E941908FF24F394892B09F0F12C08
:1008B000DD23F9F0809110018823F1F028EC30E07D
:1008C00040E050E068EB7BE0809104010E94420828
:1008D000CC2391F080911001882371F028EC30E056
:1008E00040E050E064E57BE0809104010E94420812
:1008F00003C0CC2391F0EECF0E94CB06609375032A
:100900007093760380937703909378036D2F70E054
:100910008C2F90E00E94D20166C080916901FF2077
:1009200009F4DFC1882309F45EC00E94CB068090E1
:10093000750390907603A0907703B0907803DC0164
:10094000CB0188199909AA09BB098D329140A105EB
:10095000B10508F448C00E94CB06609375037093FC
:1009600076038093770390937803109269018091C6
:100970007D0390917E039C012F5F3F4F30937E0358
:1009800020937D03892B91F4109210010E94CB06D5
:10099000DC01CB018053984FAF4FBF4F8093790359
:1009A00090937A03A0937B03B0937C0343E060E0D1
:1009B0008CE493E00E94950E80917D0390917E03DC
:1009C0008130910541F528EC30E040E050E068ECE2
:1009D00070E0809104010E94420862E472E08CE4BD
:1009E00093E00E94720B80917D0390917E03181614
:1009F00019060CF09FC00E94CB068090790390905E
:100A00007A03A0907B03B0907C03681579058A0572
:100A10009B0580F48FC0029731F728EC30E040E06E
:100A200050E060EB74E0809104010E9442086BE4A6
:100A300072E0D5CF80917D0390917E03019731F4D0
:100A400081E0809310010E94CA0363C08091680313
:100A50008823E9F00E948201109296031092950378
:100A600081E090E00E942E0182E090E00E942E0141
:100A700041E060E08CE493E00E94950E68E572E04E
:100A80008CE493E00E94720B1092680342C0809144
:100A9000740381113EC06091970370919803615077
:100AA0007109709398036093970340E08CE493E09E
:100AB0000E94950E809197039091980397FF04C030
:100AC000109298031092970360E28CE493E00E94E6
:100AD000740BE0919703F0919803E158FC4F80E28A
:100AE000808381E090E00E942E0141E060E08CE490
:100AF00093E00E94950E6DE672E08CE493E00E9414
:100B0000720B82E090E00E942E01109296031092E8
:100B1000950310927E0310927D0343E060E08CE425
:100B200093E00E94950E6AE771E08CE493E00E94E6
:100B3000720B57C0002309F48AC08091740381119D
:100B400086C00E94CB0660937503709376038093F2
:100B500077039093780380911001882309F4C7C02C
:100B6000109210018091680381110E94CA0381E0F4
:100B700090E00E942E0141E060E08CE493E00E944E
:100B8000950E60E872E08CE493E00E94720B609135
:100B9000970370919803CB010196909398038093EB
:100BA000970340E08CE493E00E94950E60E28CE4B1
:100BB00093E00E94740BE0919703F0919803E15841
:100BC000FC4F80E280836FE773E089E993E00E9445
:100BD000720B82E090E00E942E0110929603109218
:100BE0009503D11184C0C11182C0011180C01111BF
:100BF0007EC0F1107CC080911001811178C080917D
:100C00007D0390917E03892B09F071C00E94CB0671
:100C1000009175031091760320917703309178034A
:100C2000DC01CB01801B910BA20BB30B8D329140E9
:100C3000A105B10508F45BC08091950390919603DE
:100C400005970CF054C081E08093100150C011232F
:100C500041F20E94CB0660937503709376038093F4
:100C600077039093780380911001882309F43FC0A3
:100C70001092100180917403882369F1109274031B
:100C8000109298031092970380E090E00E942E014A
:100C900081E090E00E942E0182E090E00E942E010F
:100CA00083E090E00E942E0140E060E08CE493E05D
:100CB0000E94950E69EB71E08CE493E00E94720B48
:100CC00068EE73E080E090E00E94FC0680E090E037
:100CD0000E942E0186CF81E0809374030E943F0220
:100CE00080CF811180CE81E0809369017CCEDF913D
:100CF000CF911F910F91FF90BF90AF909F908F90D9
:100D000008951F920F920FB60F9211242F933F93C5
:100D10008F939F93AF93BF938091B6039091B70346
:100D2000A091B803B091B9033091B50323E0230F2C
:100D30002D3720F40196A11DB11D05C026E8230F13
:100D40000296A11DB11D2093B5038093B603909325
:100D5000B703A093B803B093B9038091BA039091FD
:100D6000BB03A091BC03B091BD030196A11DB11DB1
:100D70008093BA039093BB03A093BC03B093BD03CD
:100D8000BF91AF919F918F913F912F910F900FBE87
:100D90000F901F9018952FB7F8946091B60370913B
:100DA000B7038091B8039091B9032FBF08953FB75F
:100DB000F8948091BA039091BB03A091BC03B091C9
:100DC000BD0326B5A89B05C02F3F19F00196A11DB4
:100DD000B11D3FBFBA2FA92F982F8827820F911DD1
:100DE000A11DB11DBC01CD0142E0660F771F881F18
:100DF000991F4A95D1F70895CF92DF92EF92FF9213
:100E0000CF93DF936B017C010E94D706EB01C114E5
:100E1000D104E104F10479F00E94D7066C1B7D0B2C
:100E2000683E7340A0F381E0C81AD108E108F108D8
:100E3000C851DC4FECCFDF91CF91FF90EF90DF9066
:100E4000CF900895019739F0880F991F880F991F47
:100E500002970197F1F70895789484B5826084BD74
:100E600084B5816084BD85B5826085BD85B58160AE
:100E700085BDEEE6F0E0808181608083E1E8F0E00E
:100E80001082808182608083808181608083E0E83D
:100E9000F0E0808181608083E1EBF0E0808184601C
:100EA0008083E0EBF0E0808181608083EAE7F0E01E
:100EB0008081846080838081826080838081816082
:100EC00080838081806880831092C10008958E3075
:100ED00008F08E50877020916A0190E4299F90015C
:100EE0001124822B80937C0080917A00806480930F
:100EF0007A0080917A0086FDFCCF80917800209165
:100F0000790090E0922B0895833081F028F48130AD
:100F100099F08230A1F008958630A9F08730B9F0B9
:100F20008430D1F4809180008F7D03C08091800057
:100F30008F7780938000089584B58F7702C084B541
:100F40008F7D84BD08958091B0008F7703C080911C
:100F5000B0008F7D8093B0000895CF93DF9390E031
:100F6000FC01E458FF4F2491FC01E057FF4F8491AE
:100F7000882361F190E0880F991FFC01E854FF4F2E
:100F8000C591D491FC01E255FF4FA591B491611137
:100F900009C09FB7F8948881209582238883EC91BB
:100FA0002E230BC0623061F49FB7F8943881822FF2
:100FB000809583238883EC912E2B2C939FBF06C0B2
:100FC0008FB7F894E8812E2B28838FBFDF91CF91C4
:100FD00008951F93CF93DF93282F30E0F901E8594C
:100FE000FF4F8491F901E458FF4FD491F901E05784
:100FF000FF4FC491CC23C9F0162F81110E948407A2
:10100000EC2FF0E0EE0FFF1FE255FF4FA591B491DA
:101010008FB7F894111105C09C91ED2FE095E9234D
:1010200002C0EC91ED2BEC938FBFDF91CF911F911C
:101030000895CF93DF93282F30E0F901E859FF4F4F
:101040008491F901E458FF4FD491F901E057FF4F23
:10105000C491CC2391F081110E948407EC2FF0E021
:10106000EE0FFF1FEC55FF4FA591B491EC91ED23CE
:1010700081E090E021F480E002C080E090E0DF9128
:10108000CF9108953F924F925F926F927F928F928D
:101090009F92AF92BF92CF92DF92EF92FF920F9307
:1010A0001F93CF93DF9300D000D0CDB7DEB79091E0
:1010B0006B01981721F09F3F09F02FC204C0E2ECAA
:1010C000F0E0349081C080936B01E2ECF0E0E491B9
:1010D000EF3F09F422C2E13031F1E23009F44BC0B4
:1010E000E11171C014BC15BC94B5926094BD95B566
:1010F000916095BDA82FB0E0FD01E057FF4FE4914E
:10110000F0E0EE0FFF1FE255FF4F05911491109391
:10111000CE030093CD03FD01E458FF4FE491E0932B
:10112000CC03312C53C0109280001092810090911A
:1011300081009860909381009091810091609093DC
:101140008100A82FB0E0FD01E057FF4FE491F0E0EF
:10115000EE0FFF1FE255FF4F059114911093C70347
:101160000093C603FD01E458FF4FE491E093C503EB
:10117000332433942BC01092B0001092B1009091A0
:10118000B00092609093B0009091B1009160909304
:10119000B100A82FB0E0FD01E057FF4FE491F0E06F
:1011A000EE0FFF1FE255FF4F059114911093C003FE
:1011B0000093BF03FD01E458FF4FE491E093BE03A9
:1011C00002E0302E03C03E2E37FCA7C129013A01B0
:1011D0008B0161E00E94AD074801A12CB12C832D49
:1011E0008D7F09F0B4C060E072E18AE790E0A5016C
:1011F00094010E94C61429833A834B835C8369015E
:101200007A0121E0C21AD108E108F1088FEFC8166F
:10121000D104E104F10409F008F44CC060E472E484
:101220008FE090E0A50194010E94C61469017A0143
:10123000E1E0CE1AD108E108F108F2E03F1220C047
:101240002FEFC216D104E104F10409F008F463C1E0
:1012500060E970ED83E090E0A50194010E94C6145E
:1012600069017A0181E0C81AD108E108F108EFEFBD
:10127000CE16D104E104F10409F0B8F583E064C0AE
:10128000FFEFCF16D104E104F104B1F0A8F068E457
:1012900078EE81E090E0A50194010E94C6146901F6
:1012A0007A0181E0C81AD108E108F108332009F475
:1012B000D8C028C181E001C082E03320A1F044C041
:1012C00089819A81AB81BC812AE0B595A7959795D4
:1012D00087952A95D1F76C017D0121E0C21AD108CA
:1012E000E108F10885E085BD6BC068E478EE81E037
:1012F00090E0A50194010E94C61469017A01F1E011
:10130000CF1AD108E108F1082FEFC216D104E10489
:10131000F10409F008F4A3C064E274EF80E090E007
:10132000A50194010E94C61469017A01E1E0CE1A78
:10133000D108E108F108FFEFCF16D104E104F10470
:1013400011F008F0B0C085E08093B10039C060E0D2
:1013500072E18AE790E0A50194010E94C614690138
:101360007A0181E0C81AD108E108F108C114D1045A
:10137000E1E0EE06F10488F068E478EE81E090E0C8
:10138000A50194010E94C61469017A01F1E0CF1A07
:10139000D108E108F10893E001C091E021E03212A8
:1013A0000FC080918100887F892B80938100411438
:1013B00051046104710449F42FEF3FEFA9012DC0DE
:1013C000411451046104710471F0D801AA0FBB1FCC
:1013D000A30192010E94E51428EE33E040E050E0C2
:1013E0000E94A41403C02FEF3FEFA90181E038163B
:1013F000A1F0E2E03E1619F131108FC0C7BC209376
:10140000CF033093D0034093D1035093D203809104
:101410006E00826080936E0080C0D0928900C0927E
:1014200088002093C8033093C9034093CA035093A4
:10143000CB0380916F00826080936F006EC0C0927A
:10144000B3002093C1033093C2034093C30350936E
:10145000C403809170008260809370005EC084E05D
:1014600073CFFFEFCF16D104E104F104D1F0C8F03F
:1014700062E17AE780E090E0A50194010E94C61441
:1014800069017A0181E0C81AD108E108F108EFEF9B
:10149000CE16D104E104F10411F008F011CF84E07C
:1014A00022CF83E020CF62E17AE780E090E0A501DF
:1014B00094010E94C61469017A0181E0C81AD1081A
:1014C000E108F108EFEFCE16D104E104F104C1F018
:1014D000B8F089819A81AB81BC814AE0B595A79526
:1014E000979587954A95D1F76C017D0121E0C21A45
:1014F000D108E108F108332009F4F4CE87E024CFC5
:1015000086E0DBCEFFEFCF16D104E104F10409F051
:1015100050F684E0D2CE82E017CF0F900F900F905C
:101520000F90DF91CF911F910F91FF90EF90DF907F
:10153000CF90BF90AF909F908F907F906F905F9073
:101540004F903F900895813039F018F0823051F07B
:10155000089510926E00089580916F008D7F8093A2
:101560006F000895809170008D7F8093700081E0FE
:101570008093B0008091B100887F84608093B10037
:101580001092B3000895CF93C82F80916B018C13F4
:1015900007C0E2ECF0E0E4918FEF80936B0101C0B3
:1015A000EFEF8E2F0E94A30A60E08C2FCF910C9456
:1015B000E9071F920F920FB60F9211242F933F93BA
:1015C0004F935F936F937F938F939F93AF93BF934B
:1015D000EF93FF938091C1039091C203A091C30345
:1015E000B091C403892B8A2B8B2B51F18091BE03C0
:1015F000E091BF03F091C00390818927808380919F
:10160000C1039091C203A091C303B091C403181603
:1016100019061A061B06C4F48091C1039091C203F7
:10162000A091C303B091C4030197A109B1098093AC
:10163000C1039093C203A093C303B093C40304C037
:1016400080916B010E94C30AFF91EF91BF91AF910E
:101650009F918F917F916F915F914F913F912F91CA
:101660000F900FBE0F901F901895CF92DF92EF92C0
:10167000FF920F931F93CF93DF936C01EB017B01DC
:10168000E40EF51E00E010E0CE15DF0561F0699173
:10169000D601ED91FC910190F081E02DC6010995F4
:1016A000080F191FF1CFC801DF91CF911F910F9142
:1016B000FF90EF90DF90CF9008956115710579F05C
:1016C000FB0101900020E9F73197AF01461B570B52
:1016D000DC01ED91FC910280F381E02D099480E022
:1016E00090E008950C945D0BDC01ED91FC9101906C
:1016F000F081E02D09940F931F93CF93DF93EC01BA
:101700006DE00E94740B8C016AE0CE010E94740BA4
:10171000800F911FDF91CF911F910F9108950F932B
:101720001F93CF93DF93EC010E945D0B8C01CE01E0
:101730000E947B0B800F911FDF91CF911F910F9122
:1017400008950E942C070E94DD00C0EDDCE00E949D
:101750001A042097E1F30E94D00CF9CF009729F0EA
:10176000BC0180E090E00C9453130895CF93DF9375
:1017700000D000D0CDB7DEB76115710581059105A8
:1017800079F09B01AC0169833A834B835C830E94AF
:101790004E1329813A814B815C810E94C61403C09B
:1017A00060E070E0CB010F900F900F900F90DF91F1
:1017B000CF910895CF92DF92EF92FF920F931F93F4
:1017C000621773078407950784F489019A016B01F6
:1017D0007C01C901B8016C197D098E099F090E941D
:1017E000B60B6C0D7D1D8E1D9F1D1F910F91FF90DF
:1017F000EF90DF90CF900895FC0124853585F901A5
:10180000E05CFF4F80819181329620813181821B83
:10181000930B8F7399270895DC011C96ED91FC9131
:101820001D97DF01A05CBF4F2D913C91119712963F
:101830008D919C9111972817390739F08D919C91C2
:10184000E80FF91F808190E008958FEF9FEF0895D2
:10185000FC01A485B585FD01E05CFF4F208131814D
:101860003296808191812817390779F080819181A2
:10187000A80FB91F8C91208131812F5F3F4F2F73AB
:1018800033273183208390E008958FEF9FEF0895F1
:10189000FC0181A1882329F0A489B5898C9186FF58
:1018A000FBCF11A208950F931F93CF93DF93FC01F9
:1018B000A685B7858D01005C1F4FE801888199815D
:1018C00001968F739927AD014E5B5F4FEA01288126
:1018D000398182179307D1F3E80128813981A20F5A
:1018E000B31F6C93A685B785A05CBF4F11969C93E0
:1018F0008E93A689B7892C9181E090E0078C02C075
:10190000880F991F0A94E2F7822B8C9381E081A3C0
:101910000488F589E02D80818064808381E090E0F7
:10192000DF91CF911F910F91089508951F920F920B
:101930000FB60F9211242F934F935F938F939F9322
:10194000EF93FF938091C00082FD1CC02091C600E0
:101950008091790490917A0401968F739927409130
:101960007B0450917C048417950771F0E091790411
:10197000F0917A04E75CFB4F208390937A04809384
:10198000790402C08091C600FF91EF919F918F91E1
:101990005F914F912F910F900FBE0F901F90189550
:1019A00083ED93E00E94FC0B892B11F00C94950CB5
:1019B00008951F920F920FB60F9211242F933F9309
:1019C0008F939F93EF93FF932091350430913604CA
:1019D00080913704909138042817390731F48091A9
:1019E000C1008F7D8093C10014C0E0913704F09155
:1019F0003804EB50FC4F20818091370490913804DB
:101A000001968F739927909338048093370420931D
:101A1000C600FF91EF919F918F913F912F910F9071
:101A20000FBE0F901F901895CF92DF92EF92FF920A
:101A30000F931F93CF93DF93EC016A017B01411554
:101A4000514E6105710509F1EC89FD8981E090E055
:101A500008A002C0880F991F0A94E2F7808360E013
:101A600079E08DE390E0A70196010E94A41489011A
:101A70009A010150110921093109369527951795C9
:101A80000795980101151041A8F0EC89FD89108295
:101A900060E874E88EE190E0A70196010E94A4142A
:101AA000DA01C9010197A109B109B695A7959795E2
:101AB00087959C01E889F9893083EA89FB8920832D
:101AC00019A2EE89FF89408181E090E09C010C8C95
:101AD00002C0220F331F0A94E2F7242B2083EE89E1
:101AE000FF8940819C010D8C02C0220F331F0A9494
:101AF000E2F7242B2083EE89FF8940819C010E8C24
:101B000002C0220F331F0A94E2F7242B2083EE89B0
:101B1000FF8920810F8C02C0880F991F0A94E2F779
:101B2000809582238083DF91CF911F910F91FF9049
:101B3000EF90DF90CF900895E3EDF3E013821282EF
:101B400088EE93E0A0E0B0E084839583A683B7831A
:101B500087E293E09183808389E394E0958784878B
:101B600085EF93E09787868785EC90E0918B808B5B
:101B700084EC90E0938B828B80EC90E0958B848B4F
:101B800081EC90E0978B868B82EC90E0918F808F38
:101B900086EC90E0938F828F84E0848F83E0858F42
:101BA00087E0868F85E0878F81E080A30895CF93BB
:101BB000DF93EC0160E08E810E94E90781E090E014
:101BC0000E94220761E08E810E94E90781E090E097
:101BD0000E94220760E08E810E94E90784E690E07F
:101BE000DF91CF910C942207AF92BF92CF92DF92F8
:101BF000EF92FF920F931F93CF93DF935C017C01D1
:101C000087E0E80EF11CC0E0D0E0062F10E067018D
:101C100061E0F70181917F010E94AD07B8010C2EB0
:101C200002C0759567950A94E2F76170F6018081AC
:101C30000E94E9072196C430D10549F7C501DF911B
:101C4000CF911F910F91FF90EF90DF90CF90BF90B9
:101C5000AF900C94D70DAF92BF92CF92DF92EF92DC
:101C6000FF920F931F93CF93DF935C017C0187E07A
:101C7000E80EF11CC0E0D0E0062F10E0670161E043
:101C8000F70181917F010E94AD07B8010C2E02C0BF
:101C9000759567950A94E2F76170F60180810E945C
:101CA000E9072196C830D10549F7C501DF91CF91E9
:101CB0001F910F91FF90EF90DF90CF90BF90AF906A
:101CC0000C94D70D1F93CF93DF93EC01162F642F45
:101CD0008C810E94E9078D818F3F19F060E00E949E
:101CE000E9078F85612F84FF06C0CE01DF91CF9178
:101CF0001F910C942B0E70E084E0759567958A9582
:101D0000E1F7CE010E94F40D612FCE01DF91CF915A
:101D10001F910C94F40D40E00C94620E61E00E945F
:101D20008B0E80ED97E00C942207CF93DF93CDB715
:101D3000DEB728970FB6F894DEBF0FBECDBF9C016B
:101D400088E0ECE6F1E0DE01119601900D928A95B3
:101D5000E1F7F9018389481710F04FEF480FFE01B2
:101D60003196E40FF11DE40FF11D9081690F606859
:101D7000C90128960FB6F894DEBF0FBECDBFDF9124
:101D8000CF910C948B0EFC016089262F2460208B50
:101D90006C600C948B0ECF93DF93EC01423018F003
:101DA0008F8588608F874B8B1C8A222329F04130D6
:101DB00019F48F8584608F8780E593EC0E94220759
:101DC00060E08C810E94E90760E08E810E94E90753
:101DD0008D818F3F19F060E00E94E9076F8564FDF7
:101DE0001DC063E0CE010E94F40D84E991E10E94E0
:101DF000220763E0CE010E94F40D84E991E10E9484
:101E0000220763E0CE010E94F40D86E990E00E9473
:101E1000220762E0CE010E94F40D16C06062CE017E
:101E20000E948B0E84E991E10E9422076F85606217
:101E3000CE010E948B0E86E990E00E9422076F85FA
:101E40006062CE010E948B0E6F856062CE010E949F
:101E50008B0E84E0888BCE010E94C30ECE010E94BF
:101E60008E0E82E0898B66E0CE01DF91CF910C94DB
:101E70008B0E6F927F928F92AF92CF92EF920F93D1
:101E80001F93CF93DF93CDB7DEB73C01162F842F7E
:101E90005D854E853F859889F3018483258306837C
:101EA000E782C086A18682865387448735879687D6
:101EB00061E00E94AD07F30185818F3F19F061E079
:101EC0000E94AD0761E0F30186810E94AD071123F6
:101ED00019F0F301178603C080E1F301878720E042
:101EE00041E060E1C301DF91CF911F910F91EF902D
:101EF000CF90AF908F907F906F900C94CB0E8F927D
:101F0000AF92CF92EF920F93DC0113961C921E9228
:101F10001297E7E3F3E0ED93FC931F921F921F9259
:101F20001F928C2CAE2CC02EE22E042F2FEF462FAA
:101F300061E00E94390F0F900F900F900F900F915A
:101F4000EF90CF90AF908F900895CF92DF92EF9265
:101F5000FF920F931F93CF93DF9300D0CDB7DEB7DF
:101F60008C01677088E0689FB00111246064C8012B
:101F700049835A830E948B0E4981C42E5A81D52EE3
:101F80007601A8E0EA0EF11CF60161916F01D8011B
:101F9000ED91FC910190F081E02DC8010995CE14DE
:101FA000DF0491F70F900F90DF91CF911F910F9168
:101FB000FF90EF90DF90CF90089541E00E94620E75
:101FC00081E090E008952091BF043091C00428176B
:101FD0003907B9F490917D0480917E04981789F0B7
:101FE000E0917D04F0E0E158FB4F808120917D0479
:101FF00030E02F5F3F4F2F73332720937D0490E015
:1020000008958FEF9FEF08952091BF043091C00491
:102010002817390781F490917D0480917E049817E8
:1020200051F0E0917D04F0E0E158FB4F8081082EF3
:10203000000C990B08958FEF9FEF08952091BF0436
:102040003091C0042817390771F480917E042091E3
:102050007D0490E0805C9F4F821B910960E470E0FA
:102060000E949014089580E090E008952091BF04AC
:102070003091C0042817390739F48FB7F8941092BB
:102080007E0410927D048FBF0895DC015196ED917E
:10209000FC915297908150968C91809589238083F2
:1020A000089520E001972FEF8F3F9207D9F7089509
:1020B0002091BF043091C0042817390789F0FC0132
:1020C000238D2E7F238F2FB7F89410927E041092C9
:1020D0007D049093C0048093BF042FBF81E00895D6
:1020E00080E00895EF92FF920F931F93CF93DF93B9
:1020F000EC018B8DEE85FF859D8581FF04C080817D
:10210000982329F446C08081982309F042C08B8926
:102110009C890E94511088E0E82EF12C10E001E02B
:102120008D899E890E945110EE85FF8590818D8555
:10213000892311F0102B03C0802F80951823000FE6
:1021400081E0E81AF10861F78F89988D0E9451109B
:102150008B8D81FD109580917E0420917D0490E00F
:1021600001968F73992730E08217930779F0E091F9
:102170007E04F0E0E158FB4F108380917E0490E0F4
:1021800001968F73992780937E0403C08B8D8160A5
:102190008B8FDF91CF911F910F91FF90EF9008955A
:1021A000611102C00C944510DC015196ED91FC9137
:1021B0005297208150968C91822B80830895DF92D4
:1021C000EF92FF920F931F93CF93DF93EC01298D32
:1021D0003A8D2115310529F481E090E09B838A83B3
:1021E0004BC0162FDFB6F8946B8D669561700E9418
:1021F000D010898D9A8D05960E9451108B8D98E094
:10220000E92EF12C01E081FF18C0802F812321F0FD
:10221000CE010E94451004C061E0CE010E94D010A2
:10222000898D9A8D0E945110000F81E0E81AF10803
:1022300061F7CE010E94451018C0802F812329F03C
:1022400061E0CE010E94D01003C0CE010E94451073
:10225000898D9A8D0E945110000F81E0E81AF108D3
:1022600061F761E0CE010E94D010DFBE898D9A8DAA
:102270000E94511021E030E0C901DF91CF911F9100
:102280000F91FF90EF90DF9008958091BF0490919F
:10229000C004009711F00C94721008951F920F92D1
:1022A0000FB60F9211242F933F934F935F936F9329
:1022B0007F938F939F93AF93BF93EF93FF930E946E
:1022C0004511FF91EF91BF91AF919F918F917F91B8
:1022D0006F915F914F913F912F910F900FBE0F9093
:1022E0001F9018951F920F920FB60F9211242F93E3
:1022F0003F934F935F936F937F938F939F93AF938E
:10230000BF93EF93FF930E944511FF91EF91BF910F
:10231000AF919F918F917F916F915F914F913F917D
:102320002F910F900FBE0F901F9018951F920F9234
:102330000FB60F9211242F933F934F935F936F9398
:102340007F938F939F93AF93BF93EF93FF930E94DD
:102350004511FF91EF91BF91AF919F918F917F9127
:102360006F915F914F913F912F910F900FBE0F9002
:102370001F9018951F93CF93DF93EC01162F61E008
:10238000812F0E94AD0761E0812F0E94E907612F34
:1023900070E0FB01E458FF4FE491E88BFB01E0574C
:1023A000FF4FE491F0E0EE0FFF1FE255FF4F8591E4
:1023B00094919A8B898BDF91CF911F9108951F93F0
:1023C000CF93DF93EC01162F60E0812F0E94AD07C1
:1023D0008B8D81FD04C061E0812F0E94E9071C877D
:1023E000612F70E0FB01E458FF4FE491ED87FB01A2
:1023F000E057FF4FE491F0E0EE0FFF1FEC55FF4F69
:10240000859194919F878E87DF91CF911F91089539
:102410001F93CF93DF93EC01162F1B821A8288EE55
:1024200093E0A0E0B0E08C839D83AE83BF838FE315
:1024300093E0998388831C8A1B8A1E8A1D8A188EC2
:102440001F8A1A8E198E8B8D8E7F20FB81F98B8FC0
:10245000642FCE010E94BA11612FCE01DF91CF917E
:102460001F910C94DF11CF92DF92EF92FF92CF93E6
:10247000DF93EC011A8E198E188E1F8A1E8A1D8A10
:1024800083EC90E020E030E0FC01C590D590E59031
:10249000F490C416D506E606F70619F54CE0429FFF
:1024A000C001439F900D1124FC01E953FF4F25917A
:1024B00034913C8B2B8BFC01E753FF4F25913491DA
:1024C0003E8B2D8BFC01E553FF4F25913491388FC6
:1024D0002F8BFC01E353FF4F859194919A8F898F45
:1024E00009C02F5F3F4F0C962D30310509F0CCCF3E
:1024F0001C8A1B8A8F89988D892B09F444C08C858E
:102500008631E8F590916800883050F021E08E30F7
:1025100008F420E081E001C0880F2A95EAF701C0A5
:1025200084E0892B809368008C85883038F08E3069
:1025300040F0863148F4ECE6F0E008C0EDE6F0E06B
:1025400005C0EBE6F0E002C0E0E0F0E0408188305A
:1025500030F491E001C0990F8A95EAF70EC0282F58
:1025600030E08E3018F42850310902C02E50310965
:1025700091E001C0990F2A95EAF7942B9083898DF9
:102580009A8D0E945110CE01DF91CF91FF90EF9074
:10259000DF90CF900C945810FC012485263140F533
:1025A000283028F02E3030F0ECE6F0E005C0EDE603
:1025B000F0E002C0EBE6F0E03081283038F481E052
:1025C00090E001C0880F2A95EAF70FC0422F50E033
:1025D0002E3018F44850510902C04E50510981E084
:1025E00090E001C0880F4A95EAF7809583238083A5
:1025F00008952FE333E0FC01318320830C94CC1247
:102600008F929F92AF92BF92CF92DF92EF92FF9202
:10261000CF93DF93EC01688179818A819B81611579
:1026200071058105910521F464E279ED8BE597E070
:102630002DE133EF41E050E00E94C61449015A01F8
:102640009B01AC01A7EAB1E40E94E5146B017C0197
:10265000ACEEB4EFA50194010E94F314DC01CB01B0
:102660008C0D9D1DAE1DBF1DB7FF03C00197A109B5
:10267000B04888839983AA83BB83BC01CD019F772F
:10268000DF91CF91FF90EF90DF90CF90BF90AF9010
:102690009F908F9008950E940013089580E091E02C
:1026A0000E940013089560930001709301018093CC
:1026B0000201909303010895F8940C9421150E944F
:1026C00066136894B1110C941D1408950E940214AD
:1026D00088F09F5798F0B92F9927B751B0F0E1F0E3
:1026E000660F771F881F991F1AF0BA95C9F714C093
:1026F000B13091F00E941C14B1E008950C941C14A8
:10270000672F782F8827B85F39F0B93FCCF38695CB
:1027100077956795B395D9F73EF490958095709528
:1027200061957F4F8F4F9F4F0895E89409C097FBA5
:102730003EF490958095709561957F4F8F4F9F4F98
:102740009923A9F0F92F96E9BB279395F6958795DC
:1027500077956795B795F111F8CFFAF4BB0F11F49F
:1027600060FF1BC06F5F7F4F8F4F9F4F16C0882346
:1027700011F096E911C0772321F09EE8872F762F7C
:1027800005C0662371F096E8862F70E060E02AF0BD
:102790009A95660F771F881FDAF7880F96958795A9
:1027A00097F9089597F99F6780E870E060E00895D1
:1027B0009FEF80EC089500240A9416161706180659
:1027C0000906089500240A94121613061406050635
:1027D0000895092E0394000C11F4882352F0BB0FC6
:1027E00040F4BF2B11F460FF04C06F5F7F4F8F4F29
:1027F0009F4F089557FD9058440F551F59F05F3F64
:1028000071F04795880F97FB991F61F09F3F79F012
:1028100087950895121613061406551FF2CF469594
:10282000F1DF08C0161617061806991FF1CF869516
:102830007105610508940895E894BB2766277727FA
:10284000CB0197F908950E9436140C94E9130E9465
:10285000DB1338F00E94E21320F0952311F00C9462
:10286000D2130C94D81311240C941D140E94FA1343
:1028700070F3959FC1F3950F50E0551F629FF001D3
:10288000729FBB27F00DB11D639FAA27F00DB11DEC
:10289000AA1F649F6627B00DA11D661F829F222775
:1028A000B00DA11D621F739FB00DA11D621F839FFC
:1028B000A00D611D221F749F3327A00D611D231FD2
:1028C000849F600D211D822F762F6A2F11249F5720
:1028D00050409AF0F1F088234AF0EE0FFF1FBB1F23
:1028E000661F771F881F91505040A9F79E3F5105E2
:1028F00080F00C94D2130C941D145F3FE4F3983EC7
:10290000D4F3869577956795B795F795E7959F5F8B
:10291000C1F7FE2B880F911D9695879597F908951D
:1029200097FB072E16F4009407D077FD09D00E947C
:10293000F81407FC05D03EF4909581959F4F0895BB
:10294000709561957F4F0895A1E21A2EAA1BBB1BBB
:10295000FD010DC0AA1FBB1FEE1FFF1FA217B3076B
:10296000E407F50720F0A21BB30BE40BF50B661F81
:10297000771F881F991F1A9469F760957095809545
:1029800090959B01AC01BD01CF010895052E97FBE9
:102990001EF400940E94DD1457FD07D00E94A41479
:1029A00007FC03D04EF40C94DD14509540953095FF
:1029B00021953F4F4F4F5F4F0895909580957095AB
:1029C00061957F4F8F4F9F4F08950E941215A59FCD
:1029D000900DB49F900DA49F800D911D112408951A
:1029E000B7FF0C94E5140E94E514821B930B089525
:1029F000AA1BBB1B51E107C0AA1FBB1FA617B70725
:102A000010F0A61BB70B881F991F5A95A9F7809540
:102A10009095BC01CD010895EE0FFF1F0590F49134
:102A2000E02D0994A29FB001B39FC001A39F700D38
:102A3000811D1124911DB29F700D811D1124911DC6
:102A4000089510E0C2EBD0E004C0FE010E940C1516
:0C2A50002196C33BD107C9F7F894FFCFD3
:102A5C000100000012000A0006000700080009002F
:102A6C000104001000040010000400100002000417
:102A7C000004000800080004000400040004000422
:102A8C0000EE010000E0010000CD01000058020042
:102A9C0000CE018C018C01A4018C010000BF01CE81
:102AAC00010000040E0E0400000000001F1F0000B7
:102ABC000000000A1F1F0E04000101FF000040006F
:102ACC001400540020202020202020202020202012
:102ADC002020202020202020004349414F20464523
:102AEC00444552494341203D2900534F4E4F2050FD
:102AFC00524F4E544F20504552004553534552456A
:102B0C0020555341544F2121004D4F44414C4954C1
:102B1C00412720534352495454555241004C494E7D
:102B2C0045410050554E544F004D4F44414C495473
:102B3C0041272047494F434F005363726976692000
:102B4C006C61206C6574746572613A20004841496F
:102B5C002056494E544F00436F7272657474613A3B
:102B6C00200048414920504552534F004861693A72
:102B7C0020002074656E7461746976692121004CA3
:102B8C00657474657261206E6F6E2076616C696419
:102B9C006100556E20636C69636B00446F707069E3
:102BAC006F20636C69636B005265696E7365726943
:102BBC00726520636172617474657265004C657432
:102BCC00746572612063616E63656C6C6174610025
:102BDC005370617A696F00410102000000420201EA
:102BEC000101004302010201004402010100004501
:102BFC000100000000460101020100470202010031
:102C0C00004801010101004901010000004A0102D4
:102C1C000202004B02010200004C01020101004DB6
:102C2C0002020000004E02010000004F02020200EE
:102C3C000050010202010051020201020052010285
:102C4C000100005301010100005402000000005576
:102C5C0001010200005601010102005701020200AD
:102C6C00005802010102005902010202005A02023C
:102C7C0001010000000000530C350BFC0B280C0C60
:102C8C000C480C00000000DD0F350B00000000DFCD
:0C2C9C0010350B1E10E30F041036100062
:00000001FF
