:100000000C945D000C9485000C9485000C94850084
:100010000C9485000C9485000C9485000C9485004C
:100020000C9485000C9485000C9485000C9485003C
:100030000C9485000C9485000C9485000C9485002C
:100040000C949A040C9485000C9459030C949C0312
:100050000C9485000C9485000C9485000C9485000C
:100060000C9485000C94850000000007000201003C
:100070000003040600000000000000000102040864
:100080001020408001020408102001020408102002
:10009000040404040404040402020202020203032E
:1000A0000303030300000000250028002B000000CC
:1000B0000000240027002A005F0411241FBECFEF98
:1000C000D4E0DEBFCDBF11E0A0E0B1E0E8E9FAE0A6
:1000D00002C005900D92A233B107D9F721E0A2E347
:1000E000B1E001C01D92A93EB207E1F710E0CDE5F5
:1000F000D0E004C02197FE010E944405CC35D10711
:10010000C9F70E94B2020C941F050C94000061E034
:100110008CE00E94250161E08BE00E94250140E80F
:1001200055E260E070E086E391E00C94D7038EE046
:100130000E94DF0090933501809334018FE00E948C
:10014000DF009093330180933201809134019091CC
:100150003501843F914094F061E071E086E391E0E5
:100160000E94E90160913401709135014AE050E04C
:1001700086E391E00E949B0261E001C060E08CE0B8
:100180000E9461018091320190913301843F91403E
:1001900094F061E171E086E391E00E94E9016091F1
:1001A0003201709133014AE050E086E391E00E9411
:1001B0009B0261E001C060E08BE00C9461018E3035
:1001C00008F08E5087702091000190E4299F9001E3
:1001D0001124822B80937C0080917A00806480932C
:1001E0007A0080917A0086FDFCCF80917800209182
:1001F000790090E0922B0895833081F028F48130CB
:1002000099F08230A1F008958630A9F08730B9F0D6
:100210008430D1F4809180008F7D03C08091800074
:100220008F7780938000089584B58F7702C084B55E
:100230008F7D84BD08958091B0008F7703C0809139
:10024000B0008F7D8093B0000895CF93DF9390E04E
:10025000FC01E458FF4F2491FC01E057FF4F8491CB
:10026000882361F190E0880F991FFC01E255FF4F50
:10027000C591D491FC01EC55FF4FA591B49161114A
:1002800009C09FB7F8948881209582238883EC91D8
:100290002E230BC0623061F49FB7F8943881822F0F
:1002A000809583238883EC912E2B2C939FBF06C0CF
:1002B0008FB7F894E8812E2B28838FBFDF91CF91E1
:1002C00008951F93CF93DF93282F30E0F901E85969
:1002D000FF4F8491F901E458FF4FD491F901E057A1
:1002E000FF4FC491CC23C9F0162F81110E94FC004E
:1002F000EC2FF0E0EE0FFF1FEC55FF4FA591B491EE
:100300008FB7F894111105C09C91ED2FE095E9236A
:1003100002C0EC91ED2BEC938FBFDF91CF911F9139
:100320000895CF92DF92EF92FF920F931F93CF9396
:10033000DF936C01EB017B01E40EF51E00E010E0A1
:10034000CE15DF0561F06991D601ED91FC91019028
:10035000F081E02DC6010995080F191FF1CFC801E2
:10036000DF91CF911F910F91FF90EF90DF90CF9091
:1003700008956115710579F0FB0101900020E9F7FE
:100380003197AF01461B570BDC01ED91FC910280C8
:10039000F381E02D099480E090E00895DC01ED9177
:1003A000FC910190F081E02D09940F931F93CF935E
:1003B000DF93EC016DE00E94CE018C016AE0CE017A
:1003C0000E94CE01800F911FDF91CF911F910F915D
:1003D00008950F931F93CF93DF93EC010E94B9010F
:1003E0008C01CE010E94D501800F911FDF91CF912A
:1003F0001F910F9108958F929F92AF92BF92CF92CB
:10040000DF92EF92FF920F931F93CF93DF93CDB7BD
:10041000DEB7A1970FB6F894DEBF0FBECDBF6C015B
:10042000142FE52FCB01022F19A2223008F40AE085
:100430007E0121E2E20EF11C802E912CA12CB12C28
:10044000612F7E2FA50194010E942205029F1019A1
:10045000112481E0E81AF1081A3014F4105D01C08B
:10046000195CF7011083122FE32FCA01232B242BD1
:10047000252B31F7B701C6010E94B901A1960FB62D
:10048000F894DEBF0FBECDBFDF91CF911F910F91CA
:10049000FF90EF90DF90CF90BF90AF909F908F90A4
:1004A0000895CF92DF92EF92FF920F931F93CF9315
:1004B000DF93EC016A017B012115310579F4E881B4
:1004C000F9810190F081E02D642FDF91CF911F9190
:1004D0000F91FF90EF90DF90CF9009942A30310573
:1004E000E9F477FF1AC06DE20E94CE018C01442727
:1004F0005527BA014C195D096E097F092AE0CE0122
:100500000E94FB01800F911FDF91CF911F910F91EE
:10051000FF90EF90DF90CF9008952AE0B701A601F9
:10052000CE01DF91CF911F910F91FF90EF90DF905F
:10053000CF900C94FB010F931F93CF93DF93EC01AB
:100540009A01AB01770F660B770B0E9451028C0169
:10055000CE010E94D501800F911FDF91CF911F9195
:100560000F9108950E94E4040E948700C3E9D3E03C
:100570000E9497002097E1F30E949303F9CFFC01BA
:1005800024853585F901E05CFF4F808191813296A9
:1005900020813181821B930B8F7399270895DC0191
:1005A0001C96ED91FC911D97DF01A05CBF4F2D9132
:1005B0003C91119712968D919C91119728173907AC
:1005C00039F08D919C91E80FF91F808190E008959A
:1005D0008FEF9FEF0895FC01A485B585FD01E05CD8
:1005E000FF4F208131813296808191812817390710
:1005F00079F080819181A80FB91F8C912081318180
:100600002F5F3F4F2F7333273183208390E008956E
:100610008FEF9FEF0895FC0181A1882329F0A48921
:10062000B5898C9186FFFBCF11A208950F931F937C
:10063000CF93DF93FC01A685B7858D01005C1F4F2A
:10064000E8018881998101968F739927AD014E5BEE
:100650005F4FEA012881398182179307D1F3E801BE
:1006600028813981A20FB31F6C93A685B785A05C42
:10067000BF4F11969C938E93A689B7892C9181E0E8
:1006800090E0078C02C0880F991F0A94E2F7822B32
:100690008C9381E081A30488F589E02D80818064BA
:1006A000808381E090E0DF91CF911F910F910895B9
:1006B00008951F920F920FB60F9211242F934F930C
:1006C0005F938F939F93EF93FF938091C00082FD80
:1006D0001CC02091C6008091DC019091DD01019643
:1006E0008F7399274091DE015091DF0184179507A0
:1006F00071F0E091DC01F091DD01E456FE4F2083C2
:100700009093DD018093DC0102C08091C600FF91CF
:10071000EF919F918F915F914F912F910F900FBE0D
:100720000F901F90189586E391E00E94BF02892BDD
:1007300011F00C94580308951F920F920FB60F9268
:1007400011242F933F938F939F93EF93FF932091C7
:1007500098013091990180919A0190919B012817FD
:10076000390731F48091C1008F7D8093C10014C09E
:10077000E0919A01F0919B01E85AFE4F208180910F
:100780009A0190919B0101968F73992790939B01F9
:1007900080939A012093C600FF91EF919F918F91D2
:1007A0003F912F910F900FBE0F901F901895CF92F1
:1007B000DF92EF92FF920F931F93CF93DF93EC01A1
:1007C0006A017B014115514E6105710509F1EC8902
:1007D000FD8981E090E008A002C0880F991F0A946B
:1007E000E2F7808360E079E08DE390E0A701960175
:1007F0000E94220589019A0101501109210931093C
:100800003695279517950795980101151041A8F081
:10081000EC89FD89108260E874E88EE190E0A70120
:1008200096010E942205DA01C9010197A109B109C7
:10083000B695A795979587959C01E889F9893083A6
:10084000EA89FB89208319A2EE89FF89408181E032
:1008500090E09C010C8C02C0220F331F0A94E2F737
:10086000242B2083EE89FF8940819C010D8C02C0DE
:10087000220F331F0A94E2F7242B2083EE89FF898D
:1008800040819C010E8C02C0220F331F0A94E2F7B4
:10089000242B2083EE89FF8920810F8C02C0880FD2
:1008A000991F0A94E2F7809582238083DF91CF918C
:1008B0001F910F91FF90EF90DF90CF900895E6E3A6
:1008C000F1E01382128288EE93E0A0E0B0E084832E
:1008D0009583A683B78385E291E0918380838CE939
:1008E00091E09587848788E591E09787868785ECF6
:1008F00090E0918B808B84EC90E0938B828B80ECEA
:1009000090E0958B848B81EC90E0978B868B82ECCA
:1009100090E0918F808F86EC90E0938F828F84E0BF
:10092000848F83E0858F87E0868F85E0878F81E0E5
:1009300080A308951F920F920FB60F9211242F9348
:100940003F938F939F93AF93BF938091E1019091D9
:10095000E201A091E301B091E4013091E00123E0D4
:10096000230F2D3720F40196A11DB11D05C026E8E7
:10097000230F0296A11DB11D2093E0018093E10198
:100980009093E201A093E301B093E4018091E5012B
:100990009091E601A091E701B091E8010196A11DB7
:1009A000B11D8093E5019093E601A093E701B09318
:1009B000E801BF91AF919F918F913F912F910F903F
:1009C0000FBE0F901F901895789484B5826084BDF7
:1009D00084B5816084BD85B5826085BD85B5816043
:1009E00085BDEEE6F0E0808181608083E1E8F0E0A3
:1009F0001082808182608083808181608083E0E8D2
:100A0000F0E0808181608083E1EBF0E080818460B0
:100A10008083E0EBF0E0808181608083EAE7F0E0B2
:100A20008081846080838081826080838081816016
:100A300080838081806880831092C1000895F8943B
:100A40000C944A05A1E21A2EAA1BBB1BFD010DC086
:100A5000AA1FBB1FEE1FFF1FA217B307E407F5076E
:100A600020F0A21BB30BE40BF50B661F771F881F4A
:100A7000991F1A9469F760957095809590959B01E0
:100A8000AC01BD01CF010895EE0FFF1F0590F49159
:080A9000E02D0994F894FFCF5A
:100A98000156616C6F7265207069657A6F313A2012
:100AA8000056616C6F7265207069657A6F323A2002
:100AB800000000000016039101BF02EB02CF020BF9
:020AC800030029
:00000001FF
