:100000000C945D000C9485000C9485000C94850084
:100010000C9485000C9485000C9485000C9485004C
:100020000C9485000C9485000C9485000C9485003C
:100030000C9485000C9485000C9485000C9485002C
:100040000C947B030C9485000C943A020C947D0272
:100050000C9485000C9485000C9485000C9485000C
:100060000C9485000C94850000000007000201003C
:100070000003040600000000000000000102040864
:100080001020408001020408102001020408102002
:10009000040404040404040402020202020203032E
:1000A0000303030300000000250028002B000000CC
:1000B0000000240027002A00400311241FBECFEFB8
:1000C000D8E0DEBFCDBF11E0A0E0B1E0EAE5F8E0A6
:1000D00002C005900D92A231B107D9F721E0A2E14B
:1000E000B1E001C01D92A63CB207E1F710E0CDE5FA
:1000F000D0E004C02197FE010E942504CC35D10731
:10010000C9F70E9493010C9400040C94000040E88D
:1001100055E260E070E083E191E00E94B80261E0A6
:100120008DE00C94E10083E191E00E94A00118169B
:100130001906ECF483E191E00E94CC018093120156
:10014000682F83E191E00E948C0160E071E083E11F
:1001500091E00E948A0180911201813311F461E0E3
:1001600003C0803321F460E08DE00C941D010895FC
:10017000833081F028F4813099F08230A1F0089525
:100180008630A9F08730B9F08430D1F480918000B6
:100190008F7D03C0809180008F77809380000895C9
:1001A00084B58F7702C084B58F7D84BD089580911A
:1001B000B0008F7703C08091B0008F7D8093B00036
:1001C0000895CF93DF9390E0FC01E458FF4F249112
:1001D000FC01E057FF4F8491882361F190E0880F84
:1001E000991FFC01E255FF4FC591D491FC01EC55DC
:1001F000FF4FA591B491611109C09FB7F894888110
:10020000209582238883EC912E230BC0623061F409
:100210009FB7F8943881822F809583238883EC914F
:100220002E2B2C939FBF06C08FB7F894E8812E2BFE
:1002300028838FBFDF91CF9108951F93CF93DF93D2
:10024000282F30E0F901E859FF4F8491F901E45873
:10025000FF4FD491F901E057FF4FC491CC23C9F06F
:10026000162F81110E94B800EC2FF0E0EE0FFF1F57
:10027000EC55FF4FA591B4918FB7F894111105C0BB
:100280009C91ED2FE095E92302C0EC91ED2BEC93CE
:100290008FBFDF91CF911F910895CF92DF92EF92A0
:1002A000FF920F931F93CF93DF936C01EB017B01C0
:1002B000E40EF51E00E010E0CE15DF0561F0699157
:1002C000D601ED91FC910190F081E02DC6010995D8
:1002D000080F191FF1CFC801DF91CF911F910F9126
:1002E000FF90EF90DF90CF9008956115710579F040
:1002F000FB0101900020E9F73197AF01461B570B36
:10030000DC01ED91FC910280F381E02D099480E005
:1003100090E008950C947501DC01ED91FC91019041
:10032000F081E02D09940E94C5030E948700C4E774
:10033000D2E00E9493002097E1F30E947402F9CF6B
:10034000FC0124853585F901E05CFF4F80819181B6
:10035000329620813181821B930B8F7399270895E8
:10036000DC011C96ED91FC911D97DF01A05CBF4F55
:100370002D913C91119712968D919C911197281770
:10038000390739F08D919C91E80FF91F808190E039
:1003900008958FEF9FEF0895FC01A485B585FD01B9
:1003A000E05CFF4F20813181329680819181281756
:1003B000390779F080819181A80FB91F8C91208134
:1003C00031812F5F3F4F2F7333273183208390E09C
:1003D00008958FEF9FEF0895FC0181A1882329F0F4
:1003E000A489B5898C9186FFFBCF11A208950F9344
:1003F0001F93CF93DF93FC01A685B7858D01005C29
:100400001F4FE8018881998101968F739927AD016B
:100410004E5B5F4FEA012881398182179307D1F340
:10042000E80128813981A20FB31F6C93A685B78597
:10043000A05CBF4F11969C938E93A689B7892C918F
:1004400081E090E0078C02C0880F991F0A94E2F7C0
:10045000822B8C9381E081A30488F589E02D808133
:100460008064808381E090E0DF91CF911F910F91B4
:10047000089508951F920F920FB60F9211242F9393
:100480004F935F938F939F93EF93FF938091C0005F
:1004900082FD1CC02091C6008091B9019091BA01E3
:1004A00001968F7399274091BB015091BC0184172D
:1004B000950771F0E091B901F091BA01E758FE4F4C
:1004C00020839093BA018093B90102C08091C60045
:1004D000FF91EF919F918F915F914F912F910F908D
:1004E0000FBE0F901F90189583E191E00E94A0012C
:1004F000892B11F00C94390208951F920F920FB6B8
:100500000F9211242F933F938F939F93EF93FF9319
:100510002091750130917601809177019091780159
:100520002817390731F48091C1008F7D8093C10075
:1005300014C0E0917701F0917801EB5CFE4F2081CF
:10054000809177019091780101968F73992790930C
:100550007801809377012093C600FF91EF919F91DE
:100560008F913F912F910F900FBE0F901F90189574
:10057000CF92DF92EF92FF920F931F93CF93DF936F
:10058000EC016A017B014115514E6105710509F1CC
:10059000EC89FD8981E090E008A002C0880F991FD6
:1005A0000A94E2F7808360E079E08DE390E0A701B0
:1005B00096010E94030489019A0101501109210941
:1005C0003109369527951795079598010115104122
:1005D000A8F0EC89FD89108260E874E88EE190E073
:1005E000A70196010E940304DA01C9010197A1093C
:1005F000B109B695A795979587959C01E889F989E2
:100600003083EA89FB89208319A2EE89FF89408122
:1006100081E090E09C010C8C02C0220F331F0A94F1
:10062000E2F7242B2083EE89FF8940819C010D8C09
:1006300002C0220F331F0A94E2F7242B2083EE8995
:10064000FF8940819C010E8C02C0220F331F0A9447
:10065000E2F7242B2083EE89FF8920810F8C02C0D2
:10066000880F991F0A94E2F7809582238083DF9197
:10067000CF911F910F91FF90EF90DF90CF90089551
:10068000E3E1F1E01382128288EE93E0A0E0B0E0B3
:1006900084839583A683B78386E091E091838083EA
:1006A00089E791E09587848785E391E0978786873E
:1006B00085EC90E0918B808B84EC90E0938B828B27
:1006C00080EC90E0958B848B81EC90E0978B868B0F
:1006D00082EC90E0918F808F86EC90E0938F828FF8
:1006E00084E0848F83E0858F87E0868F85E0878F25
:1006F00081E080A308951F920F920FB60F921124EC
:100700002F933F938F939F93AF93BF938091BE019D
:100710009091BF01A091C001B091C1013091BD0184
:1007200023E0230F2D3720F40196A11DB11D05C034
:1007300026E8230F0296A11DB11D2093BD018093D1
:10074000BE019093BF01A093C001B093C1018091FD
:10075000C2019091C301A091C401B091C50101965D
:10076000A11DB11D8093C2019093C301A093C40148
:10077000B093C501BF91AF919F918F913F912F9100
:100780000F900FBE0F901F901895789484B58260DB
:1007900084BD84B5816084BD85B5826085BD85B525
:1007A000816085BDEEE6F0E0808181608083E1E8D4
:1007B000F0E010828081826080838081816080830C
:1007C000E0E8F0E0808181608083E1EBF0E080810F
:1007D00084608083E0EBF0E0808181608083EAE7E1
:1007E000F0E080818460808380818260808380816A
:1007F000816080838081806880831092C100089529
:10080000F8940C942B04A1E21A2EAA1BBB1BFD0129
:100810000DC0AA1FBB1FEE1FFF1FA217B307E407DF
:10082000F50720F0A21BB30BE40BF50B661F771F37
:10083000881F991F1A9469F7609570958095909517
:100840009B01AC01BD01CF010895EE0FFF1F059084
:0A085000F491E02D0994F894FFCF15
:10085A000A0000000000F7014D01A001CC01B0011F
:02086A00EC019F
:00000001FF
