:100000000C9463000C948B000C948B000C948B006C
:100010000C948B000C948B000C948B000C948B0034
:100020000C948B000C948B000C948B000C948B0024
:100030000C948B000C948B000C948B000C948B0014
:100040000C945A010C948B000C94CF040C94120560
:100050000C948B000C948B000C948B000C948B00F4
:100060000C948B000C948B00000000070002010030
:100070000003040600000000000000000102040864
:100080001020408001020408102001020408102002
:10009000040404040404040402020202020203032E
:1000A00003030303000000002300260029000000D2
:1000B0000000250028002B0000000000240027007D
:1000C0002A004701D50511241FBECFEFD8E0DEBFBF
:1000D000CDBF11E0A0E0B1E0E2E2F0E102C00590A6
:1000E0000D92AC34B107D9F722E0ACE4B1E001C025
:1000F0001D92AC31B207E1F710E0C3E6D0E004C0D6
:100100002197FE010E940908C136D107C9F70E9454
:1001100028040C94E4070C94000040E855E260E0E9
:1001200070E082E791E00E944D0520E044E064E148
:100130008CE491E00E94040761E08DE00E94690276
:1001400062E089E00C9469020F931F9389E00E949A
:10015000D50221E0892B09F020E0822F90E09093D6
:10016000680180936701809100012223E9F18823CF
:1001700009F43FC0109200018091650190916601E1
:100180009C012F5F3F4F3093660120936501892BBF
:1001900081F40E94A401DC01CB018854944FAF4F3D
:1001A000BF4F8093610190936201A0936301B0936C
:1001B000640160916501709166014AE050E082E758
:1001C00091E00E94110441E060E08CE491E00E9423
:1001D000CE0660916501709166014AE050E08CE4C2
:1001E00091E00E940A0405C0811103C081E0809360
:1001F00000018091650190916601823091058CF437
:10020000019761F50E94A4010091610110916201C2
:100210002091630130916401601771078207930791
:10022000E8F0809165019091660181309105F1F4CB
:100230006EE171E082E791E00E94580342E060E0E5
:100240008CE491E00E94CE066EE171E08CE491E0D6
:100250000E943B03109266011092650164E670E013
:1002600080E090E01F910F910C94D501029791F7D7
:1002700067E271E082E791E00E94580343E060E0AA
:100280008CE491E00E94CE0667E271E0DFCFCF926E
:10029000EF920F9382E0C82E93E0E92E04E025E070
:1002A0004BE06CE08CE491E00E94B8070F91EF9076
:1002B000CF9008951F920F920FB60F9211242F9393
:1002C0003F938F939F93AF93BF9380916A019091D7
:1002D0006B01A0916C01B0916D013091690123E037
:1002E000230F2D3720F40196A11DB11D05C026E86E
:1002F000230F0296A11DB11D2093690180936A010D
:1003000090936B01A0936C01B0936D0180916E018D
:1003100090916F01A0917001B09171010196A11DA2
:10032000B11D80936E0190936F01A0937001B09303
:100330007101BF91AF919F918F913F912F910F903C
:100340000FBE0F901F9018952FB7F89460916A0117
:1003500070916B0180916C0190916D012FBF089598
:100360003FB7F89480916E0190916F01A091700158
:10037000B091710126B5A89B05C02F3F19F00196D9
:10038000A11DB11D3FBFBA2FA92F982F8827820F1B
:10039000911DA11DB11DBC01CD0142E0660F771F6B
:1003A000881F991F4A95D1F70895CF92DF92EF9257
:1003B000FF92CF93DF936B017C010E94B001EB01B0
:1003C000C114D104E104F10479F00E94B0016C1B66
:1003D0007D0B683E7340A0F381E0C81AD108E108A4
:1003E000F108C851DC4FECCFDF91CF91FF90EF9037
:1003F000DF90CF900895019739F0880F991F880FEB
:10040000991F02970197F1F70895789484B5826057
:1004100084BD84B5816084BD85B5826085BD85B5A8
:10042000816085BDEEE6F0E0808181608083E1E857
:10043000F0E010828081826080838081816080838F
:10044000E0E8F0E0808181608083E1EBF0E0808192
:1004500084608083E0EBF0E0808181608083EAE764
:10046000F0E08081846080838081826080838081ED
:10047000816080838081806880831092C1000895AC
:10048000833081F028F4813099F08230A1F0089512
:100490008630A9F08730B9F08430D1F480918000A3
:1004A0008F7D03C0809180008F77809380000895B6
:1004B00084B58F7702C084B58F7D84BD0895809107
:1004C000B0008F7703C08091B0008F7D8093B00023
:1004D0000895CF93DF9390E0FC01E458FF4F2491FF
:1004E000FC01E057FF4F8491882361F190E0880F71
:1004F000991FFC01E854FF4FC591D491FC01E255CE
:10050000FF4FA591B491611109C09FB7F8948881FC
:10051000209582238883EC912E230BC0623061F4F6
:100520009FB7F8943881822F809583238883EC913C
:100530002E2B2C939FBF06C08FB7F894E8812E2BEB
:1005400028838FBFDF91CF9108951F93CF93DF93BF
:10055000282F30E0F901E859FF4F8491F901E45860
:10056000FF4FD491F901E057FF4FC491CC23C9F05C
:10057000162F81110E944002EC2FF0E0EE0FFF1FBA
:10058000E255FF4FA591B4918FB7F894111105C0B2
:100590009C91ED2FE095E92302C0EC91ED2BEC93BB
:1005A0008FBFDF91CF911F910895CF93DF93282FB5
:1005B00030E0F901E859FF4F8491F901E458FF4F09
:1005C000D491F901E057FF4FC491CC2391F08111F0
:1005D0000E944002EC2FF0E0EE0FFF1FEC55FF4FA2
:1005E000A591B491EC91ED2381E090E021F480E0BD
:1005F00002C080E090E0DF91CF910895CF92DF922A
:10060000EF92FF920F931F93CF93DF936C01EB0157
:100610007B01E40EF51E00E010E0CE15DF0561F071
:100620006991D601ED91FC910190F081E02DC60118
:100630000995080F191FF1CFC801DF91CF911F91C4
:100640000F91FF90EF90DF90CF90089561157105A5
:1006500079F0FB0101900020E9F73197AF01461BCB
:10066000570BDC01ED91FC910280F381E02D0994A0
:1006700080E090E008950C942603DC01ED91FC915C
:100680000190F081E02D09940F931F93CF93DF9396
:10069000EC016DE00E943D038C016AE0CE010E94F6
:1006A0003D03800F911FDF91CF911F910F9108950E
:1006B0000F931F93CF93DF93EC010E9426038C01CD
:1006C000CE010E944403800F911FDF91CF911F91B3
:1006D0000F9108958F929F92AF92BF92CF92DF9227
:1006E000EF92FF920F931F93CF93DF93CDB7DEB7B7
:1006F000A1970FB6F894DEBF0FBECDBF6C01142FCB
:10070000E52FCB01022F19A2223008F40AE07E0166
:1007100021E2E20EF11C802E912CA12CB12C612F34
:100720007E2FA50194010E94E707029F1019112452
:1007300081E0E81AF1081A3014F4105D01C0195C68
:10074000F7011083122FE32FCA01232B242B252B13
:1007500031F7B701C6010E942603A1960FB6F8949F
:10076000DEBF0FBECDBFDF91CF911F910F91FF90E4
:10077000EF90DF90CF90BF90AF909F908F900895B3
:10078000CF92DF92EF92FF920F931F93CF93DF935D
:10079000EC016A017B012115310579F4E881F981C9
:1007A0000190F081E02D642FDF91CF911F910F9187
:1007B000FF90EF90DF90CF9009942A303105E9F453
:1007C00077FF1AC06DE20E943D038C014427552734
:1007D000BA014C195D096E097F092AE0CE010E9419
:1007E0006A03800F911FDF91CF911F910F91FF90AE
:1007F000EF90DF90CF9008952AE0B701A601CE01D7
:10080000DF91CF911F910F91FF90EF90DF90CF90EC
:100810000C946A039A01AB01770F660B770B0C946B
:10082000C0030F931F93CF93DF93EC019A01AB01A9
:10083000770F660B770B0E94C0038C01CE010E94DC
:100840004403800F911FDF91CF911F910F91089565
:100850000E9405020E948D00C9E0D5E00E94A4001C
:100860002097E1F30E940905F9CFFC012485358525
:10087000F901E05CFF4F80819181329620813181C6
:10088000821B930B8F7399270895DC011C96ED91C1
:10089000FC911D97DF01A05CBF4F2D913C911197FA
:1008A00012968D919C9111972817390739F08D91E7
:1008B0009C91E80FF91F808190E008958FEF9FEFE2
:1008C0000895FC01A485B585FD01E05CFF4F208102
:1008D00031813296808191812817390779F08081A2
:1008E0009181A80FB91F8C91208131812F5F3F4FDB
:1008F0002F7333273183208390E008958FEF9FEF8C
:100900000895FC0181A1882329F0A489B5898C91DF
:1009100086FFFBCF11A208950F931F93CF93DF9310
:10092000FC01A685B7858D01005C1F4FE801888119
:10093000998101968F739927AD014E5B5F4FEA0154
:100940002881398182179307D1F3E8012881398101
:10095000A20FB31F6C93A685B785A05CBF4F1196FD
:100960009C938E93A689B7892C9181E090E0078CA7
:1009700002C0880F991F0A94E2F7822B8C9381E0C2
:1009800081A30488F589E02D80818064808381E0E3
:1009900090E0DF91CF911F910F91089508951F92DC
:1009A0000F920FB60F9211242F934F935F938F9353
:1009B0009F93EF93FF938091C00082FD1CC0209114
:1009C000C600809118029091190201968F739927A1
:1009D00040911A0250911B028417950771F0E09123
:1009E0001802F0911902E852FE4F208390931902E9
:1009F0008093180202C08091C600FF91EF919F91F1
:100A00008F915F914F912F910F900FBE0F901F907C
:100A1000189582E791E00E943504892B11F00C941F
:100A2000CE0408951F920F920FB60F9211242F93A8
:100A30003F938F939F93EF93FF932091D401309135
:100A4000D5018091D6019091D7012817390731F44B
:100A50008091C1008F7D8093C10014C0E091D601C8
:100A6000F091D701EC56FE4F20818091D6019091F4
:100A7000D70101968F7399279093D7018093D60160
:100A80002093C600FF91EF919F918F913F912F91FD
:100A90000F900FBE0F901F901895CF92DF92EF929C
:100AA000FF920F931F93CF93DF93EC016A017B01B9
:100AB0004115514E6105710509F1EC89FD8981E00F
:100AC00090E008A002C0880F991F0A94E2F7808383
:100AD00060E079E08DE390E0A70196010E94E707CE
:100AE00089019A010150110921093109369527958B
:100AF00017950795980101151041A8F0EC89FD891B
:100B0000108260E874E88EE190E0A70196010E94EF
:100B1000E707DA01C9010197A109B109B695A795BF
:100B2000979587959C01E889F9893083EA89FB8943
:100B3000208319A2EE89FF89408181E090E09C0129
:100B40000C8C02C0220F331F0A94E2F7242B20835F
:100B5000EE89FF8940819C010D8C02C0220F331F5A
:100B60000A94E2F7242B2083EE89FF8940819C01BF
:100B70000E8C02C0220F331F0A94E2F7242B20832D
:100B8000EE89FF8920810F8C02C0880F991F0A947B
:100B9000E2F7809582238083DF91CF911F910F919F
:100BA000FF90EF90DF90CF900895E2E7F1E013829D
:100BB000128288EE93E0A0E0B0E084839583A68360
:100BC000B78388E391E09183808388ED91E09587F6
:100BD000848784E991E09787868785EC90E0918B04
:100BE000808B84EC90E0938B828B80EC90E0958BF3
:100BF000848B81EC90E0978B868B82EC90E0918FD8
:100C0000808F86EC90E0938F828F84E0848F83E0E6
:100C1000858F87E0868F85E0878F81E080A30895A8
:100C2000CF93DF93EC0160E08E810E94A50281E00A
:100C300090E00E94FB0161E08E810E94A50281E0AC
:100C400090E00E94FB0160E08E810E94A50284E694
:100C500090E0DF91CF910C94FB01AF92BF92CF92C5
:100C6000DF92EF92FF920F931F93CF93DF935C017C
:100C70007C0187E0E80EF11CC0E0D0E0062F10E018
:100C8000670161E0F70181917F010E946902B8016B
:100C90000C2E02C0759567950A94E2F76170F60113
:100CA00080810E94A5022196C430D10549F7C50173
:100CB000DF91CF911F910F91FF90EF90DF90CF9038
:100CC000BF90AF900C941006AF92BF92CF92DF927C
:100CD000EF92FF920F931F93CF93DF935C017C0100
:100CE00087E0E80EF11CC0E0D0E0062F10E06701BD
:100CF00061E0F70181917F010E946902B8010C2E29
:100D000002C0759567950A94E2F76170F6018081DB
:100D10000E94A5022196C830D10549F7C501DF918F
:100D2000CF911F910F91FF90EF90DF90CF90BF90E8
:100D3000AF900C9410061F93CF93DF93EC01162F06
:100D4000642F8C810E94A5028D818F3F19F060E095
:100D50000E94A5028F85612F84FF06C0CE01DF911E
:100D6000CF911F910C94640670E084E075956795AF
:100D70008A95E1F7CE010E942D06612FCE01DF9109
:100D8000CF911F910C942D0640E00C949B0661E0DE
:100D90000E94C40680ED97E00C94FB01CF93DF9393
:100DA000CDB7DEB728970FB6F894DEBF0FBECDBF24
:100DB0009C0188E0E1E0F1E0DE01119601900D92E6
:100DC0008A95E1F7F9018389481710F04FEF480F32
:100DD000FE013196E40FF11DE40FF11D9081690FC2
:100DE0006068C90128960FB6F894DEBF0FBECDBF6C
:100DF000DF91CF910C94C406FC016089262F2460FA
:100E0000208B6C600C94C406CF93DF93EC014230CE
:100E100018F08F8588608F874B8B1C8A222329F0DE
:100E2000413019F48F8584608F8780E593EC0E94B0
:100E3000FB0160E08C810E94A50260E08E810E942F
:100E4000A5028D818F3F19F060E00E94A5026F8599
:100E500064FD1DC063E0CE010E942D0684E991E18E
:100E60000E94FB0163E0CE010E942D0684E991E11E
:100E70000E94FB0163E0CE010E942D0686E990E00E
:100E80000E94FB0162E0CE010E942D0616C0606246
:100E9000CE010E94C40684E991E10E94FB016F85A6
:100EA0006062CE010E94C40686E990E00E94FB01C8
:100EB0006F856062CE010E94C4066F856062CE01BC
:100EC0000E94C40684E0888BCE010E94FC06CE01FD
:100ED0000E94C70682E0898B66E0CE01DF91CF9148
:100EE0000C94C4066F927F928F92AF92CF92EF9242
:100EF0000F931F93CF93DF93CDB7DEB73C01162F2F
:100F0000842F5D854E853F859889F30184832583F1
:100F10000683E782C086A186828653874487358709
:100F2000968761E00E946902F30185818F3F19F085
:100F300061E00E94690261E0F30186810E9469021A
:100F4000112319F0F301178603C080E1F3018787AD
:100F500020E041E060E1C301DF91CF911F910F914B
:100F6000EF90CF90AF908F907F906F900C9404078C
:100F70008F92AF92CF92EF920F93DC0113961C9257
:100F80001E921297E8E4F1E0ED93FC931F921F92FA
:100F90001F921F928C2CAE2CC02EE22E042F2FEF0E
:100FA000462F61E00E9472070F900F900F900F90F4
:100FB0000F91EF90CF90AF908F90089541E00E94F5
:100FC0009B0681E090E00895F8940C940F08A1E24C
:100FD0001A2EAA1BBB1BFD010DC0AA1FBB1FEE1FB3
:100FE000FF1FA217B307E407F50720F0A21BB30BFE
:100FF000E40BF50B661F771F881F991F1A9469F77A
:1010000060957095809590959B01AC01BD01CF01D5
:101010000895EE0FFF1F0590F491E02D0994F894C8
:02102000FFCF00
:101022000100004000140054002020202020202035
:101032002020202020202020202020202000556E4B
:1010420020636C69636B00446F7070696F20636C1E
:1010520069636B00000000008C04FE023504610429
:0C1062004504810400000000DE07FE02CF
:00000001FF
