:100000000C9462000C948A000C948A000C948A0070
:100010000C948A000C948A000C948A000C948A0038
:100020000C948A000C948A000C948A000C948A0028
:100030000C948A000C948A000C948A000C948A0018
:100040000C9415010C948A000C9447040C948A04B7
:100050000C948A000C948A000C948A000C948A00F8
:100060000C948A000C948A00000000070002010032
:100070000003040600000000000000000102040864
:100080001020408001020408102001020408102002
:10009000040404040404040402020202020203032E
:1000A00003030303000000002300260029000000D2
:1000B0000000250028002B0000000000240027007D
:1000C0002A004D0511241FBECFEFD8E0DEBFCDBF03
:1000D00011E0A0E0B1E0EAE6FBE002C005900D927D
:1000E000A832B107D9F721E0A8E2B1E001C01D9222
:1000F000A33EB207E1F710E0C2E6D0E004C02197CA
:10010000FE010E94AD05C136D107C9F70E94A003C8
:100110000C9488050C94000040E855E260E070E023
:1001200089E391E00E94C50461E08DE00E941A021B
:1001300060E086E00C941A020F931F9386E00E9401
:10014000560290932F0180932E018130910571F515
:1001500080910001882399F11092000180912C0177
:1001600090912D019C012F5F3F4F30932D012093E3
:100170002C01892B81F40E945F01DC01CB018854A2
:10018000944FAF4FBF4F8093280190932901A093C4
:100190002A01B0932B0160912C0170912D014AE04E
:1001A00050E089E391E00E94890309C0892B39F46A
:1001B00080910001811103C081E080930001809152
:1001C0002C0190912D01823091058CF4019701F55D
:1001D0000E945F01009128011091290120912A01BC
:1001E00030912B01601771078207930788F0809187
:1001F0002C0190912D018130910591F461E071E025
:1002000089E391E00E94D70210922D0110922C01F7
:1002100064E670E080E090E01F910F910C949001F3
:10022000029791F76AE071E0EBCF1F920F920FB641
:100230000F9211242F933F938F939F93AF93BF936C
:100240008091310190913201A0913301B09134013C
:100250003091300123E0230F2D3720F40196A11DAA
:10026000B11D05C026E8230F0296A11DB11D2093E4
:1002700030018093310190933201A0933301B09308
:1002800034018091350190913601A0913701B091F0
:1002900038010196A11DB11D80933501909336015F
:1002A000A0933701B0933801BF91AF919F918F9187
:1002B0003F912F910F900FBE0F901F9018952FB761
:1002C000F8946091310170913201809133019091E5
:1002D00034012FBF08953FB7F89480913501909174
:1002E0003601A0913701B091380126B5A89B05C011
:1002F0002F3F19F00196A11DB11D3FBFBA2FA92FA5
:10030000982F8827820F911DA11DB11DBC01CD0121
:1003100042E0660F771F881F991F4A95D1F708950D
:10032000CF92DF92EF92FF92CF93DF936B017C012C
:100330000E946B01EB01C114D104E104F10479F0D6
:100340000E946B016C1B7D0B683E7340A0F381E043
:10035000C81AD108E108F108C851DC4FECCFDF9191
:10036000CF91FF90EF90DF90CF900895789484B56F
:10037000826084BD84B5816084BD85B5826085BDA1
:1003800085B5816085BDEEE6F0E080818160808387
:10039000E1E8F0E01082808182608083808181606A
:1003A0008083E0E8F0E0808181608083E1EBF0E031
:1003B000808184608083E0EBF0E0808181608083D5
:1003C000EAE7F0E0808184608083808182608083BE
:1003D0008081816080838081806880831092C100E9
:1003E0000895833081F028F4813099F08230A1F0B3
:1003F00008958630A9F08730B9F08430D1F4809127
:1004000080008F7D03C0809180008F778093800073
:10041000089584B58F7702C084B58F7D84BD08951B
:100420008091B0008F7703C08091B0008F7D809362
:10043000B0000895CF93DF9390E0FC01E458FF4FA4
:100440002491FC01E057FF4F8491882361F190E0F3
:10045000880F991FFC01E854FF4FC591D491FC010E
:10046000E255FF4FA591B491611109C09FB7F8946F
:100470008881209582238883EC912E230BC06230E3
:1004800061F49FB7F8943881822F80958323888305
:10049000EC912E2B2C939FBF06C08FB7F894E88168
:1004A0002E2B28838FBFDF91CF910895CF93DF93B9
:1004B000282F30E0F901E859FF4F8491F901E45801
:1004C000FF4FD491F901E057FF4FC491CC2391F035
:1004D00081110E94F101EC2FF0E0EE0FFF1FEC55AF
:1004E000FF4FA591B491EC91ED2381E090E021F4D0
:1004F00080E002C080E090E0DF91CF910895CF923C
:10050000DF92EF92FF920F931F93CF93DF936C01D3
:10051000EB017B01E40EF51E00E010E0CE15DF05D7
:1005200061F06991D601ED91FC910190F081E02D8F
:10053000C6010995080F191FF1CFC801DF91CF91AE
:100540001F910F91FF90EF90DF90CF90089561156C
:10055000710579F0FB0101900020E9F73197AF01B7
:10056000461B570BDC01ED91FC910280F381E02DDD
:10057000099480E090E00895DC01ED91FC910190F8
:10058000F081E02D09940F931F93CF93DF93EC013B
:100590006DE00E94BC028C016AE0CE010E94BC02A8
:1005A000800F911FDF91CF911F910F9108950F93AD
:1005B0001F93CF93DF93EC010E94A7028C01CE0121
:1005C0000E94C302800F911FDF91CF911F910F9165
:1005D00008958F929F92AF92BF92CF92DF92EF9247
:1005E000FF920F931F93CF93DF93CDB7DEB7A19701
:1005F0000FB6F894DEBF0FBECDBF6C01142FE52FF0
:10060000CB01022F19A2223008F40AE07E0121E278
:10061000E20EF11C802E912CA12CB12C612F7E2F8B
:10062000A50194010E948B05029F1019112481E0FD
:10063000E81AF1081A3014F4105D01C0195CF701D2
:100640001083122FE32FCA01232B242B252B31F7E4
:10065000B701C6010E94A702A1960FB6F894DEBFAB
:100660000FBECDBFDF91CF911F910F91FF90EF9003
:10067000DF90CF90BF90AF909F908F900895CF92D2
:10068000DF92EF92FF920F931F93CF93DF93EC01D2
:100690006A017B012115310579F4E881F981019026
:1006A000F081E02D642FDF91CF911F910F91FF908A
:1006B000EF90DF90CF9009942A303105E9F477FF6D
:1006C0001AC06DE20E94BC028C0144275527BA0172
:1006D0004C195D096E097F092AE0CE010E94E902EA
:1006E000800F911FDF91CF911F910F91FF90EF909D
:1006F000DF90CF9008952AE0B701A601CE01DF91E7
:10070000CF911F910F91FF90EF90DF90CF900C94BD
:10071000E9020F931F93CF93DF93EC019A01AB0192
:10072000770F660B770B0E943F038C01CE010E946E
:10073000C302800F911FDF91CF911F910F910895F8
:100740000E94B6010E948C00C1E8D4E00E949C0087
:100750002097E1F30E948104F9CFFC0124853585BF
:10076000F901E05CFF4F80819181329620813181D7
:10077000821B930B8F7399270895DC011C96ED91D2
:10078000FC911D97DF01A05CBF4F2D913C9111970B
:1007900012968D919C9111972817390739F08D91F8
:1007A0009C91E80FF91F808190E008958FEF9FEFF3
:1007B0000895FC01A485B585FD01E05CFF4F208113
:1007C00031813296808191812817390779F08081B3
:1007D0009181A80FB91F8C91208131812F5F3F4FEC
:1007E0002F7333273183208390E008958FEF9FEF9D
:1007F0000895FC0181A1882329F0A489B5898C91F1
:1008000086FFFBCF11A208950F931F93CF93DF9321
:10081000FC01A685B7858D01005C1F4FE80188812A
:10082000998101968F739927AD014E5B5F4FEA0165
:100830002881398182179307D1F3E8012881398112
:10084000A20FB31F6C93A685B785A05CBF4F11960E
:100850009C938E93A689B7892C9181E090E0078CB8
:1008600002C0880F991F0A94E2F7822B8C9381E0D3
:1008700081A30488F589E02D80818064808381E0F4
:1008800090E0DF91CF911F910F91089508951F92ED
:100890000F920FB60F9211242F934F935F938F9364
:1008A0009F93EF93FF938091C00082FD1CC0209125
:1008B000C6008091DF019091E00101968F73992726
:1008C0004091E1015091E2018417950771F0E091A8
:1008D000DF01F091E001E156FE4F20839093E001AB
:1008E0008093DF0102C08091C600FF91EF919F913C
:1008F0008F915F914F912F910F900FBE0F901F908E
:10090000189589E391E00E94AD03892B11F00C94B6
:10091000460408951F920F920FB60F9211242F9341
:100920003F938F939F93EF93FF9320919B0130917F
:100930009C0180919D0190919E012817390731F407
:100940008091C1008F7D8093C10014C0E0919D0112
:10095000F0919E01E55AFE4F208180919D0190917A
:100960009E0101968F73992790939E0180939D011C
:100970002093C600FF91EF919F918F913F912F910E
:100980000F900FBE0F901F901895CF92DF92EF92AD
:10099000FF920F931F93CF93DF93EC016A017B01CA
:1009A0004115514E6105710509F1EC89FD8981E020
:1009B00090E008A002C0880F991F0A94E2F7808394
:1009C00060E079E08DE390E0A70196010E948B053D
:1009D00089019A010150110921093109369527959C
:1009E00017950795980101151041A8F0EC89FD892C
:1009F000108260E874E88EE190E0A70196010E9401
:100A00008B05DA01C9010197A109B109B695A7952E
:100A1000979587959C01E889F9893083EA89FB8954
:100A2000208319A2EE89FF89408181E090E09C013A
:100A30000C8C02C0220F331F0A94E2F7242B208370
:100A4000EE89FF8940819C010D8C02C0220F331F6B
:100A50000A94E2F7242B2083EE89FF8940819C01D0
:100A60000E8C02C0220F331F0A94E2F7242B20833E
:100A7000EE89FF8920810F8C02C0880F991F0A948C
:100A8000E2F7809582238083DF91CF911F910F91B0
:100A9000FF90EF90DF90CF900895E9E3F1E01382AB
:100AA000128288EE93E0A0E0B0E084839583A68371
:100AB000B7838BE191E0918380838FE991E0958703
:100AC00084878BE591E09787868785EC90E0918B12
:100AD000808B84EC90E0938B828B80EC90E0958B04
:100AE000848B81EC90E0978B868B82EC90E0918FE9
:100AF000808F86EC90E0938F828F84E0848F83E0F8
:100B0000858F87E0868F85E0878F81E080A30895B9
:100B1000F8940C94B305A1E21A2EAA1BBB1BFD018D
:100B20000DC0AA1FBB1FEE1FFF1FA217B307E407CC
:100B3000F50720F0A21BB30BE40BF50B661F771F24
:100B4000881F991F1A9469F7609570958095909504
:100B50009B01AC01BD01CF010895EE0FFF1F059071
:0A0B6000F491E02D0994F894FFCF02
:100B6A0001556E20636C69636B00446F7070696F26
:100B7A0020636C69636B000000000004047F02AD0F
:080B8A0003D903BD03F90300C8
:00000001FF
