:100000000C9464000C948C000C948C000C948C0068
:100010000C948C000C948C000C948C000C94330782
:100020000C948C000C948C000C948C000C948C0020
:100030000C948C000C948C000C948C000C948C0010
:100040000C9404030C948C000C94B4080C94F708E2
:100050000C948C000C948C000C948C000C948C00F0
:100060000C948C000C948C0000000007000201002E
:100070000003040600000000000000000102040864
:100080001020408001020408102001020408102002
:10009000040404040404040402020202020203032E
:1000A00003030303000000002300260029000000D2
:1000B0000000250028002B0000000000240027007D
:1000C0002A000200F102BA0911241FBECFEFD8E0C6
:1000D000DEBFCDBF12E0A0E0B1E0EEE5F8E102C086
:1000E00005900D92AE39B107D9F723E0AEE9B2E041
:1000F00001C01D92A938B207E1F710E0C4E6D0E0D4
:1001000004C02197FE010E94180CC236D107C9F71E
:100110000E940D080C94C90B0C94000040E855E2B5
:1001200060E070E08FED92E00E94320920E044E050
:1001300064E18EE992E00E94E90A62E080910A019E
:100140000E94070462E0809108010E94070462E0B7
:10015000809102010E94070462E0809106010E94E2
:10016000070462E0809104010C940704892B71F567
:1001700040E060E08EE992E00E94B30A66E171E03F
:100180008EE992E00E94CC0741E060E08EE992E0C7
:100190000E94B30A67E271E08EE992E00E94CC0708
:1001A00042E060E08EE992E00E94B30A67E371E00A
:1001B0008EE992E00E94CC0760ED77E080E090E06D
:1001C0000E9473038EE992E00C94AC0A0895482FC4
:1001D00060E08EE992E00E94B30A66E471E08EE985
:1001E00092E00C94CC071092B4021092B302E5EBAB
:1001F000F2E01082118212821382148208952091FB
:100200000C01222309F475C021E02093BA02109258
:100210000C01019781F58091B3029091B4029C0189
:100220002F5F3F4F3093B4022093B302FC01EB5495
:10023000FD4F22E020836BE571E08FED92E00E949C
:10024000E90781E090E00E94E70041E060E08EE98C
:1002500092E00E94B30A6BE571E08EE992E00E94A1
:10026000CC0742E06091BD028EE992E00E94B30AA1
:1002700061E671E031C061307105D9F58091B3025A
:100280009091B402AC014F5F5F4F5093B402409322
:10029000B302FC01EB54FD4F208363E671E08FED68
:1002A00092E00E94E90781E090E00E94E70041E0CF
:1002B00060E08EE992E00E94B30A63E671E08EE9A5
:1002C00092E00E94CC0742E06091BD028EE992E08C
:1002D0000E94B30A69E671E08EE992E00E94CC07C1
:1002E0008091BD029091BE0201969093BE028093D0
:1002F000BD0208954AEE51E080E090E0E5EBF2E0C7
:1003000020E030E071912F5F3F4FDA01A20FB31F61
:100310006C9176130DC025303105A1F726E0289F9A
:10032000F001299FF00D1124E651FE4F80810895C0
:1003300001964A5F5F4F8A31910501F780E0089589
:10034000CF9380910C01882309F44AC010920C01CC
:100350000E947A01C82F882301F16BE671E08FEDCE
:1003600092E00E94CC076C2F8FED92E00E94FB0779
:100370006091BF027091C002CB0101969093C002C0
:100380008093BF0240E08EE992E00E94B30A6C2F96
:100390008EE992E00E94CE0716C06CE771E08FED07
:1003A00092E00E94E90781E090E00E94E70041E0CE
:1003B00060E08EE992E00E94B30A63E971E08EE9A1
:1003C00092E00E94CC071092BE021092BD0282E021
:1003D00090E00E94E7001092BA02CF910C94F300D3
:1003E000CF910895FF920F931F93CF93DF93809146
:1003F000BB029091BC020E94B60081E090E0909315
:10040000BC028093BB0280910A010E947304D1E078
:10041000892B09F0D0E0809108010E947304C1E0AB
:10042000892B09F0C0E0809102010E94730411E061
:10043000892B09F010E0809106010E94730401E00D
:10044000892B09F000E0809104010E947304FF24CD
:10045000F394892B09F0F12CDD2361F020E030E0EA
:10046000A90168EB71E0809100010E949C04CC23FB
:1004700089F006C0809100010E941D07CC2331F154
:1004800020E030E0A90160E471E0809100010E9469
:100490009C0404C0809100010E941D076D2F70E034
:1004A0008C2F90E00E94FF00D11195C0C11193C024
:1004B000011191C011118FC0F1108DC080910C01FC
:1004C000811189C081E080930C0185C08091000179
:1004D0000E941D071123D1F180910C01882309F49A
:1004E0007AC010920C016091BF027091C0026150FD
:1004F00071097093C0026093BF0240E08EE992E000
:100500000E94B30A60E28EE992E00E94CE0766EA9A
:1005100071E08FED92E00E94E90781E090E00E9497
:10052000E70041E060E08EE992E00E94B30A60ECEF
:1005300071E08EE992E00E94CC0782E090E00E9498
:10054000E7001092BE021092BD02B2CFFF2019F058
:100550000E94A001ADCF002309F4B0CF80910C011F
:100560008823C9F110920C018091BA0281110E9476
:10057000A00163ED71E08FED92E00E94E90781E058
:1005800090E00E94E70041E060E08EE992E00E9486
:10059000B30A6DED71E08EE992E00E94CC076091A4
:1005A000BF027091C002CB0101969093C00280936C
:1005B000BF0240E08EE992E00E94B30A60E28EE959
:1005C00092E00E94CE0782E090E00E94E700109245
:1005D000BE021092BD02DF91CF911F910F91FF904B
:1005E0000895CF92EF920F9382E0C82E93E0E92E08
:1005F00004E025E04BE06CE08EE992E00E949D0B68
:100600000F91EF90CF9008951F920F920FB60F9217
:1006100011242F933F938F939F93AF93BF93809118
:10062000C2029091C302A091C402B091C502309160
:10063000C10223E0230F2D3720F40196A11DB11D27
:1006400005C026E8230F0296A11DB11D2093C1020B
:100650008093C2029093C302A093C402B093C502D8
:100660008091C6029091C702A091C802B091C902C0
:100670000196A11DB11D8093C6029093C702A0935D
:10068000C802B093C902BF91AF919F918F913F91E2
:100690002F910F900FBE0F901F9018953FB7F894B1
:1006A0008091C6029091C702A091C802B091C90280
:1006B00026B5A89B05C02F3F19F00196A11DB11DBD
:1006C0003FBFBA2FA92F982F8827820F911DA11DF8
:1006D000B11DBC01CD0142E0660F771F881F991F35
:1006E0004A95D1F70895CF92DF92EF92FF92CF9380
:1006F000DF936B017C010E944E03EB01C114D10416
:10070000E104F10479F00E944E036C1B7D0B683EFE
:100710007340A0F381E0C81AD108E108F108C8517C
:10072000DC4FECCFDF91CF91FF90EF90DF90CF9037
:100730000895019739F0880F991F880F991F029724
:100740000197F1F70895789484B5826084BD84B5EB
:10075000816084BD85B5826085BD85B5816085BDBC
:10076000EEE6F0E0808181608083E1E8F0E01082D5
:10077000808182608083808181608083E0E8F0E016
:10078000808181608083E1EBF0E080818460808300
:10079000E0EBF0E0808181608083EAE7F0E0808137
:1007A0008460808380818260808380818160808397
:1007B0008081806880831092C1000895833081F029
:1007C00028F4813099F08230A1F008958630A9F0A4
:1007D0008730B9F08430D1F4809180008F7D03C0E0
:1007E000809180008F7780938000089584B58F7703
:1007F00002C084B58F7D84BD08958091B0008F774D
:1008000003C08091B0008F7D8093B0000895CF9396
:10081000DF9390E0FC01E458FF4F2491FC01E05786
:10082000FF4F8491882361F190E0880F991FFC01AC
:10083000E854FF4FC591D491FC01E255FF4FA591BB
:10084000B491611109C09FB7F894888120958223E3
:100850008883EC912E230BC0623061F49FB7F8942B
:100860003881822F809583238883EC912E2B2C93C3
:100870009FBF06C08FB7F894E8812E2B28838FBFC7
:10088000DF91CF9108951F93CF93DF93282F30E00E
:10089000F901E859FF4F8491F901E458FF4FD491D1
:1008A000F901E057FF4FC491CC23C9F0162F8111F5
:1008B0000E94DE03EC2FF0E0EE0FFF1FE255FF4F2A
:1008C000A591B4918FB7F894111105C09C91ED2FAB
:1008D000E095E92302C0EC91ED2BEC938FBFDF9103
:1008E000CF911F910895CF93DF93282F30E0F90126
:1008F000E859FF4F8491F901E458FF4FD491F90171
:10090000E057FF4FC491CC2391F081110E94DE0388
:10091000EC2FF0E0EE0FFF1FEC55FF4FA591B491C7
:10092000EC91ED2381E090E021F480E002C080E0D2
:1009300090E0DF91CF9108953F924F925F926F9236
:100940007F928F929F92AF92BF92CF92DF92EF925F
:10095000FF920F931F93CF93DF9300D000D0CDB7BA
:10096000DEB790910D01981721F09F3F09F02FC23B
:1009700004C0E2ECF0E0349081C080930D01E2EC21
:10098000F0E0E491EF3F09F422C2E13031F1E230CE
:1009900009F44BC0E11171C014BC15BC94B5926050
:1009A00094BD95B5916095BDA82FB0E0FD01E057CD
:1009B000FF4FE491F0E0EE0FFF1FE255FF4F05916E
:1009C00014911093DA020093D902FD01E458FF4F0D
:1009D000E491E093D802312C53C010928000109221
:1009E00081009091810098609093810090918100A6
:1009F000916090938100A82FB0E0FD01E057FF4F78
:100A0000E491F0E0EE0FFF1FE255FF4F05911491C6
:100A10001093D3020093D202FD01E458FF4FE491FA
:100A2000E093D102332433942BC01092B000109283
:100A3000B1009091B00092609093B0009091B1009D
:100A400091609093B100A82FB0E0FD01E057FF4FF7
:100A5000E491F0E0EE0FFF1FE255FF4F0591149176
:100A60001093CC020093CB02FD01E458FF4FE491B8
:100A7000E093CA0202E0302E03C03E2E37FCA7C12D
:100A800029013A018B0161E00E9407044801A12C71
:100A9000B12C832D8D7F09F0B4C060E072E18AE74C
:100AA00090E0A50194010E94EE0B29833A834B83C9
:100AB0005C8369017A0121E0C21AD108E108F108DA
:100AC0008FEFC816D104E104F10409F008F44CC01A
:100AD00060E472E48FE090E0A50194010E94EE0BC7
:100AE00069017A01E1E0CE1AD108E108F108F2E0EB
:100AF0003F1220C02FEFC216D104E104F10409F027
:100B000008F463C160E970ED83E090E0A501940111
:100B10000E94EE0B69017A0181E0C81AD108E10850
:100B2000F108EFEFCE16D104E104F10409F0B8F5B5
:100B300083E064C0FFEFCF16D104E104F104B1F00B
:100B4000A8F068E478EE81E090E0A50194010E94AD
:100B5000EE0B69017A0181E0C81AD108E108F108B9
:100B6000332009F4D8C028C181E001C082E03320DD
:100B7000A1F044C089819A81AB81BC812AE0B595FE
:100B8000A795979587952A95D1F76C017D0121E06E
:100B9000C21AD108E108F10885E085BD6BC068E4A0
:100BA00078EE81E090E0A50194010E94EE0B6901CE
:100BB0007A01F1E0CF1AD108E108F1082FEFC2164F
:100BC000D104E104F10409F008F4A3C064E274EF75
:100BD00080E090E0A50194010E94EE0B69017A018A
:100BE000E1E0CE1AD108E108F108FFEFCF16D104F9
:100BF000E104F10411F008F0B0C085E08093B10089
:100C000039C060E072E18AE790E0A50194010E949A
:100C1000EE0B69017A0181E0C81AD108E108F108F8
:100C2000C114D104E1E0EE06F10488F068E478EE46
:100C300081E090E0A50194010E94EE0B69017A0128
:100C4000F1E0CF1AD108E108F10893E001C091E08A
:100C500021E032120FC080918100887F892B809320
:100C60008100411451046104710449F42FEF3FEFF6
:100C7000A9012DC0411451046104710471F0D8011F
:100C8000AA0FBB1FA30192010E940D0C28EE33E0B6
:100C900040E050E00E94CC0B03C02FEF3FEFA901D2
:100CA00081E03816A1F0E2E03E1619F131108FC054
:100CB000C7BC2093DB023093DC024093DD025093EB
:100CC000DE0280916E00826080936E0080C0D092C0
:100CD0008900C09288002093D4023093D5024093BB
:100CE000D6025093D70280916F00826080936F008C
:100CF0006EC0C092B3002093CD023093CE024093D9
:100D0000CF025093D0028091700082608093700077
:100D10005EC084E073CFFFEFCF16D104E104F1048D
:100D2000D1F0C8F062E17AE780E090E0A50194019B
:100D30000E94EE0B69017A0181E0C81AD108E1082E
:100D4000F108EFEFCE16D104E104F10411F008F040
:100D500011CF84E022CF83E020CF62E17AE780E008
:100D600090E0A50194010E94EE0B69017A0181E0F7
:100D7000C81AD108E108F108EFEFCE16D104E1045A
:100D8000F104C1F0B8F089819A81AB81BC814AE05D
:100D9000B595A795979587954A95D1F76C017D01F3
:100DA00021E0C21AD108E108F108332009F4F4CE99
:100DB00087E024CF86E0DBCEFFEFCF16D104E1043D
:100DC000F10409F050F684E0D2CE82E017CF0F9004
:100DD0000F900F900F90DF91CF911F910F91FF9087
:100DE000EF90DF90CF90BF90AF909F908F907F90CB
:100DF0006F905F904F903F900895813039F018F0D8
:100E0000823051F0089510926E00089580916F0025
:100E10008D7F80936F000895809170008D7F809307
:100E2000700081E08093B0008091B100887F846081
:100E30008093B1001092B3000895CF93C82F809192
:100E40000D018C1307C0E2ECF0E0E4918FEF80938A
:100E50000D0101C0EFEF8E2F0E94FD0660E08C2F88
:100E6000CF910C9443041F920F920FB60F9211244E
:100E70002F933F934F935F936F937F938F939F93A2
:100E8000AF93BF93EF93FF938091CD029091CE02E9
:100E9000A091CF02B091D002892B8A2B8B2B51F1DC
:100EA0008091CA02E091CB02F091CC029081892717
:100EB00080838091CD029091CE02A091CF02B0911B
:100EC000D002181619061A061B06C4F48091CD022A
:100ED0009091CE02A091CF02B091D0020197A109CA
:100EE000B1098093CD029093CE02A093CF02B0932C
:100EF000D00204C080910D010E941D07FF91EF9167
:100F0000BF91AF919F918F917F916F915F914F9121
:100F10003F912F910F900FBE0F901F901895CF9279
:100F2000DF92EF92FF920F931F93CF93DF936C01A9
:100F3000EB017B01E40EF51E00E010E0CE15DF05AD
:100F400061F06991D601ED91FC910190F081E02D65
:100F5000C6010995080F191FF1CFC801DF91CF9184
:100F60001F910F91FF90EF90DF90CF900895611542
:100F7000710579F0FB0101900020E9F73197AF018D
:100F8000461B570BDC01ED91FC910280F381E02DB3
:100F9000099480E090E008950C94B707DC01ED918E
:100FA000FC910190F081E02D09940F931F93CF9352
:100FB000DF93EC016DE00E94CE078C016AE0CE0168
:100FC0000E94CE07800F911FDF91CF911F910F914B
:100FD00008950F931F93CF93DF93EC010E94B707FF
:100FE0008C01CE010E94D507800F911FDF91CF9118
:100FF0001F910F9108950F931F93CF93DF93EC01EF
:101000000E94CE078C01CE010E94D507800F911F50
:10101000DF91CF911F910F9108950E94A3030E9429
:101020008E00CEEED8E00E94F2012097E1F30E94FC
:10103000EE08F9CFFC0124853585F901E05CFF4F0E
:1010400080819181329620813181821B930B8F7335
:1010500099270895DC011C96ED91FC911D97DF0105
:10106000A05CBF4F2D913C91119712968D919C9150
:1010700011972817390739F08D919C91E80FF91FC6
:10108000808190E008958FEF9FEF0895FC01A48583
:10109000B585FD01E05CFF4F208131813296808172
:1010A00091812817390779F080819181A80FB91FA4
:1010B0008C91208131812F5F3F4F2F7333273183F4
:1010C000208390E008958FEF9FEF0895FC0181A1A8
:1010D000882329F0A489B5898C9186FFFBCF11A2C2
:1010E00008950F931F93CF93DF93FC01A685B785D7
:1010F0008D01005C1F4FE8018881998101968F73F3
:101100009927AD014E5B5F4FEA0128813981821733
:101110009307D1F3E80128813981A20FB31F6C93A3
:10112000A685B785A05CBF4F11969C938E93A68928
:10113000B7892C9181E090E0078C02C0880F991F3D
:101140000A94E2F7822B8C9381E081A30488F589CD
:10115000E02D80818064808381E090E0DF91CF91F9
:101160001F910F91089508951F920F920FB60F923D
:1011700011242F934F935F938F939F93EF93FF933C
:101180008091C00082FD1CC02091C6008091850323
:101190009091860301968F73992740918703509110
:1011A00088038417950771F0E0918503F091860319
:1011B000EB5BFC4F2083909386038093850302C0F2
:1011C0008091C600FF91EF919F918F915F914F9118
:1011D0002F910F900FBE0F901F9018958FED92E0FA
:1011E0000E941A08892B11F00C94B30808951F92DD
:1011F0000F920FB60F9211242F933F938F939F93CB
:10120000EF93FF9320914103309142038091430378
:10121000909144032817390731F48091C1008F7DE4
:101220008093C10014C0E0914303F0914403EF5F49
:10123000FC4F2081809143039091440301968F736A
:10124000992790934403809343032093C600FF9112
:10125000EF919F918F913F912F910F900FBE0F9023
:101260001F901895CF92DF92EF92FF920F931F93EA
:10127000CF93DF93EC016A017B014115514E61056B
:10128000710509F1EC89FD8981E090E008A002C0B8
:10129000880F991F0A94E2F7808360E079E08DE37C
:1012A00090E0A70196010E94CC0B89019A010150A0
:1012B0001109210931093695279517950795980148
:1012C00001151041A8F0EC89FD89108260E874E8EE
:1012D0008EE190E0A70196010E94CC0BDA01C901D2
:1012E0000197A109B109B695A795979587959C0196
:1012F000E889F9893083EA89FB89208319A2EE897C
:10130000FF89408181E090E09C010C8C02C0220F9B
:10131000331F0A94E2F7242B2083EE89FF89408152
:101320009C010D8C02C0220F331F0A94E2F7242B7C
:101330002083EE89FF8940819C010E8C02C0220F20
:10134000331F0A94E2F7242B2083EE89FF89208142
:101350000F8C02C0880F991F0A94E2F780958223B0
:101360008083DF91CF911F910F91FF90EF90DF90DD
:10137000CF900895EFEDF2E01382128288EE93E0B1
:10138000A0E0B0E084839583A683B7838AE892E0E7
:101390009183808385E493E09587848781E093E05F
:1013A0009787868785EC90E0918B808B84EC90E02A
:1013B000938B828B80EC90E0958B848B81EC90E01A
:1013C000978B868B82EC90E0918F808F86EC90E0FB
:1013D000938F828F84E0848F83E0858F87E0868F70
:1013E00085E0878F81E080A30895CF93DF93EC01A0
:1013F00060E08E810E94430481E090E00E949903A6
:1014000061E08E810E94430481E090E00E94990394
:1014100060E08E810E94430484E690E0DF91CF91EA
:101420000C949903AF92BF92CF92DF92EF92FF920A
:101430000F931F93CF93DF935C017C0187E0E80E4D
:10144000F11CC0E0D0E0062F10E0670161E0F70179
:1014500081917F010E940704B8010C2E02C075958E
:1014600067950A94E2F76170F60180810E94430457
:101470002196C430D10549F7C501DF91CF911F9165
:101480000F91FF90EF90DF90CF90BF90AF900C94B2
:10149000F509AF92BF92CF92DF92EF92FF920F9336
:1014A0001F93CF93DF935C017C0187E0E80EF11C72
:1014B000C0E0D0E0062F10E0670161E0F701819104
:1014C0007F010E940704B8010C2E02C07595679534
:1014D0000A94E2F76170F60180810E94430421962C
:1014E000C830D10549F7C501DF91CF911F910F9108
:1014F000FF90EF90DF90CF90BF90AF900C94F509E4
:101500001F93CF93DF93EC01162F642F8C810E94E1
:1015100043048D818F3F19F060E00E9443048F8562
:10152000612F84FF06C0CE01DF91CF911F910C94F3
:10153000490A70E084E0759567958A95E1F7CE01D8
:101540000E94120A612FCE01DF91CF911F910C945E
:10155000120A40E00C94800A61E00E94A90A80ED22
:1015600097E00C949903CF93DF93CDB7DEB728971C
:101570000FB6F894DEBF0FBECDBF9C0188E0EEE051
:10158000F1E0DE01119601900D928A95E1F7F901E3
:101590008389481710F04FEF480FFE013196E40F92
:1015A000F11DE40FF11D9081690F6068C901289653
:1015B0000FB6F894DEBF0FBECDBFDF91CF910C9474
:1015C000A90AFC016089262F2460208B6C600C9492
:1015D000A90ACF93DF93EC01423018F08F85886021
:1015E0008F874B8B1C8A222329F0413019F48F8579
:1015F00084608F8780E593EC0E94990360E08C8182
:101600000E94430460E08E810E9443048D818F3FDD
:1016100019F060E00E9443046F8564FD1DC063E023
:10162000CE010E94120A84E991E10E94990363E0CD
:10163000CE010E94120A84E991E10E94990363E0BD
:10164000CE010E94120A86E990E00E94990362E0AE
:10165000CE010E94120A16C06062CE010E94A90A41
:1016600084E991E10E9499036F856062CE010E9436
:10167000A90A86E990E00E9499036F856062CE0115
:101680000E94A90A6F856062CE010E94A90A84E0C7
:10169000888BCE010E94E10ACE010E94AC0A82E052
:1016A000898B66E0CE01DF91CF910C94A90A6F92ED
:1016B0007F928F92AF92CF92EF920F931F93CF931F
:1016C000DF93CDB7DEB73C01162F842F5D854E85A5
:1016D0003F859889F301848325830683E782C0864A
:1016E000A1868286538744873587968761E00E946A
:1016F0000704F30185818F3F19F061E00E94070420
:1017000061E0F30186810E940704112319F0F301BF
:10171000178603C080E1F301878720E041E060E1A4
:10172000C301DF91CF911F910F91EF90CF90AF90B8
:101730008F907F906F900C94E90A8F92AF92CF9226
:10174000EF920F93DC0113961C921E921297EAE916
:10175000F2E0ED93FC931F921F921F921F928C2C2C
:10176000AE2CC02EE22E042F2FEF462F61E00E94F8
:10177000570B0F900F900F900F900F91EF90CF900D
:10178000AF908F90089541E00E94800A81E090E040
:101790000895F8940C942D0CA1E21A2EAA1BBB1BE1
:1017A000FD010DC0AA1FBB1FEE1FFF1FA217B3072D
:1017B000E407F50720F0A21BB30BE40BF50B661F43
:1017C000771F881F991F1A9469F760957095809507
:1017D00090959B01AC01BD01CF010895052E97FBAB
:1017E0001EF400940E94050C57FD07D00E94CC0BFC
:1017F00007FC03D04EF40C94050C509540953095A1
:1018000021953F4F4F4F5F4F08959095809570956C
:1018100061957F4F8F4F9F4F08950E941E0CA59F8B
:10182000900DB49F900DA49F800D911D11240895DB
:10183000EE0FFF1F0590F491E02D0994A29FB001D7
:10184000B39FC001A39F700D811D1124911DB29FF4
:0E185000700D811D1124911D0895F894FFCF95
:10185E000D000A00090008000700060001FF000045
:10186E004000140054004349414F20464544455220
:10187E00494341203D2900534F4E4F2050524F4E69
:10188E00544F205045520045535345524520555311
:10189E0041544F21210020202020202020202020D4
:1018AE0020202020202020202020004C494E454181
:1018BE00002D0050554E544F002E0052656164208D
:1018CE006368617261637465723A2000556E726569
:1018DE00636F676E697A65642063686172616374B1
:1018EE006572004C455454455241204E4F4E205681
:1018FE00414C4944410043414E43454C4C415441B7
:10190E0020554C54494D41204C45545445524100AC
:10191E004C4554544552412043414E43454C4C4155
:10192E00544100494D4D455454455245204E554F56
:10193E005641205041524F4C4100410102000000DF
:10194E0042020101010043020102010044020101B1
:10195E00000045010000000046010102010047029F
:10196E0002010000480101010100490101000000CF
:10197E004A01020202004B02010200004C01020168
:10198E0001004D02020000004E02010000004F0255
:10199E000202000050010202010051020201020087
:1019AE005201020100005301010100005402000027
:1019BE00000055010102000056010101020057010D
:1019CE000202000058020101020059020102020047
:1019DE005A02020101000000000071088F071A0868
:0E19EE0046082A08660800000000C30B8F0799
:00000001FF
