:100000000C9464000C948C000C948C000C948C0068
:100010000C948C000C948C000C948C000C94250691
:100020000C948C000C948C000C948C000C948C0020
:100030000C948C000C948C000C948C000C948C0010
:100040000C9435020C948C000C941B080C945E08E4
:100050000C948C000C948C000C948C000C948C00F0
:100060000C948C000C948C0000000007000201002E
:100070000003040600000000000000000102040864
:100080001020408001020408102001020408102002
:10009000040404040404040402020202020203032E
:1000A00003030303000000002300260029000000D2
:1000B0000000250028002B0000000000240027007D
:1000C0002A0002002202210911241FBECFEFD8E02E
:1000D000DEBFCDBF12E0A0E0B1E0ECE2F7E102C08C
:1000E00005900D92A033B107D9F723E0A0E3B2E069
:1000F00001C01D92A032B207E1F710E0C4E6D0E0E3
:1001000004C02197FE010E947F0BC236D107C9F7B8
:100110000E9474070C94300B0C94000040E855E2E8
:1001200060E070E086E792E00E94990820E044E0F9
:1001300064E180E392E00E94500A62E08091020153
:100140000E94F90210925702109256021092480231
:100150001092470210924E0210924F0210925002DB
:1001600010925102109252021092530210925402B5
:100170001092550210924602109245020895109274
:10018000480210924702E9E4F2E0108211821282E2
:100190001382148208956DE071E086E792E00E9478
:1001A000BE0640914E0250914F02609150027091F4
:1001B00051022AE030E086E792E00E9462078091D7
:1001C0004E0290914F02A0915002B0915102AC01A9
:1001D000BD014F5352406109710942335105610518
:1001E000710558F4E0914702F0914802E75BFD4F3A
:1001F00082E0808361E271E012C08F5A9109A10907
:10020000B109C297A105B105C0F4E0914702F09190
:100210004802E75BFD4F81E0808366E271E086E79C
:1002200092E00E94DB06809147029091480201967D
:10023000909348028093470208956AE271E086E74E
:1002400092E00C94DB064CE751E080E090E0E9E4BA
:10025000F2E020E030E071912F5F3F4FDA01A20F12
:10026000B31F6C9176130DC025303105A1F726E040
:10027000289FF001299FF00D1124E458FE4F808142
:10028000089501964A5F5F4F8A31910501F780E03A
:1002900008950F931F93CF93DF93809102010E94E3
:1002A000650321E0892B09F020E0C22FD0E0222352
:1002B00051F020E030E0A90160E273E0809100019C
:1002C0000E948E0304C0809100010E940F0680915D
:1002D000560290915702C817D90709F08DC0CD2B4F
:1002E00009F071C00E947F020091520210915302E6
:1002F0002091540230915502DC01CB01801B910BFF
:10030000A20BB30B209145023091460221303105FA
:1003100071F48F5A9109A109B109C297A105B105DC
:1003200008F08BC00E94CB0082E090E082C02230B7
:10033000310581F58F539240A109B109C297A105FA
:10034000B10508F07AC00E942301C82F8823B9F0B4
:1003500040E060E080E392E00E941A0A65E471E008
:1003600086E792E00E94BE066C2F86E792E00E942C
:10037000ED066C2F80E392E00E94C00606C066E5A1
:1003800071E086E792E00E94DB060E94BF0083E0F6
:1003900090E04FC02330310509F04FC08F55954094
:1003A000A109B109C297A105B10508F046C06DE6E3
:1003B00071E086E792E00E94DB0660E280E392E073
:1003C0000E94C00634C00E947F0200915202109128
:1003D00053022091540230915502DC01CB01801B65
:1003E000910BA20BB30B80934E0290934F02A093FC
:1003F0005002B093510221C0892B59F4C130D1056C
:1004000041F410924E0210924F021092500210923C
:1004100051020E947F0260935202709353028093B4
:10042000540290935502D0935702C093560281E034
:1004300090E09093460280934502DF91CF911F9107
:100440000F910895CF92EF920F9382E0C82E93E020
:10045000E92E04E025E04BE06CE080E392E00E94AE
:10046000040B0F91EF90CF9008951F920F920FB64B
:100470000F9211242F933F938F939F93AF93BF932A
:100480008091590290915A02A0915B02B0915C0256
:100490003091580223E0230F2D3720F40196A11D3F
:1004A000B11D05C026E8230F0296A11DB11D2093A2
:1004B00058028093590290935A02A0935B02B09322
:1004C0005C0280915D0290915E02A0915F02B0910A
:1004D00060020196A11DB11D80935D0290935E02A2
:1004E000A0935F02B0936002BF91AF919F918F91F3
:1004F0003F912F910F900FBE0F901F9018952FB71F
:10050000F8946091590270915A0280915B02909127
:100510005C022FBF0895019739F0880F991F880F4B
:10052000991F02970197F1F70895789484B5826036
:1005300084BD84B5816084BD85B5826085BD85B587
:10054000816085BDEEE6F0E0808181608083E1E836
:10055000F0E010828081826080838081816080836E
:10056000E0E8F0E0808181608083E1EBF0E0808171
:1005700084608083E0EBF0E0808181608083EAE743
:10058000F0E08081846080838081826080838081CC
:10059000816080838081806880831092C10008958B
:1005A000833081F028F4813099F08230A1F00895F1
:1005B0008630A9F08730B9F08430D1F48091800082
:1005C0008F7D03C0809180008F7780938000089595
:1005D00084B58F7702C084B58F7D84BD08958091E6
:1005E000B0008F7703C08091B0008F7D8093B00002
:1005F0000895CF93DF9390E0FC01E458FF4F2491DE
:10060000FC01E057FF4F8491882361F190E0880F4F
:10061000991FFC01E854FF4FC591D491FC01E255AC
:10062000FF4FA591B491611109C09FB7F8948881DB
:10063000209582238883EC912E230BC0623061F4D5
:100640009FB7F8943881822F809583238883EC911B
:100650002E2B2C939FBF06C08FB7F894E8812E2BCA
:1006600028838FBFDF91CF9108951F93CF93DF939E
:10067000282F30E0F901E859FF4F8491F901E4583F
:10068000FF4FD491F901E057FF4FC491CC23C9F03B
:10069000162F81110E94D002EC2FF0E0EE0FFF1F09
:1006A000E255FF4FA591B4918FB7F894111105C091
:1006B0009C91ED2FE095E92302C0EC91ED2BEC939A
:1006C0008FBFDF91CF911F910895CF93DF93282F94
:1006D00030E0F901E859FF4F8491F901E458FF4FE8
:1006E000D491F901E057FF4FC491CC2391F08111CF
:1006F0000E94D002EC2FF0E0EE0FFF1FEC55FF4FF1
:10070000A591B491EC91ED2381E090E021F480E09B
:1007100002C080E090E0DF91CF9108953F924F9228
:100720005F926F927F928F929F92AF92BF92CF9281
:10073000DF92EF92FF920F931F93CF93DF9300D03E
:1007400000D0CDB7DEB790910401981721F09F3FFC
:1007500009F02FC204C0E2ECF0E0349081C0809335
:100760000401E2ECF0E0E491EF3F09F422C2E13051
:1007700031F1E23009F44BC0E11171C014BC15BC79
:1007800094B5926094BD95B5916095BDA82FB0E0E9
:10079000FD01E057FF4FE491F0E0EE0FFF1FE2553F
:1007A000FF4F059114911093710200937002FD01A7
:1007B000E458FF4FE491E0936F02312C53C0109244
:1007C0008000109281009091810098609093810048
:1007D00090918100916090938100A82FB0E0FD017D
:1007E000E057FF4FE491F0E0EE0FFF1FE255FF4F9F
:1007F0000591149110936A0200936902FD01E45877
:10080000FF4FE491E0936802332433942BC010929D
:10081000B0001092B1009091B00092609093B0003F
:100820009091B10091609093B100A82FB0E0FD01CC
:10083000E057FF4FE491F0E0EE0FFF1FE255FF4F4E
:10084000059114911093630200936202FD01E45834
:10085000FF4FE491E093610202E0302E03C03E2E90
:1008600037FCA7C129013A018B0161E00E94F9021E
:100870004801A12CB12C832D8D7F09F0B4C060E01C
:1008800072E18AE790E0A50194010E94550B29834B
:100890003A834B835C8369017A0121E0C21AD10853
:1008A000E108F1088FEFC816D104E104F10409F062
:1008B00008F44CC060E472E48FE090E0A50194017C
:1008C0000E94550B69017A01E1E0CE1AD108E108D6
:1008D000F108F2E03F1220C02FEFC216D104E1046C
:1008E000F10409F008F463C160E970ED83E090E081
:1008F000A50194010E94550B69017A0181E0C81A93
:10090000D108E108F108EFEFCE16D104E104F104BB
:1009100009F0B8F583E064C0FFEFCF16D104E1041D
:10092000F104B1F0A8F068E478EE81E090E0A50170
:1009300094010E94550B69017A0181E0C81AD1081F
:10094000E108F108332009F4D8C028C181E001C0D2
:1009500082E03320A1F044C089819A81AB81BC81BF
:100960002AE0B595A795979587952A95D1F76C01BB
:100970007D0121E0C21AD108E108F10885E085BDBA
:100980006BC068E478EE81E090E0A50194010E94DC
:10099000550B69017A01F1E0CF1AD108E108F1089D
:1009A0002FEFC216D104E104F10409F008F4A3C04A
:1009B00064E274EF80E090E0A50194010E94550B81
:1009C00069017A01E1E0CE1AD108E108F108FFEFF0
:1009D000CF16D104E104F10411F008F0B0C085E0B5
:1009E0008093B10039C060E072E18AE790E0A50130
:1009F00094010E94550B69017A0181E0C81AD1085F
:100A0000E108F108C114D104E1E0EE06F10488F038
:100A100068E478EE81E090E0A50194010E94550B16
:100A200069017A01F1E0CF1AD108E108F10893E0F9
:100A300001C091E021E032120FC080918100887FD7
:100A4000892B80938100411451046104710449F49D
:100A50002FEF3FEFA9012DC041145104610471042F
:100A600071F0D801AA0FBB1FA30192010E94740B61
:100A700028EE33E040E050E00E94330B03C02FEF3C
:100A80003FEFA90181E03816A1F0E2E03E1619F12E
:100A900031108FC0C7BC2093720230937302409311
:100AA00074025093750280916E00826080936E0094
:100AB00080C0D0928900C092880020936B0230934E
:100AC0006C0240936D0250936E0280916F008260C1
:100AD00080936F006EC0C092B30020936402309385
:100AE00065024093660250936702809170008260B5
:100AF000809370005EC084E073CFFFEFCF16D10407
:100B0000E104F104D1F0C8F062E17AE780E090E01E
:100B1000A50194010E94550B69017A0181E0C81A70
:100B2000D108E108F108EFEFCE16D104E104F10499
:100B300011F008F011CF84E022CF83E020CF62E1F2
:100B40007AE780E090E0A50194010E94550B6901CD
:100B50007A0181E0C81AD108E108F108EFEFCE165A
:100B6000D104E104F104C1F0B8F089819A81AB812C
:100B7000BC814AE0B595A795979587954A95D1F799
:100B80006C017D0121E0C21AD108E108F10833208F
:100B900009F4F4CE87E024CF86E0DBCEFFEFCF165A
:100BA000D104E104F10409F050F684E0D2CE82E0F1
:100BB00017CF0F900F900F900F90DF91CF911F9153
:100BC0000F91FF90EF90DF90CF90BF90AF909F90EC
:100BD0008F907F906F905F904F903F9008958130FD
:100BE00039F018F0823051F0089510926E00089597
:100BF00080916F008D7F80936F00089580917000C9
:100C00008D7F8093700081E08093B0008091B1006F
:100C1000887F84608093B1001092B3000895CF93D1
:100C2000C82F809104018C1307C0E2ECF0E0E4913E
:100C30008FEF8093040101C0EFEF8E2F0E94EF052C
:100C400060E08C2FCF910C9435031F920F920FB65A
:100C50000F9211242F933F934F935F936F937F9342
:100C60008F939F93AF93BF93EF93FF938091640211
:100C700090916502A0916602B0916702892B8A2B40
:100C80008B2B51F180916102E0916202F09163023D
:100C90009081892780838091640290916502A09160
:100CA0006602B0916702181619061A061B06C4F4EC
:100CB0008091640290916502A0916602B0916702F2
:100CC0000197A109B1098093640290936502A093F2
:100CD0006602B093670204C0809104010E940F066F
:100CE000FF91EF91BF91AF919F918F917F916F9104
:100CF0005F914F913F912F910F900FBE0F901F90DA
:100D00001895CF92DF92EF92FF920F931F93CF939C
:100D1000DF936C01EB017B01E40EF51E00E010E0B7
:100D2000CE15DF0561F06991D601ED91FC9101903E
:100D3000F081E02DC6010995080F191FF1CFC801F8
:100D4000DF91CF911F910F91FF90EF90DF90CF90A7
:100D500008956115710579F0FB0101900020E9F714
:100D60003197AF01461B570BDC01ED91FC910280DE
:100D7000F381E02D099480E090E008950C94A90699
:100D8000DC01ED91FC910190F081E02D09940F932D
:100D90001F93CF93DF93EC016DE00E94C0068C019E
:100DA0006AE0CE010E94C006800F911FDF91CF91B3
:100DB0001F910F9108950F931F93CF93DF93EC0131
:100DC0000E94A9068C01CE010E94C706800F911FC8
:100DD000DF91CF911F910F9108950F931F93CF93A0
:100DE000DF93EC010E94C0068C01CE010E94C70671
:100DF000800F911FDF91CF911F910F9108958F92D6
:100E00009F92AF92BF92CF92DF92EF92FF920F9399
:100E10001F93CF93DF93CDB7DEB7A1970FB6F894AA
:100E2000DEBF0FBECDBF6C01142FE52FCB01022F0B
:100E300019A2223008F40AE07E0121E2E20EF11C40
:100E4000802E912CA12CB12C612F7E2FA501940115
:100E50000E94330B029F1019112481E0E81AF10857
:100E60001A3014F4105D01C0195CF7011083122FC1
:100E7000E32FCA01232B242B252B31F7B701C60101
:100E80000E94A906A1960FB6F894DEBF0FBECDBF93
:100E9000DF91CF911F910F91FF90EF90DF90CF9056
:100EA000BF90AF909F908F9008952115310541F428
:100EB000DC01ED91FC910190F081E02D642F09940B
:100EC0000C94FF060F931F93CF93DF93EC010E94C6
:100ED00055078C01CE010E94C706800F911FDF913C
:100EE000CF911F910F9108950E9495020E948E004C
:100EF000C5E5D8E00E9449012097E1F30E9455081A
:100F0000F9CFFC0124853585F901E05CFF4F808134
:100F10009181329620813181821B930B8F739927A7
:100F20000895DC011C96ED91FC911D97DF01A05CFA
:100F3000BF4F2D913C91119712968D919C911197D5
:100F40002817390739F08D919C91E80FF91F80819E
:100F500090E008958FEF9FEF0895FC01A485B5857B
:100F6000FD01E05CFF4F20813181329680819181CB
:100F70002817390779F080819181A80FB91F8C91CA
:100F8000208131812F5F3F4F2F733327318320839F
:100F900090E008958FEF9FEF0895FC0181A18823D1
:100FA00029F0A489B5898C9186FFFBCF11A2089501
:100FB0000F931F93CF93DF93FC01A685B7858D0117
:100FC000005C1F4FE8018881998101968F739927F2
:100FD000AD014E5B5F4FEA0128813981821793078B
:100FE000D1F3E80128813981A20FB31F6C93A68544
:100FF000B785A05CBF4F11969C938E93A689B78945
:101000002C9181E090E0078C02C0880F991F0A9410
:10101000E2F7822B8C9381E081A30488F589E02D8F
:1010200080818064808381E090E0DF91CF911F9187
:101030000F91089508951F920F920FB60F921124E9
:101040002F934F935F938F939F93EF93FF93809191
:10105000C00082FD1CC02091C60080911C039091AD
:101060001D0301968F73992740911E0350911F0312
:101070008417950771F0E0911C03F0911D03E45271
:10108000FD4F208390931D0380931C0302C0809129
:10109000C600FF91EF919F918F915F914F912F919A
:1010A0000F900FBE0F901F90189586E792E00E9458
:1010B0008107892B11F00C941A0808951F920F9242
:1010C0000FB60F9211242F933F938F939F93EF931B
:1010D000FF932091D8023091D9028091DA02909149
:1010E000DB022817390731F48091C1008F7D80938E
:1010F000C10014C0E091DA02F091DB02E856FD4F26
:1011000020818091DA029091DB0201968F739927FA
:101110009093DB028093DA022093C600FF91EF9157
:101120009F918F913F912F910F900FBE0F901F9025
:101130001895CF92DF92EF92FF920F931F93CF9368
:10114000DF93EC016A017B014115514E6105710588
:1011500009F1EC89FD8981E090E008A002C0880FC8
:10116000991F0A94E2F7808360E079E08DE390E0D4
:10117000A70196010E94330B89019A0101501109C0
:10118000210931093695279517950795980101157D
:101190001041A8F0EC89FD89108260E874E88EE1C6
:1011A00090E0A70196010E94330BDA01C901019773
:1011B000A109B109B695A795979587959C01E889EE
:1011C000F9893083EA89FB89208319A2EE89FF8996
:1011D000408181E090E09C010C8C02C0220F331F03
:1011E0000A94E2F7242B2083EE89FF8940819C0139
:1011F0000D8C02C0220F331F0A94E2F7242B2083A8
:10120000EE89FF8940819C010E8C02C0220F331FA2
:101210000A94E2F7242B2083EE89FF8920810F8C2A
:1012200002C0880F991F0A94E2F780958223808379
:10123000DF91CF911F910F91FF90EF90DF90CF90B2
:101240000895E6E7F2E01382128288EE93E0A0E0D0
:10125000B0E084839583A683B7838CE192E0918389
:1012600080838CED92E09587848788E992E0978768
:10127000868785EC90E0918B808B84EC90E0938B5B
:10128000828B80EC90E0958B848B81EC90E0978B47
:10129000868B82EC90E0918F808F86EC90E0938F2C
:1012A000828F84E0848F83E0858F87E0868F85E05E
:1012B000878F81E080A30895CF93DF93EC0160E0F6
:1012C0008E810E94350381E090E00E948B0261E0F4
:1012D0008E810E94350381E090E00E948B0260E0E5
:1012E0008E810E94350384E690E0DF91CF910C94CB
:1012F0008B02AF92BF92CF92DF92EF92FF920F9349
:101300001F93CF93DF935C017C0187E0E80EF11C13
:10131000C0E0D0E0062F10E0670161E0F7018191A5
:101320007F010E94F902B8010C2E02C075956795E5
:101330000A94E2F76170F60180810E9435032196DC
:10134000C430D10549F7C501DF91CF911F910F91AD
:10135000FF90EF90DF90CF90BF90AF900C945C091E
:10136000AF92BF92CF92DF92EF92FF920F931F93B3
:10137000CF93DF935C017C0187E0E80EF11CC0E0B5
:10138000D0E0062F10E0670161E0F70181917F0155
:101390000E94F902B8010C2E02C0759567950A9457
:1013A000E2F76170F60180810E9435032196C83012
:1013B000D10549F7C501DF91CF911F910F91FF90A2
:1013C000EF90DF90CF90BF90AF900C945C091F938B
:1013D000CF93DF93EC01162F642F8C810E9435038D
:1013E0008D818F3F19F060E00E9435038F85612F5A
:1013F00084FF06C0CE01DF91CF911F910C94B009FC
:1014000070E084E0759567958A95E1F7CE010E94BA
:101410007909612FCE01DF91CF911F910C94790949
:1014200040E00C94E70961E00E94100A80ED97E02B
:101430000C948B02CF93DF93CDB7DEB728970FB60E
:10144000F894DEBF0FBECDBF9C0188E0E5E0F1E07F
:10145000DE01119601900D928A95E1F7F9018389D9
:10146000481710F04FEF480FFE013196E40FF11DC1
:10147000E40FF11D9081690F6068C90128960FB6CD
:10148000F894DEBF0FBECDBFDF91CF910C94100A50
:10149000FC016089262F2460208B6C600C94100A5C
:1014A000CF93DF93EC01423018F08F8588608F87EF
:1014B0004B8B1C8A222329F0413019F48F858460DC
:1014C0008F8780E593EC0E948B0260E08C810E9404
:1014D000350360E08E810E9435038D818F3F19F0C6
:1014E00060E00E9435036F8564FD1DC063E0CE019E
:1014F0000E94790984E991E10E948B0263E0CE01A8
:101500000E94790984E991E10E948B0263E0CE0197
:101510000E94790986E990E00E948B0262E0CE0188
:101520000E94790916C06062CE010E94100A84E907
:1015300091E10E948B026F856062CE010E94100AC9
:1015400086E990E00E948B026F856062CE010E9466
:10155000100A6F856062CE010E94100A84E0888BB9
:10156000CE010E94480ACE010E94130A82E0898BB4
:1015700066E0CE01DF91CF910C94100A6F927F92BA
:101580008F92AF92CF92EF920F931F93CF93DF93EF
:10159000CDB7DEB73C01162F842F5D854E853F8584
:1015A0009889F301848325830683E782C086A18618
:1015B0008286538744873587968761E00E94F902C7
:1015C000F30185818F3F19F061E00E94F90261E02B
:1015D000F30186810E94F902112319F0F3011786A5
:1015E00003C080E1F301878720E041E060E1C301AF
:1015F000DF91CF911F910F91EF90CF90AF908F908F
:101600007F906F900C94500A8F92AF92CF92EF928E
:101610000F93DC0113961C921E921297ECE2F2E0FB
:10162000ED93FC931F921F921F921F928C2CAE2C55
:10163000C02EE22E042F2FEF462F61E00E94BE0A3B
:101640000F900F900F900F900F91EF90CF90AF9061
:101650008F90089541E00E94E70981E090E00895AD
:10166000F8940C94940BA1E21A2EAA1BBB1BFD014B
:101670000DC0AA1FBB1FEE1FFF1FA217B307E40771
:10168000F50720F0A21BB30BE40BF50B661F771FC9
:10169000881F991F1A9469F76095709580959095A9
:1016A0009B01AC01BD01CF010895052E97FB1EF4EF
:1016B00000940E946C0B57FD07D00E94330B07FC6F
:1016C00003D04EF40C946C0B5095409530952195B9
:1016D0003F4F4F4F5F4F089590958095709561955E
:1016E0007F4F8F4F9F4F08950E94850BA59F900DB0
:1016F000B49F900DA49F800D911D11240895EE0FAD
:10170000FF1F0590F491E02D0994A29FB001B39FB3
:10171000C001A39F700D811D1124911DB29F700DFA
:0C172000811D1124911D0895F894FFCF45
:10172C0009000600FF0000400014005400446F77CD
:10173C006E206475726174696F6E207761733A20E4
:10174C00004441534800444F5400446F776E20646A
:10175C0075726174696F6E20756E7265636F676EFA
:10176C00697A6564005265616420636861726163C3
:10177C007465723A2000556E7265636F676E697A94
:10178C00656420636861726163746572005265619F
:10179C0064206E65787420776F72640041010200DA
:1017AC000000420201010100430201020100440257
:1017BC00010100004501000000004601010201008A
:1017CC00470202010000480101010100490101002A
:1017DC0000004A01020202004B02010200004C010F
:1017EC00020101004D02020000004E020100000047
:1017FC004F020202000050010202010051020201DC
:10180C0002005201020100005301010100005402C8
:10181C000000000055010102000056010101020008
:10182C005701020200005802010102005902010294
:10183C0002005A020201010000000000D8078106D4
:10184C008107AD079107CD07000000002A0B810628
:00000001FF
