:100000000C945D000C9485000C9485000C94850084
:100010000C9485000C9485000C9485000C9485004C
:100020000C9485000C9485000C9485000C9485003C
:100030000C9485000C9485000C9485000C9485002C
:100040000C9435030C9485000C9485000C94850069
:100050000C9485000C9485000C9485000C9485000C
:100060000C9485000C94850000000007000201003C
:100070000003040600000000000000000102040864
:100080001020408001020408102001020408102002
:10009000040404040404040402020202020203032E
:1000A0000303030300000000250028002B000000CC
:1000B0000000240027002A00880011241FBECFEF73
:1000C000D8E0DEBFCDBF11E0A0E0B1E0E8ECF8E0A1
:1000D00002C005900D92A433B107D9F721E0A4E343
:1000E000B1E001C01D92A235B207E1F710E0CDE505
:1000F000D0E004C02197FE010E945C04CC35D107FA
:10010000C9F70E941C010C9459040C940000089536
:10011000CF92EF920F9382E0C82E93E0E92E04E095
:1001200025E04BE06CE084E391E00E94D1020F9166
:10013000EF90CF90089540E051E060E084E391E0DB
:100140000E94F70248E051E061E084E391E00E9400
:10015000F70220E044E064E184E391E00E941D02A4
:1001600043E061E184E391E00E94E70161E084E320
:1001700091E00E942F0361E084E391E00E942F034D
:1001800061E084E391E00E942F0340E060E084E3BB
:1001900091E00E94E70168E171E084E391E00E9450
:1001A000130164E484E391E00C941501CF92DF9293
:1001B000EF92FF920F931F93CF93DF936C01EB01AC
:1001C0007B01E40EF51E00E010E0CE15DF0561F0C6
:1001D0006991D601ED91FC910190F081E02DC6016D
:1001E0000995080F191FF1CFC801DF91CF911F9119
:1001F0000F91FF90EF90DF90CF90089561157105FA
:1002000079F0FB0101900020E9F73197AF01461B1F
:10021000570BDC01ED91FC910280F381E02D0994F4
:1002200080E090E008950C94FE00DC01ED91FC91DB
:100230000190F081E02D09940E9489030E949B00A7
:10024000C0E0D0E00E9487002097E1F30E94000008
:10025000F9CFCF93DF93EC0160E08E810E942904F7
:1002600081E090E00E947F0361E08E810E9429047A
:1002700081E090E00E947F0360E08E810E9429046B
:1002800084E690E0DF91CF910C947F03AF92BF9210
:10029000CF92DF92EF92FF920F931F93CF93DF9352
:1002A0005C017C0187E0E80EF11CC0E0D0E0062F85
:1002B00010E0670161E0F70181917F010E94ED0389
:1002C000B8010C2E02C0759567950A94E2F761702B
:1002D000F60180810E9429042196C430D10549F796
:1002E000C501DF91CF911F910F91FF90EF90DF90AB
:1002F000CF90BF90AF900C942901AF92BF92CF9254
:10030000DF92EF92FF920F931F93CF93DF935C01E5
:100310007C0187E0E80EF11CC0E0D0E0062F10E081
:10032000670161E0F70181917F010E94ED03B8014F
:100330000C2E02C0759567950A94E2F76170F6017C
:1003400080810E9429042196C830D10549F7C50152
:10035000DF91CF911F910F91FF90EF90DF90CF90A1
:10036000BF90AF900C9429011F93CF93DF93EC01C2
:10037000162F642F8C810E9429048D818F3F19F0E4
:1003800060E00E9429048F85612F84FF06C0CE01A2
:10039000DF91CF911F910C947D0170E084E0759501
:1003A00067958A95E1F7CE010E944601612FCE0143
:1003B000DF91CF911F910C94460140E00C94B40161
:1003C00061E00E94DD0180ED97E00C947F03CF9304
:1003D000DF93CDB7DEB728970FB6F894DEBF0FBE18
:1003E000CDBF9C0188E0E0E1F1E0DE0111960190D3
:1003F0000D928A95E1F7F9018389481710F04FEFC4
:10040000480FFE013196E40FF11DE40FF11D9081BC
:10041000690F6068C90128960FB6F894DEBF0FBE59
:10042000CDBFDF91CF910C94DD01FC016089262FB7
:100430002460208B6C600C94DD01CF93DF93EC0182
:10044000423018F08F8588608F874B8B1C8A22235F
:1004500029F0413019F48F8584608F8780E593EC13
:100460000E947F0360E08C810E94290460E08E81FD
:100470000E9429048D818F3F19F060E00E942904B9
:100480006F8564FD1DC063E0CE010E94460184E9D2
:1004900091E10E947F0363E0CE010E94460184E95E
:1004A00091E10E947F0363E0CE010E94460186E94C
:1004B00090E00E947F0362E0CE010E94460116C0D8
:1004C0006062CE010E94DD0184E991E10E947F0318
:1004D0006F856062CE010E94DD0186E990E00E9496
:1004E0007F036F856062CE010E94DD016F856062CF
:1004F000CE010E94DD0184E0888BCE010E941502AE
:10050000CE010E94E00182E0898B66E0CE01DF919E
:10051000CF910C94DD016F927F928F92AF92CF9228
:10052000EF920F931F93CF93DF93CDB7DEB73C01CC
:10053000162F842F5D854E853F859889F30184832E
:1005400025830683E782C086A186828653874487F7
:100550003587968761E00E94ED03F30185818F3F27
:1005600019F061E00E94ED0361E0F30186810E94D1
:10057000ED03112319F0F301178603C080E1F301A5
:10058000878720E041E060E1C301DF91CF911F91B7
:100590000F91EF90CF90AF908F907F906F900C94D1
:1005A0001D028F92AF92CF92EF920F93DC011396C0
:1005B0001C921E921297E0E3F1E0ED93FC931F92E0
:1005C0001F921F921F928C2CAE2CC02EE22E042F55
:1005D0002FEF462F61E00E948B020F900F900F903B
:1005E0000F900F91EF90CF90AF908F900895CF9292
:1005F000DF92EF92FF920F931F93CF93DF9300D080
:10060000CDB7DEB78C01677088E0689FB001112418
:100610006064C80149835A830E94DD014981C42E68
:100620005A81D52E7601A8E0EA0EF11CF6016191FF
:100630006F01D801ED91FC910190F081E02DC8018E
:100640000995CE14DF0491F70F900F90DF91CF91B1
:100650001F910F91FF90EF90DF90CF90089541E0B0
:100660000E94B40181E090E008951F920F920FB6AE
:100670000F9211242F933F938F939F93AF93BF9328
:1006800080914A0190914B01A0914C01B0914D0194
:100690003091490123E0230F2D3720F40196A11D4D
:1006A000B11D05C026E8230F0296A11DB11D2093A0
:1006B000490180934A0190934B01A0934C01B09360
:1006C0004D0180914E0190914F01A0915001B09148
:1006D00051010196A11DB11D80934E0190934F01D0
:1006E000A0935001B0935101BF91AF919F918F9111
:1006F0003F912F910F900FBE0F901F90189501976B
:1007000039F0880F991F880F991F02970197F1F709
:100710000895789484B5826084BD84B5816084BD79
:1007200085B5826085BD85B5816085BDEEE6F0E06A
:10073000808181608083E1E8F0E0108280818260C6
:100740008083808181608083E0E8F0E08081816047
:100750008083E1EBF0E0808184608083E0EBF0E077
:10076000808181608083EAE7F0E08081846080831B
:1007700080818260808380818160808380818068C5
:1007800080831092C1000895833081F028F4813075
:1007900099F08230A1F008958630A9F08730B9F041
:1007A0008430D1F4809180008F7D03C080918000DF
:1007B0008F7780938000089584B58F7702C084B5C9
:1007C0008F7D84BD08958091B0008F7703C08091A4
:1007D000B0008F7D8093B0000895CF93DF9390E0B9
:1007E000FC01E458FF4F2491FC01E057FF4F849136
:1007F000882361F190E0880F991FFC01E255FF4FBB
:10080000C591D491FC01EC55FF4FA591B4916111B4
:1008100009C09FB7F8948881209582238883EC9142
:100820002E230BC0623061F49FB7F8943881822F79
:10083000809583238883EC912E2B2C939FBF06C039
:100840008FB7F894E8812E2B28838FBFDF91CF914B
:1008500008951F93CF93DF93282F30E0F901E859D3
:10086000FF4F8491F901E458FF4FD491F901E0570B
:10087000FF4FC491CC23C9F0162F81110E94C403ED
:10088000EC2FF0E0EE0FFF1FEC55FF4FA591B49158
:100890008FB7F894111105C09C91ED2FE095E923D5
:1008A00002C0EC91ED2BEC938FBFDF91CF911F91A4
:1008B0000895F8940C946204EE0FFF1F0590F491D4
:0808C000E02D0994F894FFCF2C
:1008C800001B1B0011110E0000000A1F1F0E040060
:1008D8000000400014005400536372697669206C6C
:1008E80061206C657474657261203A000000000034
:0408F8002F03D600F4
:00000001FF
