:100000000C945E000C9486000C9486000C94860080
:100010000C9486000C9486000C9486000C9440048A
:100020000C9486000C9486000C9486000C94860038
:100030000C9486000C9486000C9486000C94860028
:100040000C94A5070C9486000C9464060C94A706E7
:100050000C9486000C9486000C9486000C94860008
:100060000C9486000C94860000000007000201003A
:100070000003040600000000000000000102040864
:100080001020408001020408102001020408102002
:10009000040404040404040402020202020203032E
:1000A0000303030300000000250028002B000000CC
:1000B0000000240027002A0002006A0711241FBE46
:1000C000CFEFD8E0DEBFCDBF11E0A0E0B1E0E0E2CD
:1000D000F1E102C005900D92A233B107D9F721E0FA
:1000E000A2E3B1E001C01D92AE3FB207E1F710E01C
:1000F000CEE5D0E004C02197FE010E947908CD35FD
:10010000D107C9F70E94BD050C942A080C94000081
:1001100061E08CE00E943D0161E08BE00E943D01C6
:1001200040E855E260E070E08BE491E00C94E20678
:100130008EE00E94F70090933501809334018FE0A8
:100140000E94F70090933301809332018091340133
:1001500090913501883C9105F4F062E071E08BE408
:1001600091E00E94F40460913401709135014AE0FD
:1001700050E08BE491E00E94A60561E08CE00E94D3
:10018000790125E030E040E050E066E970E08AE087
:100190000E94A90104C060E08CE00E947901809176
:1001A000320190913301883C9105ECF062E171E0FD
:1001B0008BE491E00E94F40460913201709133016C
:1001C0004AE050E08BE491E00E94A60561E08BE0FC
:1001D0000E94790125E030E040E050E06CE271E0FF
:1001E0008AE00C94A90160E08BE00C9479018E30D8
:1001F00008F08E5087702091000190E4299F9001B3
:100200001124822B80937C0080917A0080648093FB
:100210007A0080917A0086FDFCCF80917800209151
:10022000790090E0922B0895833081F028F481309A
:1002300099F08230A1F008958630A9F08730B9F0A6
:100240008430D1F4809180008F7D03C08091800044
:100250008F7780938000089584B58F7702C084B52E
:100260008F7D84BD08958091B0008F7703C0809109
:10027000B0008F7D8093B0000895CF93DF9390E01E
:10028000FC01E458FF4F2491FC01E057FF4F84919B
:10029000882361F190E0880F991FFC01E255FF4F20
:1002A000C591D491FC01EC55FF4FA591B49161111A
:1002B00009C09FB7F8948881209582238883EC91A8
:1002C0002E230BC0623061F49FB7F8943881822FDF
:1002D000809583238883EC912E2B2C939FBF06C09F
:1002E0008FB7F894E8812E2B28838FBFDF91CF91B1
:1002F00008951F93CF93DF93282F30E0F901E85939
:10030000FF4F8491F901E458FF4FD491F901E05770
:10031000FF4FC491CC23C9F0162F81110E94140104
:10032000EC2FF0E0EE0FFF1FEC55FF4FA591B491BD
:100330008FB7F894111105C09C91ED2FE095E9233A
:1003400002C0EC91ED2BEC938FBFDF91CF911F9109
:1003500008953F924F925F926F927F928F929F92F9
:10036000AF92BF92CF92DF92EF92FF920F931F93C3
:10037000CF93DF9300D000D0CDB7DEB790910101CD
:10038000981721F09F3F09F02FC204C0E8EBF0E07E
:10039000349081C080930101E8EBF0E0E491EF3FFD
:1003A00009F422C2E13031F1E23009F44BC0E1112D
:1003B00071C014BC15BC94B5926094BD95B59160A4
:1003C00095BDA82FB0E0FD01E057FF4FE491F0E0AC
:1003D000EE0FFF1FEC55FF4F05911491109346014E
:1003E00000934501FD01E458FF4FE491E09344017F
:1003F000312C53C0109280001092810090918100A6
:100400009860909381009091810091609093810019
:10041000A82FB0E0FD01E057FF4FE491F0E0EE0FB0
:10042000FF1FEC55FF4F0591149110933F0100936E
:100430003E01FD01E458FF4FE491E0933D01332478
:1004400033942BC01092B0001092B1009091B00084
:1004500092609093B0009091B10091609093B10040
:10046000A82FB0E0FD01E057FF4FE491F0E0EE0F60
:10047000FF1FEC55FF4F0591149110933801009325
:100480003701FD01E458FF4FE491E093360102E0AB
:10049000302E03C03E2E37FCA7C129013A018B0143
:1004A00061E00E943D014801A12CB12C832D8D7F7C
:1004B00009F0B4C060E072E18AE790E0A501940120
:1004C0000E944F0829833A834B835C8369017A0138
:1004D00021E0C21AD108E108F1088FEFC816D10453
:1004E000E104F10409F008F44CC060E472E48FE028
:1004F00090E0A50194010E944F0869017A01E1E0B2
:10050000CE1AD108E108F108F2E03F1220C02FEF27
:10051000C216D104E104F10409F008F463C160E9F2
:1005200070ED83E090E0A50194010E944F086901FD
:100530007A0181E0C81AD108E108F108EFEFCE1680
:10054000D104E104F10409F0B8F583E064C0FFEFE1
:10055000CF16D104E104F104B1F0A8F068E478EE1C
:1005600081E090E0A50194010E944F0869017A01A1
:1005700081E0C81AD108E108F108332009F4D8C095
:1005800028C181E001C082E03320A1F044C089810C
:100590009A81AB81BC812AE0B595A79597958795FF
:1005A0002A95D1F76C017D0121E0C21AD108E1083A
:1005B000F10885E085BD6BC068E478EE81E090E0ED
:1005C000A50194010E944F0869017A01F1E0CF1A58
:1005D000D108E108F1082FEFC216D104E104F104BB
:1005E00009F008F4A3C064E274EF80E090E0A50194
:1005F00094010E944F0869017A01E1E0CE1AD10806
:10060000E108F108FFEFCF16D104E104F10411F085
:1006100008F0B0C085E08093B10039C060E072E1BD
:100620008AE790E0A50194010E944F0869017A01D0
:1006300081E0C81AD108E108F108C114D104E1E051
:10064000EE06F10488F068E478EE81E090E0A50120
:1006500094010E944F0869017A01F1E0CF1AD10894
:10066000E108F10893E001C091E021E032120FC0EF
:1006700080918100887F892B8093810041145104EF
:100680006104710449F42FEF3FEFA9012DC041141B
:1006900051046104710471F0D801AA0FBB1FA301BA
:1006A00092010E946E0828EE33E040E050E00E9484
:1006B0002D0803C02FEF3FEFA90181E03816A1F00C
:1006C000E2E03E1619F131108FC0C7BC20934701FC
:1006D000309348014093490150934A0180916E0044
:1006E000826080936E0080C0D0928900C0928800A2
:1006F00020934001309341014093420150934301C4
:1007000080916F00826080936F006EC0C092B300D2
:100710002093390130933A0140933B0150933C01BF
:10072000809170008260809370005EC084E073CF1F
:10073000FFEFCF16D104E104F104D1F0C8F062E17B
:100740007AE780E090E0A50194010E944F086901DA
:100750007A0181E0C81AD108E108F108EFEFCE165E
:10076000D104E104F10411F008F011CF84E022CFAC
:1007700083E020CF62E17AE780E090E0A501940178
:100780000E944F0869017A0181E0C81AD108E10886
:10079000F108EFEFCE16D104E104F104C1F0B8F096
:1007A00089819A81AB81BC814AE0B595A7959795DF
:1007B00087954A95D1F76C017D0121E0C21AD108D5
:1007C000E108F108332009F4F4CE87E024CF86E075
:1007D000DBCEFFEFCF16D104E104F10409F050F6AF
:1007E00084E0D2CE82E017CF0F900F900F900F9041
:1007F000DF91CF911F910F91FF90EF90DF90CF90FD
:10080000BF90AF909F908F907F906F905F904F9030
:100810003F900895813039F018F0823051F00895FA
:1008200010926E00089580916F008D7F80936F000D
:100830000895809170008D7F8093700081E0809397
:10084000B0008091B100887F84608093B1001092E5
:10085000B3000895CF93C82F809101018C1307C076
:10086000E8EBF0E0E4918FEF8093010101C0EFEF3E
:100870008E2F0E940A0460E08C2FCF910C94790196
:100880001F920F920FB60F9211242F933F934F9305
:100890005F936F937F938F939F93AF93BF93EF93E8
:1008A000FF938091390190913A01A0913B01B09161
:1008B0003C01892B8A2B8B2B51F180913601E091E1
:1008C0003701F09138019081892780838091390127
:1008D00090913A01A0913B01B0913C011816190684
:1008E0001A061B06C4F48091390190913A01A09137
:1008F0003B01B0913C010197A109B10980933901F5
:1009000090933A01A0933B01B0933C0104C08091C5
:1009100001010E942A04FF91EF91BF91AF919F9135
:100920008F917F916F915F914F913F912F910F9098
:100930000FBE0F901F901895CF92DF92EF92FF920B
:100940000F931F93CF93DF936C01EB017B01E40EB8
:10095000F51E00E010E0CE15DF0561F06991D601CB
:10096000ED91FC910190F081E02DC6010995080FF1
:10097000191FF1CFC801DF91CF911F910F91FF9007
:10098000EF90DF90CF9008956115710579F0FB012C
:1009900001900020E9F73197AF01461B570BDC01AE
:1009A000ED91FC910280F381E02D099480E090E0CC
:1009B0000895DC01ED91FC910190F081E02D099406
:1009C0000F931F93CF93DF93EC016DE00E94D90446
:1009D0008C016AE0CE010E94D904800F911FDF9143
:1009E000CF911F910F9108950F931F93CF93DF9392
:1009F000EC010E94C4048C01CE010E94E004800F2F
:100A0000911FDF91CF911F910F9108958F929F9227
:100A1000AF92BF92CF92DF92EF92FF920F931F930C
:100A2000CF93DF93CDB7DEB7A1970FB6F894DEBFB3
:100A30000FBECDBF6C01142FE52FCB01022F19A2E1
:100A4000223008F40AE07E0121E2E20EF11C802E41
:100A5000912CA12CB12C612F7E2FA50194010E9415
:100A60002D08029F1019112481E0E81AF1081A30AC
:100A700014F4105D01C0195CF7011083122FE32FED
:100A8000CA01232B242B252B31F7B701C6010E9465
:100A9000C404A1960FB6F894DEBF0FBECDBFDF91A0
:100AA000CF911F910F91FF90EF90DF90CF90BF906B
:100AB000AF909F908F900895CF92DF92EF92FF9228
:100AC0000F931F93CF93DF93EC016A017B012115F4
:100AD000310579F4E881F9810190F081E02D642FEE
:100AE000DF91CF911F910F91FF90EF90DF90CF900A
:100AF00009942A303105E9F477FF1AC06DE20E94AB
:100B0000D9048C0144275527BA014C195D096E0997
:100B10007F092AE0CE010E940605800F911FDF9118
:100B2000CF911F910F91FF90EF90DF90CF9008959C
:100B30002AE0B701A601CE01DF91CF911F910F915D
:100B4000FF90EF90DF90CF900C9406050F931F93CA
:100B5000CF93DF93EC019A01AB01770F660B770B14
:100B60000E945C058C01CE010E94E004800F911F61
:100B7000DF91CF911F910F9108950E94EF070E947E
:100B80008800CEE9D6E00E9498002097E1F30E9409
:100B90009E06F9CFFC0124853585F901E05CFF4F05
:100BA00080819181329620813181821B930B8F73DA
:100BB00099270895DC011C96ED91FC911D97DF01AA
:100BC000A05CBF4F2D913C91119712968D919C91F5
:100BD00011972817390739F08D919C91E80FF91F6B
:100BE000808190E008958FEF9FEF0895FC01A48528
:100BF000B585FD01E05CFF4F208131813296808117
:100C000091812817390779F080819181A80FB91F48
:100C10008C91208131812F5F3F4F2F733327318398
:100C2000208390E008958FEF9FEF0895FC0181A14C
:100C3000882329F0A489B5898C9186FFFBCF11A266
:100C400008950F931F93CF93DF93FC01A685B7857B
:100C50008D01005C1F4FE8018881998101968F7397
:100C60009927AD014E5B5F4FEA01288139818217D8
:100C70009307D1F3E80128813981A20FB31F6C9348
:100C8000A685B785A05CBF4F11969C938E93A689CD
:100C9000B7892C9181E090E0078C02C0880F991FE2
:100CA0000A94E2F7822B8C9381E081A30488F58972
:100CB000E02D80818064808381E090E0DF91CF919E
:100CC0001F910F91089508951F920F920FB60F92E2
:100CD00011242F934F935F938F939F93EF93FF93E1
:100CE0008091C00082FD1CC02091C6008091F1015E
:100CF0009091F20101968F7399274091F3015091E1
:100D0000F4018417950771F0E091F101F091F2017F
:100D1000EF54FE4F20839093F2018093F10102C0C3
:100D20008091C600FF91EF919F918F915F914F91BC
:100D30002F910F900FBE0F901F9018958BE491E0AC
:100D40000E94CA05892B11F00C94630608951F9226
:100D50000F920FB60F9211242F933F938F939F936F
:100D6000EF93FF932091AD013091AE018091AF01DF
:100D70009091B0012817390731F48091C1008F7D1F
:100D80008093C10014C0E091AF01F091B001E3592C
:100D9000FE4F20818091AF019091B00101968F7339
:100DA00099279093B0018093AF012093C600FF91E3
:100DB000EF919F918F913F912F910F900FBE0F90C8
:100DC0001F901895CF92DF92EF92FF920F931F938F
:100DD000CF93DF93EC016A017B014115514E610510
:100DE000710509F1EC89FD8981E090E008A002C05D
:100DF000880F991F0A94E2F7808360E079E08DE321
:100E000090E0A70196010E942D0889019A010150E6
:100E100011092109310936952795179507959801EC
:100E200001151041A8F0EC89FD89108260E874E892
:100E30008EE190E0A70196010E942D08DA01C90118
:100E40000197A109B109B695A795979587959C013A
:100E5000E889F9893083EA89FB89208319A2EE8920
:100E6000FF89408181E090E09C010C8C02C0220F40
:100E7000331F0A94E2F7242B2083EE89FF894081F7
:100E80009C010D8C02C0220F331F0A94E2F7242B21
:100E90002083EE89FF8940819C010E8C02C0220FC5
:100EA000331F0A94E2F7242B2083EE89FF892081E7
:100EB0000F8C02C0880F991F0A94E2F78095822355
:100EC0008083DF91CF911F910F91FF90EF90DF9082
:100ED000CF900895EBE4F1E01382128288EE93E064
:100EE000A0E0B0E084839583A683B78386E291E097
:100EF0009183808381EB91E0958784878DE691E0F3
:100F00009787868785EC90E0918B808B84EC90E0CE
:100F1000938B828B80EC90E0958B848B81EC90E0BE
:100F2000978B868B82EC90E0918F808F86EC90E09F
:100F3000938F828F84E0848F83E0858F87E0868F14
:100F400085E0878F81E080A308951F920F920FB6EE
:100F50000F9211242F933F938F939F93AF93BF933F
:100F60008091F6019091F701A091F801B091F901FB
:100F70003091F50123E0230F2D3720F40196A11DB8
:100F8000B11D05C026E8230F0296A11DB11D2093B7
:100F9000F5018093F6019093F701A093F801B093C7
:100FA000F9018091FA019091FB01A091FC01B091AF
:100FB000FD010196A11DB11D8093FA019093FB01E3
:100FC000A093FC01B093FD01BF91AF919F918F91D0
:100FD0003F912F910F900FBE0F901F90189578940E
:100FE00084B5826084BD84B5816084BD85B582602E
:100FF00085BD85B5816085BDEEE6F0E080818160CC
:101000008083E1E8F0E010828081826080838081CB
:1010100081608083E0E8F0E0808181608083E1EBA3
:10102000F0E0808184608083E0EBF0E0808181608B
:101030008083EAE7F0E08081846080838081826041
:10104000808380818160808380818068808310922A
:10105000C1000895F8940C948E08A1E21A2EAA1BE0
:10106000BB1BFD010DC0AA1FBB1FEE1FFF1FA21758
:10107000B307E407F50720F0A21BB30BE40BF50B55
:10108000661F771F881F991F1A9469F760957095DE
:10109000809590959B01AC01BD01CF010895052E6F
:1010A00097FB1EF400940E94660857FD07D00E942B
:1010B0002D0807FC03D04EF40C946608509540951B
:1010C000309521953F4F4F4F5F4F089590958095F4
:1010D000709561957F4F8F4F9F4F08950E947F08B5
:1010E000A59F900DB49F900DA49F800D911D11247C
:1010F0000895EE0FFF1F0590F491E02D0994A29F33
:10110000B001B39FC001A39F700D811D1124911DDB
:10111000B29F700D811D1124911D0895F894FFCF89
:1011200001FF56616C6F7265207069657A6F313AA4
:10113000200056616C6F7265207069657A6F323A73
:1011400020000000000021069C04CA05F605DA050F
:02115000160681
:00000001FF
