:100000000C945D000C9485000C9485000C94850084
:100010000C9485000C9485000C9485000C9485004C
:100020000C9485000C9485000C9485000C9485003C
:100030000C9485000C9485000C9485000C9485002C
:100040000C94D7000C9485000C9485000C948500CA
:100050000C9485000C9485000C9485000C9485000C
:100060000C9485000C94850000000007000201003C
:100070000003040600000000000000000102040864
:100080001020408001020408102001020408102002
:10009000040404040404040402020202020203032E
:1000A0000303030300000000250028002B000000CC
:1000B0000000240027002A00C40011241FBECFEF37
:1000C000D8E0DEBFCDBF11E0A0E0B1E0E0E0F9E0B4
:1000D00002C005900D92A632B107D9F721E0A6E241
:1000E000B1E001C01D92A434B207E1F710E0CDE504
:1000F000D0E004C02197FE010E947804CC35D107DE
:10010000C9F70E94F0010C9475040C94000020E0E3
:1001100044E064E186E291E00E94F10286E291E02F
:100120000E94B40286E291E00E94D20360ED77E083
:1001300080E090E00E94460186E291E00C94CB03BF
:1001400040E060E086E291E00E94BB0268E071E07E
:1001500086E291E00E94EE0141E060E086E291E0FB
:100160000E94BB0264E171E086E291E00E94EE0130
:1001700042E060E086E291E00E94BB0267E171E04C
:1001800086E291E00C94EE01CF92EF920F9382E021
:10019000C82E93E0E92E04E025E04BE06CE086E217
:1001A00091E00E94A5030F91EF90CF9008951F92C8
:1001B0000F920FB60F9211242F933F938F939F931B
:1001C000AF93BF9380913C0190913D01A0913E017E
:1001D000B0913F0130913B0123E0230F2D3720F4F4
:1001E0000196A11DB11D05C026E8230F0296A11D91
:1001F000B11D20933B0180933C0190933D01A0935E
:100200003E01B0933F018091400190914101A09146
:100210004201B09143010196A11DB11D809340019F
:1002200090934101A0934201B0934301BF91AF91DC
:100230009F918F913F912F910F900FBE0F901F9024
:1002400018953FB7F8948091400190914101A09199
:100250004201B091430126B5A89B05C02F3F19F07C
:100260000196A11DB11D3FBFBA2FA92F982F882736
:10027000820F911DA11DB11DBC01CD0142E0660F91
:10028000771F881F991F4A95D1F70895CF92DF9263
:10029000EF92FF92CF93DF936B017C010E942101CB
:1002A000EB01C114D104E104F10479F00E942101B1
:1002B0006C1B7D0B683E7340A0F381E0C81AD10827
:1002C000E108F108C851DC4FECCFDF91CF91FF90EE
:1002D000EF90DF90CF900895019739F0880F991F24
:1002E000880F991F02970197F1F70895789484B5C4
:1002F000826084BD84B5816084BD85B5826085BD22
:1003000085B5816085BDEEE6F0E080818160808307
:10031000E1E8F0E0108280818260808380818160EA
:100320008083E0E8F0E0808181608083E1EBF0E0B1
:10033000808184608083E0EBF0E080818160808355
:10034000EAE7F0E08081846080838081826080833E
:100350008081816080838081806880831092C10069
:100360000895CF92DF92EF92FF920F931F93CF9356
:10037000DF936C01EB017B01E40EF51E00E010E061
:10038000CE15DF0561F06991D601ED91FC910190E8
:10039000F081E02DC6010995080F191FF1CFC801A2
:1003A000DF91CF911F910F91FF90EF90DF90CF9051
:1003B00008956115710579F0FB0101900020E9F7BE
:1003C0003197AF01461B570BDC01ED91FC91028088
:1003D000F381E02D099480E090E008950C94D90118
:1003E0000E9476010E948700C0E0D0E00E94A00039
:1003F0002097E1F30E940000F9CFCF93DF93EC0147
:1004000060E08E810E94450481E090E00E946C01D2
:1004100061E08E810E94450481E090E00E946C01C1
:1004200060E08E810E94450484E690E0DF91CF91E8
:100430000C946C01AF92BF92CF92DF92EF92FF9239
:100440000F931F93CF93DF935C017C0187E0E80E4D
:10045000F11CC0E0D0E0062F10E0670161E0F70179
:1004600081917F010E940904B8010C2E02C075958C
:1004700067950A94E2F76170F60180810E94450455
:100480002196C430D10549F7C501DF91CF911F9165
:100490000F91FF90EF90DF90CF90BF90AF900C94B2
:1004A000FD01AF92BF92CF92DF92EF92FF920F9336
:1004B0001F93CF93DF935C017C0187E0E80EF11C72
:1004C000C0E0D0E0062F10E0670161E0F701819104
:1004D0007F010E940904B8010C2E02C07595679532
:1004E0000A94E2F76170F60180810E94450421962A
:1004F000C830D10549F7C501DF91CF911F910F9108
:10050000FF90EF90DF90CF90BF90AF900C94FD01E3
:100510001F93CF93DF93EC01162F642F8C810E94E1
:1005200045048D818F3F19F060E00E9445048F855E
:10053000612F84FF06C0CE01DF91CF911F910C94F3
:10054000510270E084E0759567958A95E1F7CE01D8
:100550000E941A02612FCE01DF91CF911F910C945E
:100560001A0240E00C94880261E00E94B10280ED22
:1005700097E00C946C01CF93DF93CDB7DEB728974B
:100580000FB6F894DEBF0FBECDBF9C0188E0E0E05F
:10059000F1E0DE01119601900D928A95E1F7F901E3
:1005A0008389481710F04FEF480FFE013196E40F92
:1005B000F11DE40FF11D9081690F6068C901289653
:1005C0000FB6F894DEBF0FBECDBFDF91CF910C9474
:1005D000B102FC016089262F2460208B6C600C9492
:1005E000B102CF93DF93EC01423018F08F85886021
:1005F0008F874B8B1C8A222329F0413019F48F8579
:1006000084608F8780E593EC0E946C0160E08C81B0
:100610000E94450460E08E810E9445048D818F3FD9
:1006200019F060E00E9445046F8564FD1DC063E021
:10063000CE010E941A0284E991E10E946C0163E0FC
:10064000CE010E941A0284E991E10E946C0163E0EC
:10065000CE010E941A0286E990E00E946C0162E0DD
:10066000CE010E941A0216C06062CE010E94B10241
:1006700084E991E10E946C016F856062CE010E9465
:10068000B10286E990E00E946C016F856062CE0144
:100690000E94B1026F856062CE010E94B10284E0C7
:1006A000888BCE010E94E902CE010E94B40282E052
:1006B000898B66E0CE01DF91CF910C94B1026F92ED
:1006C0007F928F92AF92CF92EF920F931F93CF931F
:1006D000DF93CDB7DEB73C01162F842F5D854E85A5
:1006E0003F859889F301848325830683E782C0864A
:1006F000A1868286538744873587968761E00E946A
:100700000904F30185818F3F19F061E00E9409041B
:1007100061E0F30186810E940904112319F0F301BD
:10072000178603C080E1F301878720E041E060E1A4
:10073000C301DF91CF911F910F91EF90CF90AF90B8
:100740008F907F906F900C94F1028F92AF92CF9226
:10075000EF920F93DC0113961C921E921297E2E225
:10076000F1E0ED93FC931F921F921F921F928C2C2D
:10077000AE2CC02EE22E042F2FEF462F61E00E94F8
:100780005F030F900F900F900F900F91EF90CF900D
:10079000AF908F900895FC0160896D7F608B6860D9
:1007A0000C94B102FC016089262F2260208B6A60C4
:1007B0000C94B10241E00E94880281E090E008952B
:1007C000833081F028F4813099F08230A1F00895CF
:1007D0008630A9F08730B9F08430D1F48091800060
:1007E0008F7D03C0809180008F7780938000089573
:1007F00084B58F7702C084B58F7D84BD08958091C4
:10080000B0008F7703C08091B0008F7D8093B000DF
:100810000895CF93DF9390E0FC01E458FF4F2491BB
:10082000FC01E057FF4F8491882361F190E0880F2D
:10083000991FFC01E255FF4FC591D491FC01EC5585
:10084000FF4FA591B491611109C09FB7F8948881B9
:10085000209582238883EC912E230BC0623061F4B3
:100860009FB7F8943881822F809583238883EC91F9
:100870002E2B2C939FBF06C08FB7F894E8812E2BA8
:1008800028838FBFDF91CF9108951F93CF93DF937C
:10089000282F30E0F901E859FF4F8491F901E4581D
:1008A000FF4FD491F901E057FF4FC491CC23C9F019
:1008B000162F81110E94E003EC2FF0E0EE0FFF1FD6
:1008C000EC55FF4FA591B4918FB7F894111105C065
:1008D0009C91ED2FE095E92302C0EC91ED2BEC9378
:1008E0008FBFDF91CF911F910895F8940C947E04EF
:1008F000EE0FFF1F0590F491E02D0994F894FFCFBF
:1009000000004000140054004841434B4142494C10
:1009100049545900415400504F4C49544F00000075
:060920000000DA03B10142
:00000001FF
