:100000000C9462000C947F000C947F000C947F0091
:100010000C947F000C947F000C947F000C941A04C5
:100020000C947F000C947F000C947F000C947F0054
:100030000C947F000C947F000C947F000C947F0044
:100040000C9483040C947F000C947F000C947F002C
:100050000C947F000C947F000C947F000C947F0024
:100060000C947F000C947F00000000070002010048
:100070000003040600000000000000000102040864
:100080001020408001020408102001020408102002
:10009000040404040404040402020202020203032E
:1000A00003030303000000002300260029000000D2
:1000B0000000250028002B0000000000240027007D
:1000C0002A00020011241FBECFEFD8E0DEBFCDBF53
:1000D00011E0A0E0B1E0E0EDFAE002C005900D9281
:1000E000A230B107D9F721E0A2E0B1E001C01D9232
:1000F000A432B207E1F70E9476040C9408050C9430
:10010000000061E089E00E94EE0061E08CE00E9466
:10011000EE0060E08AE00E94EE0060E08BE00C946C
:10012000EE0060E089E00E942A018AE00E945A0104
:1001300090930301809302018BE00E945A019093F7
:1001400005018093040120910201309103012130C7
:10015000310559F461E089E00E942A0124E130E090
:1001600040E050E068EB71E00CC0019769F464E195
:1001700089E00E942A0124E130E040E050E060E4A0
:1001800071E08CE00C9483010895833081F028F4B1
:10019000813099F08230A1F008958630A9F087303F
:1001A000B9F08430D1F4809180008F7D03C08091BC
:1001B00080008F7780938000089584B58F7702C088
:1001C00084B58F7D84BD08958091B0008F7703C082
:1001D0008091B0008F7D8093B0000895CF93DF931E
:1001E00090E0FC01E458FF4F2491FC01E057FF4FE1
:1001F0008491882361F190E0880F991FFC01E854F5
:10020000FF4FC591D491FC01E255FF4FA591B491E8
:10021000611109C09FB7F894888120958223888353
:10022000EC912E230BC0623061F49FB7F8943881B3
:10023000822F809583238883EC912E2B2C939FBF54
:1002400006C08FB7F894E8812E2B28838FBFDF91EB
:10025000CF9108951F93CF93DF93282F30E0F901BA
:10026000E859FF4F8491F901E458FF4FD491F90107
:10027000E057FF4FC491CC23C9F0162F81110E9483
:10028000C500EC2FF0E0EE0FFF1FE255FF4FA591E8
:10029000B4918FB7F894111105C09C91ED2FE095A2
:1002A000E92302C0EC91ED2BEC938FBFDF91CF914E
:1002B0001F910895CF93DF93282F30E0F901E8597B
:1002C000FF4F8491F901E458FF4FD491F901E057B1
:1002D000FF4FC491CC2391F081110E94C500EC2FF7
:1002E000F0E0EE0FFF1FEC55FF4FA591B491EC919C
:1002F000ED2381E090E021F480E002C080E090E016
:10030000DF91CF9108953F924F925F926F927F92CB
:100310008F929F92AF92BF92CF92DF92EF92FF9215
:100320000F931F93CF93DF9300D000D0CDB7DEB7EC
:1003300090910001981721F09F3F09F02FC204C04F
:10034000E2ECF0E0349081C080930001E2ECF0E058
:10035000E491EF3F09F422C2E13031F1E23009F4D7
:100360004BC0E11171C014BC15BC94B5926094BD32
:1003700095B5916095BDA82FB0E0FD01E057FF4F06
:10038000E491F0E0EE0FFF1FE255FF4F059114914D
:100390001093160100931501FD01E458FF4FE491FD
:1003A000E0931401312C53C0109280001092810010
:1003B000909181009860909381009091810091606C
:1003C00090938100A82FB0E0FD01E057FF4FE4912A
:1003D000F0E0EE0FFF1FE255FF4F059114911093CF
:1003E0000F0100930E01FD01E458FF4FE491E093EB
:1003F0000D01332433942BC01092B0001092B10041
:100400009091B00092609093B0009091B100916093
:100410009093B100A82FB0E0FD01E057FF4FE491A9
:10042000F0E0EE0FFF1FE255FF4F0591149110937E
:10043000080100930701FD01E458FF4FE491E093A8
:10044000060102E0302E03C03E2E37FCA7C1290171
:100450003A018B0161E00E94EE004801A12CB12C11
:10046000832D8D7F09F0B4C060E072E18AE790E0EF
:10047000A50194010E942D0529833A834B835C8357
:1004800069017A0121E0C21AD108E108F1088FEF71
:10049000C816D104E104F10409F008F44CC060E48A
:1004A00072E48FE090E0A50194010E942D0569019E
:1004B0007A01E1E0CE1AD108E108F108F2E03F123A
:1004C00020C02FEFC216D104E104F10409F008F4B2
:1004D00063C160E970ED83E090E0A50194010E94A2
:1004E0002D0569017A0181E0C81AD108E108F108F7
:1004F000EFEFCE16D104E104F10409F0B8F583E082
:1005000064C0FFEFCF16D104E104F104B1F0A8F00C
:1005100068E478EE81E090E0A50194010E942D0549
:1005200069017A0181E0C81AD108E108F108332095
:1005300009F4D8C028C181E001C082E03320A1F0D5
:1005400044C089819A81AB81BC812AE0B595A79589
:10055000979587952A95D1F76C017D0121E0C21A04
:10056000D108E108F10885E085BD6BC068E478EE4C
:1005700081E090E0A50194010E942D0569017A01B6
:10058000F1E0CF1AD108E108F1082FEFC216D1042B
:10059000E104F10409F008F4A3C064E274EF80E020
:1005A00090E0A50194010E942D0569017A01E1E026
:1005B000CE1AD108E108F108FFEFCF16D104E1040B
:1005C000F10411F008F0B0C085E08093B10039C0AB
:1005D00060E072E18AE790E0A50194010E942D0598
:1005E00069017A0181E0C81AD108E108F108C11453
:1005F000D104E1E0EE06F10488F068E478EE81E0F1
:1006000090E0A50194010E942D0569017A01F1E0B5
:10061000CF1AD108E108F10893E001C091E021E090
:1006200032120FC080918100887F892B80938100D6
:10063000411451046104710449F42FEF3FEFA90103
:100640002DC0411451046104710471F0D801AA0F46
:10065000BB1FA30192010E944C0528EE33E040E04D
:1006600050E00E940B0503C02FEF3FEFA90181E08E
:100670003816A1F0E2E03E1619F131108FC0C7BC68
:1006800020931701309318014093190150931A01D8
:1006900080916E00826080936E0080C0D09289004D
:1006A000C0928800209310013093110140931201F1
:1006B0005093130180916F00826080936F006EC031
:1006C000C092B3002093090130930A0140930B01BB
:1006D00050930C01809170008260809370005EC026
:1006E00084E073CFFFEFCF16D104E104F104D1F021
:1006F000C8F062E17AE780E090E0A50194010E94F1
:100700002D0569017A0181E0C81AD108E108F108D4
:10071000EFEFCE16D104E104F10411F008F011CF8F
:1007200084E022CF83E020CF62E17AE780E090E0AE
:10073000A50194010E942D0569017A0181E0C81A82
:10074000D108E108F108EFEFCE16D104E104F1047D
:10075000C1F0B8F089819A81AB81BC814AE0B5953E
:10076000A795979587954A95D1F76C017D0121E072
:10077000C21AD108E108F108332009F4F4CE87E069
:1007800024CF86E0DBCEFFEFCF16D104E104F104E5
:1007900009F050F684E0D2CE82E017CF0F900F9090
:1007A0000F900F90DF91CF911F910F91FF90EF90DD
:1007B000DF90CF90BF90AF909F908F907F906F9081
:1007C0005F904F903F900895813039F018F082305B
:1007D00051F0089510926E00089580916F008D7F02
:1007E00080936F000895809170008D7F80937000DA
:1007F00081E08093B0008091B100887F8460809315
:10080000B1001092B3000895CF93C82F80910001DA
:100810008C1307C0E2ECF0E0E4918FEF80930001CD
:1008200001C0EFEF8E2F0E94E40360E08C2FCF9188
:100830000C942A011F920F920FB60F9211242F933E
:100840003F934F935F936F937F938F939F93AF9358
:10085000BF93EF93FF938091090190910A01A091BA
:100860000B01B0910C01892B8A2B8B2B51F18091BC
:100870000601E0910701F0910801908189278083AA
:100880008091090190910A01A0910B01B0910C0196
:10089000181619061A061B06C4F4809109019091D6
:1008A0000A01A0910B01B0910C010197A109B109B6
:1008B0008093090190930A01A0930B01B0930C015E
:1008C00004C0809100010E940404FF91EF91BF9148
:1008D000AF919F918F917F916F915F914F913F91D8
:1008E0002F910F900FBE0F901F9018950E94CD046E
:1008F0000E948100C0E0D0E00E9491002097E1F3C7
:100900000E940000F9CF1F920F920FB60F92112490
:100910002F933F938F939F93AF93BF9380911C012D
:1009200090911D01A0911E01B0911F0130911B01FA
:1009300023E0230F2D3720F40196A11DB11D05C022
:1009400026E8230F0296A11DB11D20931B01809361
:100950001C0190931D01A0931E01B0931F01809173
:10096000200190912101A0912201B09123010196D3
:10097000A11DB11D8093200190932101A09322011C
:10098000B0932301BF91AF919F918F913F912F9190
:100990000F900FBE0F901F901895789484B58260C9
:1009A00084BD84B5816084BD85B5826085BD85B513
:1009B000816085BDEEE6F0E0808181608083E1E8C2
:1009C000F0E01082808182608083808181608083FA
:1009D000E0E8F0E0808181608083E1EBF0E08081FD
:1009E00084608083E0EBF0E0808181608083EAE7CF
:1009F000F0E0808184608083808182608083808158
:100A0000816080838081806880831092C100089516
:100A1000F8940C946605A1E21A2EAA1BBB1BFD01DB
:100A20000DC0AA1FBB1FEE1FFF1FA217B307E407CD
:100A3000F50720F0A21BB30BE40BF50B661F771F25
:100A4000881F991F1A9469F7609570958095909505
:100A50009B01AC01BD01CF010895052E97FB1EF44B
:100A600000940E94440557FD07D00E940B0507FC27
:100A700003D04EF40C944405509540953095219543
:100A80003F4F4F4F5F4F08959095809570956195BA
:100A90007F4F8F4F9F4F08950E945705A59F900D40
:100AA000B49F900DA49F800D911D11240895A29FC5
:100AB000B001B39FC001A39F700D811D1124911D32
:100AC000B29F700D811D1124911D0895F894FFCFE0
:020AD000FF0025
:00000001FF
